{
	"data": {
		"bytecode": {
			"linkReferences": {},
			"object": "608060405234801561001057600080fd5b5061002d61002261003260201b60201c565b61003a60201b60201c565b6100fe565b600033905090565b60008060009054906101000a900473ffffffffffffffffffffffffffffffffffffffff169050816000806101000a81548173ffffffffffffffffffffffffffffffffffffffff021916908373ffffffffffffffffffffffffffffffffffffffff1602179055508173ffffffffffffffffffffffffffffffffffffffff168173ffffffffffffffffffffffffffffffffffffffff167f8be0079c531659141344cd1fd0a4f28419497f9722a3daafe3b4186f6b6457e060405160405180910390a35050565b612259806200010e6000396000f3fe608060405234801561001057600080fd5b50600436106100ea5760003560e01c80639e9fd7a81161008c578063d1394ce411610066578063d1394ce414610214578063d728daaa14610232578063eb73900b14610262578063f2fde38b1461027e576100ea565b80639e9fd7a8146101a8578063a3ec138d146101c4578063c64963c5146101f6576100ea565b80633ea9cef0116100c85780633ea9cef01461015a578063715018a6146101645780638da5cb5b1461016e57806395bc95381461018c576100ea565b8063013cf08b146100ef578063167dfc5e14610120578063200d2ed21461013c575b600080fd5b610109600480360381019061010491906113bb565b61029a565b604051610117929190611487565b60405180910390f35b61013a6004803603810190610135919061157a565b610356565b005b6101446105c4565b6040516101519190611651565b60405180910390f35b6101626105d7565b005b61016c610718565b005b61017661072c565b604051610183919061167b565b60405180910390f35b6101a660048036038101906101a191906116bb565b610755565b005b6101c260048036038101906101bd91906116e8565b610853565b005b6101de60048036038101906101d99190611728565b610b70565b6040516101ed93929190611770565b60405180910390f35b6101fe610bb4565b60405161020b91906117a7565b60405180910390f35b61021c610bba565b60405161022991906117a7565b60405180910390f35b61024c60048036038101906102479190611728565b610d42565b6040516102599190611858565b60405180910390f35b61027c60048036038101906102779190611728565b610f20565b005b61029860048036038101906102939190611728565b611194565b005b600381815481106102aa57600080fd5b90600052602060002090600202016000915090508060000180546102cd906118a9565b80601f01602080910402602001604051908101604052809291908181526020018280546102f9906118a9565b80156103465780601f1061031b57610100808354040283529160200191610346565b820191906000526020600020905b81548152906001019060200180831161032957829003601f168201915b5050505050908060010154905082565b6001600581111561036a576103696115da565b5b600560009054906101000a900460ff16600581111561038c5761038b6115da565b5b146103cc576040517f08c379a00000000000000000000000000000000000000000000000000000000081526004016103c390611926565b60405180910390fd5b600073ffffffffffffffffffffffffffffffffffffffff168373ffffffffffffffffffffffffffffffffffffffff160361043b576040517f08c379a0000000000000000000000000000000000000000000000000000000008152600401610432906119b8565b60405180910390fd5b600160008473ffffffffffffffffffffffffffffffffffffffff1673ffffffffffffffffffffffffffffffffffffffff16815260200190815260200160002060000160009054906101000a900460ff166104ca576040517f08c379a00000000000000000000000000000000000000000000000000000000081526004016104c190611a24565b60405180910390fd5b6003604051806040016040528084848080601f016020809104026020016040519081016040528093929190818152602001838380828437600081840152601f19601f8201169050808301925050505050505081526020016000815250908060018154018082558091505060019003906000526020600020906002020160009091909190915060008201518160000190816105649190611c1f565b50602082015181600101555050600060016003805490506105859190611d20565b90507f92e393e9b54e2f801d3ea4beb0c5e71a21cc34a5d34b77d0fb8a3aa1650dc18f816040516105b691906117a7565b60405180910390a150505050565b600560009054906101000a900460ff1681565b6105df611217565b6003600560006101000a81548160ff02191690836005811115610605576106046115da565b5b021790555060005b6002805490508110156106c6576000600160006002848154811061063457610633611d54565b5b9060005260206000200160009054906101000a900473ffffffffffffffffffffffffffffffffffffffff1673ffffffffffffffffffffffffffffffffffffffff1673ffffffffffffffffffffffffffffffffffffffff16815260200190815260200160002060000160016101000a81548160ff02191690831515021790555080806106be90611d83565b91505061060d565b5060005b600380549050811015610715576000600382815481106106ed576106ec611d54565b5b906000526020600020906002020160010181905550808061070d90611d83565b9150506106ca565b50565b610720611217565b61072a6000611295565b565b60008060009054906101000a900473ffffffffffffffffffffffffffffffffffffffff16905090565b61075d611217565b6001600560009054906101000a900460ff166005811115610781576107806115da565b5b61078b9190611dcb565b81600581111561079e5761079d6115da565b5b146107de576040517f08c379a00000000000000000000000000000000000000000000000000000000081526004016107d590611e4b565b60405180910390fd5b7f0a97a4ee45751e2abf3e4fc8946939630b11b371ea8ae39ccdc3056e98f5cc3f600560009054906101000a900460ff168260405161081e929190611e6b565b60405180910390a180600560006101000a81548160ff0219169083600581111561084b5761084a6115da565b5b021790555050565b60036005811115610867576108666115da565b5b600560009054906101000a900460ff166005811115610889576108886115da565b5b146108c9576040517f08c379a00000000000000000000000000000000000000000000000000000000081526004016108c090611ee0565b60405180910390fd5b600073ffffffffffffffffffffffffffffffffffffffff168273ffffffffffffffffffffffffffffffffffffffff1603610938576040517f08c379a000000000000000000000000000000000000000000000000000000000815260040161092f906119b8565b60405180910390fd5b600160008373ffffffffffffffffffffffffffffffffffffffff1673ffffffffffffffffffffffffffffffffffffffff16815260200190815260200160002060000160009054906101000a900460ff166109c7576040517f08c379a00000000000000000000000000000000000000000000000000000000081526004016109be90611a24565b60405180910390fd5b600160008373ffffffffffffffffffffffffffffffffffffffff1673ffffffffffffffffffffffffffffffffffffffff16815260200190815260200160002060000160019054906101000a900460ff1615610a57576040517f08c379a0000000000000000000000000000000000000000000000000000000008152600401610a4e90611f4c565b60405180910390fd5b60018060008473ffffffffffffffffffffffffffffffffffffffff1673ffffffffffffffffffffffffffffffffffffffff16815260200190815260200160002060000160016101000a81548160ff02191690831515021790555080600160008473ffffffffffffffffffffffffffffffffffffffff1673ffffffffffffffffffffffffffffffffffffffff1681526020019081526020016000206001018190555060038181548110610b0c57610b0b611d54565b5b90600052602060002090600202016001016000815480929190610b2e90611d83565b91905055507f4d99b957a2bc29a30ebd96a7be8e68fe50a3c701db28a91436490b7d53870ca48282604051610b64929190611f6c565b60405180910390a15050565b60016020528060005260406000206000915090508060000160009054906101000a900460ff16908060000160019054906101000a900460ff16908060010154905083565b60045481565b600060046005811115610bd057610bcf6115da565b5b600560009054906101000a900460ff166005811115610bf257610bf16115da565b5b14610c32576040517f08c379a0000000000000000000000000000000000000000000000000000000008152600401610c2990611ee0565b60405180910390fd5b60008060005b600380549050811015610cf45760038181548110610c5957610c58611d54565b5b906000526020600020906002020160010154831015610ca65760038181548110610c8657610c85611d54565b5b906000526020600020906002020160010154925060009150806004819055505b60038181548110610cba57610cb9611d54565b5b9060005260206000209060020201600101548303610ce1578180610cdd90611d83565b9250505b8080610cec90611d83565b915050610c38565b5060008114610d38576040517f08c379a0000000000000000000000000000000000000000000000000000000008152600401610d2f90612007565b60405180910390fd5b6004549250505090565b610d4a611361565b600580811115610d5d57610d5c6115da565b5b600560009054906101000a900460ff166005811115610d7f57610d7e6115da565b5b14610dbf576040517f08c379a0000000000000000000000000000000000000000000000000000000008152600401610db690611ee0565b60405180910390fd5b600160008373ffffffffffffffffffffffffffffffffffffffff1673ffffffffffffffffffffffffffffffffffffffff16815260200190815260200160002060000160009054906101000a900460ff16610e4e576040517f08c379a0000000000000000000000000000000000000000000000000000000008152600401610e4590611a24565b60405180910390fd5b600360045481548110610e6457610e63611d54565b5b9060005260206000209060020201604051806040016040529081600082018054610e8d906118a9565b80601f0160208091040260200160405190810160405280929190818152602001828054610eb9906118a9565b8015610f065780601f10610edb57610100808354040283529160200191610f06565b820191906000526020600020905b815481529060010190602001808311610ee957829003601f168201915b505050505081526020016001820154815250509050919050565b610f28611217565b600160008273ffffffffffffffffffffffffffffffffffffffff1673ffffffffffffffffffffffffffffffffffffffff16815260200190815260200160002060000160009054906101000a900460ff1615610fb8576040517f08c379a0000000000000000000000000000000000000000000000000000000008152600401610faf90612099565b60405180910390fd5b600073ffffffffffffffffffffffffffffffffffffffff168173ffffffffffffffffffffffffffffffffffffffff1603611027576040517f08c379a000000000000000000000000000000000000000000000000000000000815260040161101e906119b8565b60405180910390fd5b6000600581111561103b5761103a6115da565b5b600560009054906101000a900460ff16600581111561105d5761105c6115da565b5b1461109d576040517f08c379a000000000000000000000000000000000000000000000000000000000815260040161109490612105565b60405180910390fd5b60018060008373ffffffffffffffffffffffffffffffffffffffff1673ffffffffffffffffffffffffffffffffffffffff16815260200190815260200160002060000160006101000a81548160ff0219169083151502179055506002819080600181540180825580915050600190039060005260206000200160009091909190916101000a81548173ffffffffffffffffffffffffffffffffffffffff021916908373ffffffffffffffffffffffffffffffffffffffff1602179055507fb6be2187d059cc2a55fe29e0e503b566e1e0f8c8780096e185429350acffd3dd81604051611189919061167b565b60405180910390a150565b61119c611217565b600073ffffffffffffffffffffffffffffffffffffffff168173ffffffffffffffffffffffffffffffffffffffff160361120b576040517f08c379a000000000000000000000000000000000000000000000000000000000815260040161120290612197565b60405180910390fd5b61121481611295565b50565b61121f611359565b73ffffffffffffffffffffffffffffffffffffffff1661123d61072c565b73ffffffffffffffffffffffffffffffffffffffff1614611293576040517f08c379a000000000000000000000000000000000000000000000000000000000815260040161128a90612203565b60405180910390fd5b565b60008060009054906101000a900473ffffffffffffffffffffffffffffffffffffffff169050816000806101000a81548173ffffffffffffffffffffffffffffffffffffffff021916908373ffffffffffffffffffffffffffffffffffffffff1602179055508173ffffffffffffffffffffffffffffffffffffffff168173ffffffffffffffffffffffffffffffffffffffff167f8be0079c531659141344cd1fd0a4f28419497f9722a3daafe3b4186f6b6457e060405160405180910390a35050565b600033905090565b604051806040016040528060608152602001600081525090565b600080fd5b600080fd5b6000819050919050565b61139881611385565b81146113a357600080fd5b50565b6000813590506113b58161138f565b92915050565b6000602082840312156113d1576113d061137b565b5b60006113df848285016113a6565b91505092915050565b600081519050919050565b600082825260208201905092915050565b60005b83811015611422578082015181840152602081019050611407565b60008484015250505050565b6000601f19601f8301169050919050565b600061144a826113e8565b61145481856113f3565b9350611464818560208601611404565b61146d8161142e565b840191505092915050565b61148181611385565b82525050565b600060408201905081810360008301526114a1818561143f565b90506114b06020830184611478565b9392505050565b600073ffffffffffffffffffffffffffffffffffffffff82169050919050565b60006114e2826114b7565b9050919050565b6114f2816114d7565b81146114fd57600080fd5b50565b60008135905061150f816114e9565b92915050565b600080fd5b600080fd5b600080fd5b60008083601f84011261153a57611539611515565b5b8235905067ffffffffffffffff8111156115575761155661151a565b5b6020830191508360018202830111156115735761157261151f565b5b9250929050565b6000806000604084860312156115935761159261137b565b5b60006115a186828701611500565b935050602084013567ffffffffffffffff8111156115c2576115c1611380565b5b6115ce86828701611524565b92509250509250925092565b7f4e487b7100000000000000000000000000000000000000000000000000000000600052602160045260246000fd5b6006811061161a576116196115da565b5b50565b600081905061162b82611609565b919050565b600061163b8261161d565b9050919050565b61164b81611630565b82525050565b60006020820190506116666000830184611642565b92915050565b611675816114d7565b82525050565b6000602082019050611690600083018461166c565b92915050565b600681106116a357600080fd5b50565b6000813590506116b581611696565b92915050565b6000602082840312156116d1576116d061137b565b5b60006116df848285016116a6565b91505092915050565b600080604083850312156116ff576116fe61137b565b5b600061170d85828601611500565b925050602061171e858286016113a6565b9150509250929050565b60006020828403121561173e5761173d61137b565b5b600061174c84828501611500565b91505092915050565b60008115159050919050565b61176a81611755565b82525050565b60006060820190506117856000830186611761565b6117926020830185611761565b61179f6040830184611478565b949350505050565b60006020820190506117bc6000830184611478565b92915050565b600082825260208201905092915050565b60006117de826113e8565b6117e881856117c2565b93506117f8818560208601611404565b6118018161142e565b840191505092915050565b61181581611385565b82525050565b6000604083016000830151848203600086015261183882826117d3565b915050602083015161184d602086018261180c565b508091505092915050565b60006020820190508181036000830152611872818461181b565b905092915050565b7f4e487b7100000000000000000000000000000000000000000000000000000000600052602260045260246000fd5b600060028204905060018216806118c157607f821691505b6020821081036118d4576118d361187a565b5b50919050565b7f53746174757320666f7220726567697374726174696f6e2069732077726f6e67600082015250565b60006119106020836113f3565b915061191b826118da565b602082019050919050565b6000602082019050818103600083015261193f81611903565b9050919050565b7f596f752063616e6e6f74207472616e7366657220746f2074686520616464726560008201527f7373207a65726f00000000000000000000000000000000000000000000000000602082015250565b60006119a26027836113f3565b91506119ad82611946565b604082019050919050565b600060208201905081810360008301526119d181611995565b9050919050565b7f41646472657373206973206e6f7420696e2077697468656c6973740000000000600082015250565b6000611a0e601b836113f3565b9150611a19826119d8565b602082019050919050565b60006020820190508181036000830152611a3d81611a01565b9050919050565b7f4e487b7100000000000000000000000000000000000000000000000000000000600052604160045260246000fd5b60008190508160005260206000209050919050565b60006020601f8301049050919050565b600082821b905092915050565b600060088302611ad57fffffffffffffffffffffffffffffffffffffffffffffffffffffffffffffffff82611a98565b611adf8683611a98565b95508019841693508086168417925050509392505050565b6000819050919050565b6000611b1c611b17611b1284611385565b611af7565b611385565b9050919050565b6000819050919050565b611b3683611b01565b611b4a611b4282611b23565b848454611aa5565b825550505050565b600090565b611b5f611b52565b611b6a818484611b2d565b505050565b5b81811015611b8e57611b83600082611b57565b600181019050611b70565b5050565b601f821115611bd357611ba481611a73565b611bad84611a88565b81016020851015611bbc578190505b611bd0611bc885611a88565b830182611b6f565b50505b505050565b600082821c905092915050565b6000611bf660001984600802611bd8565b1980831691505092915050565b6000611c0f8383611be5565b9150826002028217905092915050565b611c28826113e8565b67ffffffffffffffff811115611c4157611c40611a44565b5b611c4b82546118a9565b611c56828285611b92565b600060209050601f831160018114611c895760008415611c77578287015190505b611c818582611c03565b865550611ce9565b601f198416611c9786611a73565b60005b82811015611cbf57848901518255600182019150602085019450602081019050611c9a565b86831015611cdc5784890151611cd8601f891682611be5565b8355505b6001600288020188555050505b505050505050565b7f4e487b7100000000000000000000000000000000000000000000000000000000600052601160045260246000fd5b6000611d2b82611385565b9150611d3683611385565b9250828203905081811115611d4e57611d4d611cf1565b5b92915050565b7f4e487b7100000000000000000000000000000000000000000000000000000000600052603260045260246000fd5b6000611d8e82611385565b91507fffffffffffffffffffffffffffffffffffffffffffffffffffffffffffffffff8203611dc057611dbf611cf1565b5b600182019050919050565b6000611dd682611385565b9150611de183611385565b9250828201905080821115611df957611df8611cf1565b5b92915050565b7f5468652063757272656e74207374617475732069732077726f6e670000000000600082015250565b6000611e35601b836113f3565b9150611e4082611dff565b602082019050919050565b60006020820190508181036000830152611e6481611e28565b9050919050565b6000604082019050611e806000830185611642565b611e8d6020830184611642565b9392505050565b7f53746174757320666f7220766f74696e672069732077726f6e67000000000000600082015250565b6000611eca601a836113f3565b9150611ed582611e94565b602082019050919050565b60006020820190508181036000830152611ef981611ebd565b9050919050565b7f557365722068617320616c726561647920766f74656400000000000000000000600082015250565b6000611f366016836113f3565b9150611f4182611f00565b602082019050919050565b60006020820190508181036000830152611f6581611f29565b9050919050565b6000604082019050611f81600083018561166c565b611f8e6020830184611478565b9392505050565b7f54696520766f7465732c20706c6561736520726573746172742074686520766f60008201527f74696e672073657373696f6e0000000000000000000000000000000000000000602082015250565b6000611ff1602c836113f3565b9150611ffc82611f95565b604082019050919050565b6000602082019050818103600083015261202081611fe4565b9050919050565b7f54686973206164647265737320697320616c72656164792077686974656c697360008201527f7465642021000000000000000000000000000000000000000000000000000000602082015250565b60006120836025836113f3565b915061208e82612027565b604082019050919050565b600060208201905081810360008301526120b281612076565b9050919050565b7f5374617475732069732077726f6e670000000000000000000000000000000000600082015250565b60006120ef600f836113f3565b91506120fa826120b9565b602082019050919050565b6000602082019050818103600083015261211e816120e2565b9050919050565b7f4f776e61626c653a206e6577206f776e657220697320746865207a65726f206160008201527f6464726573730000000000000000000000000000000000000000000000000000602082015250565b60006121816026836113f3565b915061218c82612125565b604082019050919050565b600060208201905081810360008301526121b081612174565b9050919050565b7f4f776e61626c653a2063616c6c6572206973206e6f7420746865206f776e6572600082015250565b60006121ed6020836113f3565b91506121f8826121b7565b602082019050919050565b6000602082019050818103600083015261221c816121e0565b905091905056fea26469706673582212206fd18f1193c1949816c2a4d21cbda3cf512f0f18076f7e84cd0b8177c7a99db664736f6c63430008110033",
			"opcodes": "PUSH1 0x80 PUSH1 0x40 MSTORE CALLVALUE DUP1 ISZERO PUSH2 0x10 JUMPI PUSH1 0x0 DUP1 REVERT JUMPDEST POP PUSH2 0x2D PUSH2 0x22 PUSH2 0x32 PUSH1 0x20 SHL PUSH1 0x20 SHR JUMP JUMPDEST PUSH2 0x3A PUSH1 0x20 SHL PUSH1 0x20 SHR JUMP JUMPDEST PUSH2 0xFE JUMP JUMPDEST PUSH1 0x0 CALLER SWAP1 POP SWAP1 JUMP JUMPDEST PUSH1 0x0 DUP1 PUSH1 0x0 SWAP1 SLOAD SWAP1 PUSH2 0x100 EXP SWAP1 DIV PUSH20 0xFFFFFFFFFFFFFFFFFFFFFFFFFFFFFFFFFFFFFFFF AND SWAP1 POP DUP2 PUSH1 0x0 DUP1 PUSH2 0x100 EXP DUP2 SLOAD DUP2 PUSH20 0xFFFFFFFFFFFFFFFFFFFFFFFFFFFFFFFFFFFFFFFF MUL NOT AND SWAP1 DUP4 PUSH20 0xFFFFFFFFFFFFFFFFFFFFFFFFFFFFFFFFFFFFFFFF AND MUL OR SWAP1 SSTORE POP DUP2 PUSH20 0xFFFFFFFFFFFFFFFFFFFFFFFFFFFFFFFFFFFFFFFF AND DUP2 PUSH20 0xFFFFFFFFFFFFFFFFFFFFFFFFFFFFFFFFFFFFFFFF AND PUSH32 0x8BE0079C531659141344CD1FD0A4F28419497F9722A3DAAFE3B4186F6B6457E0 PUSH1 0x40 MLOAD PUSH1 0x40 MLOAD DUP1 SWAP2 SUB SWAP1 LOG3 POP POP JUMP JUMPDEST PUSH2 0x2259 DUP1 PUSH3 0x10E PUSH1 0x0 CODECOPY PUSH1 0x0 RETURN INVALID PUSH1 0x80 PUSH1 0x40 MSTORE CALLVALUE DUP1 ISZERO PUSH2 0x10 JUMPI PUSH1 0x0 DUP1 REVERT JUMPDEST POP PUSH1 0x4 CALLDATASIZE LT PUSH2 0xEA JUMPI PUSH1 0x0 CALLDATALOAD PUSH1 0xE0 SHR DUP1 PUSH4 0x9E9FD7A8 GT PUSH2 0x8C JUMPI DUP1 PUSH4 0xD1394CE4 GT PUSH2 0x66 JUMPI DUP1 PUSH4 0xD1394CE4 EQ PUSH2 0x214 JUMPI DUP1 PUSH4 0xD728DAAA EQ PUSH2 0x232 JUMPI DUP1 PUSH4 0xEB73900B EQ PUSH2 0x262 JUMPI DUP1 PUSH4 0xF2FDE38B EQ PUSH2 0x27E JUMPI PUSH2 0xEA JUMP JUMPDEST DUP1 PUSH4 0x9E9FD7A8 EQ PUSH2 0x1A8 JUMPI DUP1 PUSH4 0xA3EC138D EQ PUSH2 0x1C4 JUMPI DUP1 PUSH4 0xC64963C5 EQ PUSH2 0x1F6 JUMPI PUSH2 0xEA JUMP JUMPDEST DUP1 PUSH4 0x3EA9CEF0 GT PUSH2 0xC8 JUMPI DUP1 PUSH4 0x3EA9CEF0 EQ PUSH2 0x15A JUMPI DUP1 PUSH4 0x715018A6 EQ PUSH2 0x164 JUMPI DUP1 PUSH4 0x8DA5CB5B EQ PUSH2 0x16E JUMPI DUP1 PUSH4 0x95BC9538 EQ PUSH2 0x18C JUMPI PUSH2 0xEA JUMP JUMPDEST DUP1 PUSH4 0x13CF08B EQ PUSH2 0xEF JUMPI DUP1 PUSH4 0x167DFC5E EQ PUSH2 0x120 JUMPI DUP1 PUSH4 0x200D2ED2 EQ PUSH2 0x13C JUMPI JUMPDEST PUSH1 0x0 DUP1 REVERT JUMPDEST PUSH2 0x109 PUSH1 0x4 DUP1 CALLDATASIZE SUB DUP2 ADD SWAP1 PUSH2 0x104 SWAP2 SWAP1 PUSH2 0x13BB JUMP JUMPDEST PUSH2 0x29A JUMP JUMPDEST PUSH1 0x40 MLOAD PUSH2 0x117 SWAP3 SWAP2 SWAP1 PUSH2 0x1487 JUMP JUMPDEST PUSH1 0x40 MLOAD DUP1 SWAP2 SUB SWAP1 RETURN JUMPDEST PUSH2 0x13A PUSH1 0x4 DUP1 CALLDATASIZE SUB DUP2 ADD SWAP1 PUSH2 0x135 SWAP2 SWAP1 PUSH2 0x157A JUMP JUMPDEST PUSH2 0x356 JUMP JUMPDEST STOP JUMPDEST PUSH2 0x144 PUSH2 0x5C4 JUMP JUMPDEST PUSH1 0x40 MLOAD PUSH2 0x151 SWAP2 SWAP1 PUSH2 0x1651 JUMP JUMPDEST PUSH1 0x40 MLOAD DUP1 SWAP2 SUB SWAP1 RETURN JUMPDEST PUSH2 0x162 PUSH2 0x5D7 JUMP JUMPDEST STOP JUMPDEST PUSH2 0x16C PUSH2 0x718 JUMP JUMPDEST STOP JUMPDEST PUSH2 0x176 PUSH2 0x72C JUMP JUMPDEST PUSH1 0x40 MLOAD PUSH2 0x183 SWAP2 SWAP1 PUSH2 0x167B JUMP JUMPDEST PUSH1 0x40 MLOAD DUP1 SWAP2 SUB SWAP1 RETURN JUMPDEST PUSH2 0x1A6 PUSH1 0x4 DUP1 CALLDATASIZE SUB DUP2 ADD SWAP1 PUSH2 0x1A1 SWAP2 SWAP1 PUSH2 0x16BB JUMP JUMPDEST PUSH2 0x755 JUMP JUMPDEST STOP JUMPDEST PUSH2 0x1C2 PUSH1 0x4 DUP1 CALLDATASIZE SUB DUP2 ADD SWAP1 PUSH2 0x1BD SWAP2 SWAP1 PUSH2 0x16E8 JUMP JUMPDEST PUSH2 0x853 JUMP JUMPDEST STOP JUMPDEST PUSH2 0x1DE PUSH1 0x4 DUP1 CALLDATASIZE SUB DUP2 ADD SWAP1 PUSH2 0x1D9 SWAP2 SWAP1 PUSH2 0x1728 JUMP JUMPDEST PUSH2 0xB70 JUMP JUMPDEST PUSH1 0x40 MLOAD PUSH2 0x1ED SWAP4 SWAP3 SWAP2 SWAP1 PUSH2 0x1770 JUMP JUMPDEST PUSH1 0x40 MLOAD DUP1 SWAP2 SUB SWAP1 RETURN JUMPDEST PUSH2 0x1FE PUSH2 0xBB4 JUMP JUMPDEST PUSH1 0x40 MLOAD PUSH2 0x20B SWAP2 SWAP1 PUSH2 0x17A7 JUMP JUMPDEST PUSH1 0x40 MLOAD DUP1 SWAP2 SUB SWAP1 RETURN JUMPDEST PUSH2 0x21C PUSH2 0xBBA JUMP JUMPDEST PUSH1 0x40 MLOAD PUSH2 0x229 SWAP2 SWAP1 PUSH2 0x17A7 JUMP JUMPDEST PUSH1 0x40 MLOAD DUP1 SWAP2 SUB SWAP1 RETURN JUMPDEST PUSH2 0x24C PUSH1 0x4 DUP1 CALLDATASIZE SUB DUP2 ADD SWAP1 PUSH2 0x247 SWAP2 SWAP1 PUSH2 0x1728 JUMP JUMPDEST PUSH2 0xD42 JUMP JUMPDEST PUSH1 0x40 MLOAD PUSH2 0x259 SWAP2 SWAP1 PUSH2 0x1858 JUMP JUMPDEST PUSH1 0x40 MLOAD DUP1 SWAP2 SUB SWAP1 RETURN JUMPDEST PUSH2 0x27C PUSH1 0x4 DUP1 CALLDATASIZE SUB DUP2 ADD SWAP1 PUSH2 0x277 SWAP2 SWAP1 PUSH2 0x1728 JUMP JUMPDEST PUSH2 0xF20 JUMP JUMPDEST STOP JUMPDEST PUSH2 0x298 PUSH1 0x4 DUP1 CALLDATASIZE SUB DUP2 ADD SWAP1 PUSH2 0x293 SWAP2 SWAP1 PUSH2 0x1728 JUMP JUMPDEST PUSH2 0x1194 JUMP JUMPDEST STOP JUMPDEST PUSH1 0x3 DUP2 DUP2 SLOAD DUP2 LT PUSH2 0x2AA JUMPI PUSH1 0x0 DUP1 REVERT JUMPDEST SWAP1 PUSH1 0x0 MSTORE PUSH1 0x20 PUSH1 0x0 KECCAK256 SWAP1 PUSH1 0x2 MUL ADD PUSH1 0x0 SWAP2 POP SWAP1 POP DUP1 PUSH1 0x0 ADD DUP1 SLOAD PUSH2 0x2CD SWAP1 PUSH2 0x18A9 JUMP JUMPDEST DUP1 PUSH1 0x1F ADD PUSH1 0x20 DUP1 SWAP2 DIV MUL PUSH1 0x20 ADD PUSH1 0x40 MLOAD SWAP1 DUP2 ADD PUSH1 0x40 MSTORE DUP1 SWAP3 SWAP2 SWAP1 DUP2 DUP2 MSTORE PUSH1 0x20 ADD DUP3 DUP1 SLOAD PUSH2 0x2F9 SWAP1 PUSH2 0x18A9 JUMP JUMPDEST DUP1 ISZERO PUSH2 0x346 JUMPI DUP1 PUSH1 0x1F LT PUSH2 0x31B JUMPI PUSH2 0x100 DUP1 DUP4 SLOAD DIV MUL DUP4 MSTORE SWAP2 PUSH1 0x20 ADD SWAP2 PUSH2 0x346 JUMP JUMPDEST DUP3 ADD SWAP2 SWAP1 PUSH1 0x0 MSTORE PUSH1 0x20 PUSH1 0x0 KECCAK256 SWAP1 JUMPDEST DUP2 SLOAD DUP2 MSTORE SWAP1 PUSH1 0x1 ADD SWAP1 PUSH1 0x20 ADD DUP1 DUP4 GT PUSH2 0x329 JUMPI DUP3 SWAP1 SUB PUSH1 0x1F AND DUP3 ADD SWAP2 JUMPDEST POP POP POP POP POP SWAP1 DUP1 PUSH1 0x1 ADD SLOAD SWAP1 POP DUP3 JUMP JUMPDEST PUSH1 0x1 PUSH1 0x5 DUP2 GT ISZERO PUSH2 0x36A JUMPI PUSH2 0x369 PUSH2 0x15DA JUMP JUMPDEST JUMPDEST PUSH1 0x5 PUSH1 0x0 SWAP1 SLOAD SWAP1 PUSH2 0x100 EXP SWAP1 DIV PUSH1 0xFF AND PUSH1 0x5 DUP2 GT ISZERO PUSH2 0x38C JUMPI PUSH2 0x38B PUSH2 0x15DA JUMP JUMPDEST JUMPDEST EQ PUSH2 0x3CC JUMPI PUSH1 0x40 MLOAD PUSH32 0x8C379A000000000000000000000000000000000000000000000000000000000 DUP2 MSTORE PUSH1 0x4 ADD PUSH2 0x3C3 SWAP1 PUSH2 0x1926 JUMP JUMPDEST PUSH1 0x40 MLOAD DUP1 SWAP2 SUB SWAP1 REVERT JUMPDEST PUSH1 0x0 PUSH20 0xFFFFFFFFFFFFFFFFFFFFFFFFFFFFFFFFFFFFFFFF AND DUP4 PUSH20 0xFFFFFFFFFFFFFFFFFFFFFFFFFFFFFFFFFFFFFFFF AND SUB PUSH2 0x43B JUMPI PUSH1 0x40 MLOAD PUSH32 0x8C379A000000000000000000000000000000000000000000000000000000000 DUP2 MSTORE PUSH1 0x4 ADD PUSH2 0x432 SWAP1 PUSH2 0x19B8 JUMP JUMPDEST PUSH1 0x40 MLOAD DUP1 SWAP2 SUB SWAP1 REVERT JUMPDEST PUSH1 0x1 PUSH1 0x0 DUP5 PUSH20 0xFFFFFFFFFFFFFFFFFFFFFFFFFFFFFFFFFFFFFFFF AND PUSH20 0xFFFFFFFFFFFFFFFFFFFFFFFFFFFFFFFFFFFFFFFF AND DUP2 MSTORE PUSH1 0x20 ADD SWAP1 DUP2 MSTORE PUSH1 0x20 ADD PUSH1 0x0 KECCAK256 PUSH1 0x0 ADD PUSH1 0x0 SWAP1 SLOAD SWAP1 PUSH2 0x100 EXP SWAP1 DIV PUSH1 0xFF AND PUSH2 0x4CA JUMPI PUSH1 0x40 MLOAD PUSH32 0x8C379A000000000000000000000000000000000000000000000000000000000 DUP2 MSTORE PUSH1 0x4 ADD PUSH2 0x4C1 SWAP1 PUSH2 0x1A24 JUMP JUMPDEST PUSH1 0x40 MLOAD DUP1 SWAP2 SUB SWAP1 REVERT JUMPDEST PUSH1 0x3 PUSH1 0x40 MLOAD DUP1 PUSH1 0x40 ADD PUSH1 0x40 MSTORE DUP1 DUP5 DUP5 DUP1 DUP1 PUSH1 0x1F ADD PUSH1 0x20 DUP1 SWAP2 DIV MUL PUSH1 0x20 ADD PUSH1 0x40 MLOAD SWAP1 DUP2 ADD PUSH1 0x40 MSTORE DUP1 SWAP4 SWAP3 SWAP2 SWAP1 DUP2 DUP2 MSTORE PUSH1 0x20 ADD DUP4 DUP4 DUP1 DUP3 DUP5 CALLDATACOPY PUSH1 0x0 DUP2 DUP5 ADD MSTORE PUSH1 0x1F NOT PUSH1 0x1F DUP3 ADD AND SWAP1 POP DUP1 DUP4 ADD SWAP3 POP POP POP POP POP POP POP DUP2 MSTORE PUSH1 0x20 ADD PUSH1 0x0 DUP2 MSTORE POP SWAP1 DUP1 PUSH1 0x1 DUP2 SLOAD ADD DUP1 DUP3 SSTORE DUP1 SWAP2 POP POP PUSH1 0x1 SWAP1 SUB SWAP1 PUSH1 0x0 MSTORE PUSH1 0x20 PUSH1 0x0 KECCAK256 SWAP1 PUSH1 0x2 MUL ADD PUSH1 0x0 SWAP1 SWAP2 SWAP1 SWAP2 SWAP1 SWAP2 POP PUSH1 0x0 DUP3 ADD MLOAD DUP2 PUSH1 0x0 ADD SWAP1 DUP2 PUSH2 0x564 SWAP2 SWAP1 PUSH2 0x1C1F JUMP JUMPDEST POP PUSH1 0x20 DUP3 ADD MLOAD DUP2 PUSH1 0x1 ADD SSTORE POP POP PUSH1 0x0 PUSH1 0x1 PUSH1 0x3 DUP1 SLOAD SWAP1 POP PUSH2 0x585 SWAP2 SWAP1 PUSH2 0x1D20 JUMP JUMPDEST SWAP1 POP PUSH32 0x92E393E9B54E2F801D3EA4BEB0C5E71A21CC34A5D34B77D0FB8A3AA1650DC18F DUP2 PUSH1 0x40 MLOAD PUSH2 0x5B6 SWAP2 SWAP1 PUSH2 0x17A7 JUMP JUMPDEST PUSH1 0x40 MLOAD DUP1 SWAP2 SUB SWAP1 LOG1 POP POP POP POP JUMP JUMPDEST PUSH1 0x5 PUSH1 0x0 SWAP1 SLOAD SWAP1 PUSH2 0x100 EXP SWAP1 DIV PUSH1 0xFF AND DUP2 JUMP JUMPDEST PUSH2 0x5DF PUSH2 0x1217 JUMP JUMPDEST PUSH1 0x3 PUSH1 0x5 PUSH1 0x0 PUSH2 0x100 EXP DUP2 SLOAD DUP2 PUSH1 0xFF MUL NOT AND SWAP1 DUP4 PUSH1 0x5 DUP2 GT ISZERO PUSH2 0x605 JUMPI PUSH2 0x604 PUSH2 0x15DA JUMP JUMPDEST JUMPDEST MUL OR SWAP1 SSTORE POP PUSH1 0x0 JUMPDEST PUSH1 0x2 DUP1 SLOAD SWAP1 POP DUP2 LT ISZERO PUSH2 0x6C6 JUMPI PUSH1 0x0 PUSH1 0x1 PUSH1 0x0 PUSH1 0x2 DUP5 DUP2 SLOAD DUP2 LT PUSH2 0x634 JUMPI PUSH2 0x633 PUSH2 0x1D54 JUMP JUMPDEST JUMPDEST SWAP1 PUSH1 0x0 MSTORE PUSH1 0x20 PUSH1 0x0 KECCAK256 ADD PUSH1 0x0 SWAP1 SLOAD SWAP1 PUSH2 0x100 EXP SWAP1 DIV PUSH20 0xFFFFFFFFFFFFFFFFFFFFFFFFFFFFFFFFFFFFFFFF AND PUSH20 0xFFFFFFFFFFFFFFFFFFFFFFFFFFFFFFFFFFFFFFFF AND PUSH20 0xFFFFFFFFFFFFFFFFFFFFFFFFFFFFFFFFFFFFFFFF AND DUP2 MSTORE PUSH1 0x20 ADD SWAP1 DUP2 MSTORE PUSH1 0x20 ADD PUSH1 0x0 KECCAK256 PUSH1 0x0 ADD PUSH1 0x1 PUSH2 0x100 EXP DUP2 SLOAD DUP2 PUSH1 0xFF MUL NOT AND SWAP1 DUP4 ISZERO ISZERO MUL OR SWAP1 SSTORE POP DUP1 DUP1 PUSH2 0x6BE SWAP1 PUSH2 0x1D83 JUMP JUMPDEST SWAP2 POP POP PUSH2 0x60D JUMP JUMPDEST POP PUSH1 0x0 JUMPDEST PUSH1 0x3 DUP1 SLOAD SWAP1 POP DUP2 LT ISZERO PUSH2 0x715 JUMPI PUSH1 0x0 PUSH1 0x3 DUP3 DUP2 SLOAD DUP2 LT PUSH2 0x6ED JUMPI PUSH2 0x6EC PUSH2 0x1D54 JUMP JUMPDEST JUMPDEST SWAP1 PUSH1 0x0 MSTORE PUSH1 0x20 PUSH1 0x0 KECCAK256 SWAP1 PUSH1 0x2 MUL ADD PUSH1 0x1 ADD DUP2 SWAP1 SSTORE POP DUP1 DUP1 PUSH2 0x70D SWAP1 PUSH2 0x1D83 JUMP JUMPDEST SWAP2 POP POP PUSH2 0x6CA JUMP JUMPDEST POP JUMP JUMPDEST PUSH2 0x720 PUSH2 0x1217 JUMP JUMPDEST PUSH2 0x72A PUSH1 0x0 PUSH2 0x1295 JUMP JUMPDEST JUMP JUMPDEST PUSH1 0x0 DUP1 PUSH1 0x0 SWAP1 SLOAD SWAP1 PUSH2 0x100 EXP SWAP1 DIV PUSH20 0xFFFFFFFFFFFFFFFFFFFFFFFFFFFFFFFFFFFFFFFF AND SWAP1 POP SWAP1 JUMP JUMPDEST PUSH2 0x75D PUSH2 0x1217 JUMP JUMPDEST PUSH1 0x1 PUSH1 0x5 PUSH1 0x0 SWAP1 SLOAD SWAP1 PUSH2 0x100 EXP SWAP1 DIV PUSH1 0xFF AND PUSH1 0x5 DUP2 GT ISZERO PUSH2 0x781 JUMPI PUSH2 0x780 PUSH2 0x15DA JUMP JUMPDEST JUMPDEST PUSH2 0x78B SWAP2 SWAP1 PUSH2 0x1DCB JUMP JUMPDEST DUP2 PUSH1 0x5 DUP2 GT ISZERO PUSH2 0x79E JUMPI PUSH2 0x79D PUSH2 0x15DA JUMP JUMPDEST JUMPDEST EQ PUSH2 0x7DE JUMPI PUSH1 0x40 MLOAD PUSH32 0x8C379A000000000000000000000000000000000000000000000000000000000 DUP2 MSTORE PUSH1 0x4 ADD PUSH2 0x7D5 SWAP1 PUSH2 0x1E4B JUMP JUMPDEST PUSH1 0x40 MLOAD DUP1 SWAP2 SUB SWAP1 REVERT JUMPDEST PUSH32 0xA97A4EE45751E2ABF3E4FC8946939630B11B371EA8AE39CCDC3056E98F5CC3F PUSH1 0x5 PUSH1 0x0 SWAP1 SLOAD SWAP1 PUSH2 0x100 EXP SWAP1 DIV PUSH1 0xFF AND DUP3 PUSH1 0x40 MLOAD PUSH2 0x81E SWAP3 SWAP2 SWAP1 PUSH2 0x1E6B JUMP JUMPDEST PUSH1 0x40 MLOAD DUP1 SWAP2 SUB SWAP1 LOG1 DUP1 PUSH1 0x5 PUSH1 0x0 PUSH2 0x100 EXP DUP2 SLOAD DUP2 PUSH1 0xFF MUL NOT AND SWAP1 DUP4 PUSH1 0x5 DUP2 GT ISZERO PUSH2 0x84B JUMPI PUSH2 0x84A PUSH2 0x15DA JUMP JUMPDEST JUMPDEST MUL OR SWAP1 SSTORE POP POP JUMP JUMPDEST PUSH1 0x3 PUSH1 0x5 DUP2 GT ISZERO PUSH2 0x867 JUMPI PUSH2 0x866 PUSH2 0x15DA JUMP JUMPDEST JUMPDEST PUSH1 0x5 PUSH1 0x0 SWAP1 SLOAD SWAP1 PUSH2 0x100 EXP SWAP1 DIV PUSH1 0xFF AND PUSH1 0x5 DUP2 GT ISZERO PUSH2 0x889 JUMPI PUSH2 0x888 PUSH2 0x15DA JUMP JUMPDEST JUMPDEST EQ PUSH2 0x8C9 JUMPI PUSH1 0x40 MLOAD PUSH32 0x8C379A000000000000000000000000000000000000000000000000000000000 DUP2 MSTORE PUSH1 0x4 ADD PUSH2 0x8C0 SWAP1 PUSH2 0x1EE0 JUMP JUMPDEST PUSH1 0x40 MLOAD DUP1 SWAP2 SUB SWAP1 REVERT JUMPDEST PUSH1 0x0 PUSH20 0xFFFFFFFFFFFFFFFFFFFFFFFFFFFFFFFFFFFFFFFF AND DUP3 PUSH20 0xFFFFFFFFFFFFFFFFFFFFFFFFFFFFFFFFFFFFFFFF AND SUB PUSH2 0x938 JUMPI PUSH1 0x40 MLOAD PUSH32 0x8C379A000000000000000000000000000000000000000000000000000000000 DUP2 MSTORE PUSH1 0x4 ADD PUSH2 0x92F SWAP1 PUSH2 0x19B8 JUMP JUMPDEST PUSH1 0x40 MLOAD DUP1 SWAP2 SUB SWAP1 REVERT JUMPDEST PUSH1 0x1 PUSH1 0x0 DUP4 PUSH20 0xFFFFFFFFFFFFFFFFFFFFFFFFFFFFFFFFFFFFFFFF AND PUSH20 0xFFFFFFFFFFFFFFFFFFFFFFFFFFFFFFFFFFFFFFFF AND DUP2 MSTORE PUSH1 0x20 ADD SWAP1 DUP2 MSTORE PUSH1 0x20 ADD PUSH1 0x0 KECCAK256 PUSH1 0x0 ADD PUSH1 0x0 SWAP1 SLOAD SWAP1 PUSH2 0x100 EXP SWAP1 DIV PUSH1 0xFF AND PUSH2 0x9C7 JUMPI PUSH1 0x40 MLOAD PUSH32 0x8C379A000000000000000000000000000000000000000000000000000000000 DUP2 MSTORE PUSH1 0x4 ADD PUSH2 0x9BE SWAP1 PUSH2 0x1A24 JUMP JUMPDEST PUSH1 0x40 MLOAD DUP1 SWAP2 SUB SWAP1 REVERT JUMPDEST PUSH1 0x1 PUSH1 0x0 DUP4 PUSH20 0xFFFFFFFFFFFFFFFFFFFFFFFFFFFFFFFFFFFFFFFF AND PUSH20 0xFFFFFFFFFFFFFFFFFFFFFFFFFFFFFFFFFFFFFFFF AND DUP2 MSTORE PUSH1 0x20 ADD SWAP1 DUP2 MSTORE PUSH1 0x20 ADD PUSH1 0x0 KECCAK256 PUSH1 0x0 ADD PUSH1 0x1 SWAP1 SLOAD SWAP1 PUSH2 0x100 EXP SWAP1 DIV PUSH1 0xFF AND ISZERO PUSH2 0xA57 JUMPI PUSH1 0x40 MLOAD PUSH32 0x8C379A000000000000000000000000000000000000000000000000000000000 DUP2 MSTORE PUSH1 0x4 ADD PUSH2 0xA4E SWAP1 PUSH2 0x1F4C JUMP JUMPDEST PUSH1 0x40 MLOAD DUP1 SWAP2 SUB SWAP1 REVERT JUMPDEST PUSH1 0x1 DUP1 PUSH1 0x0 DUP5 PUSH20 0xFFFFFFFFFFFFFFFFFFFFFFFFFFFFFFFFFFFFFFFF AND PUSH20 0xFFFFFFFFFFFFFFFFFFFFFFFFFFFFFFFFFFFFFFFF AND DUP2 MSTORE PUSH1 0x20 ADD SWAP1 DUP2 MSTORE PUSH1 0x20 ADD PUSH1 0x0 KECCAK256 PUSH1 0x0 ADD PUSH1 0x1 PUSH2 0x100 EXP DUP2 SLOAD DUP2 PUSH1 0xFF MUL NOT AND SWAP1 DUP4 ISZERO ISZERO MUL OR SWAP1 SSTORE POP DUP1 PUSH1 0x1 PUSH1 0x0 DUP5 PUSH20 0xFFFFFFFFFFFFFFFFFFFFFFFFFFFFFFFFFFFFFFFF AND PUSH20 0xFFFFFFFFFFFFFFFFFFFFFFFFFFFFFFFFFFFFFFFF AND DUP2 MSTORE PUSH1 0x20 ADD SWAP1 DUP2 MSTORE PUSH1 0x20 ADD PUSH1 0x0 KECCAK256 PUSH1 0x1 ADD DUP2 SWAP1 SSTORE POP PUSH1 0x3 DUP2 DUP2 SLOAD DUP2 LT PUSH2 0xB0C JUMPI PUSH2 0xB0B PUSH2 0x1D54 JUMP JUMPDEST JUMPDEST SWAP1 PUSH1 0x0 MSTORE PUSH1 0x20 PUSH1 0x0 KECCAK256 SWAP1 PUSH1 0x2 MUL ADD PUSH1 0x1 ADD PUSH1 0x0 DUP2 SLOAD DUP1 SWAP3 SWAP2 SWAP1 PUSH2 0xB2E SWAP1 PUSH2 0x1D83 JUMP JUMPDEST SWAP2 SWAP1 POP SSTORE POP PUSH32 0x4D99B957A2BC29A30EBD96A7BE8E68FE50A3C701DB28A91436490B7D53870CA4 DUP3 DUP3 PUSH1 0x40 MLOAD PUSH2 0xB64 SWAP3 SWAP2 SWAP1 PUSH2 0x1F6C JUMP JUMPDEST PUSH1 0x40 MLOAD DUP1 SWAP2 SUB SWAP1 LOG1 POP POP JUMP JUMPDEST PUSH1 0x1 PUSH1 0x20 MSTORE DUP1 PUSH1 0x0 MSTORE PUSH1 0x40 PUSH1 0x0 KECCAK256 PUSH1 0x0 SWAP2 POP SWAP1 POP DUP1 PUSH1 0x0 ADD PUSH1 0x0 SWAP1 SLOAD SWAP1 PUSH2 0x100 EXP SWAP1 DIV PUSH1 0xFF AND SWAP1 DUP1 PUSH1 0x0 ADD PUSH1 0x1 SWAP1 SLOAD SWAP1 PUSH2 0x100 EXP SWAP1 DIV PUSH1 0xFF AND SWAP1 DUP1 PUSH1 0x1 ADD SLOAD SWAP1 POP DUP4 JUMP JUMPDEST PUSH1 0x4 SLOAD DUP2 JUMP JUMPDEST PUSH1 0x0 PUSH1 0x4 PUSH1 0x5 DUP2 GT ISZERO PUSH2 0xBD0 JUMPI PUSH2 0xBCF PUSH2 0x15DA JUMP JUMPDEST JUMPDEST PUSH1 0x5 PUSH1 0x0 SWAP1 SLOAD SWAP1 PUSH2 0x100 EXP SWAP1 DIV PUSH1 0xFF AND PUSH1 0x5 DUP2 GT ISZERO PUSH2 0xBF2 JUMPI PUSH2 0xBF1 PUSH2 0x15DA JUMP JUMPDEST JUMPDEST EQ PUSH2 0xC32 JUMPI PUSH1 0x40 MLOAD PUSH32 0x8C379A000000000000000000000000000000000000000000000000000000000 DUP2 MSTORE PUSH1 0x4 ADD PUSH2 0xC29 SWAP1 PUSH2 0x1EE0 JUMP JUMPDEST PUSH1 0x40 MLOAD DUP1 SWAP2 SUB SWAP1 REVERT JUMPDEST PUSH1 0x0 DUP1 PUSH1 0x0 JUMPDEST PUSH1 0x3 DUP1 SLOAD SWAP1 POP DUP2 LT ISZERO PUSH2 0xCF4 JUMPI PUSH1 0x3 DUP2 DUP2 SLOAD DUP2 LT PUSH2 0xC59 JUMPI PUSH2 0xC58 PUSH2 0x1D54 JUMP JUMPDEST JUMPDEST SWAP1 PUSH1 0x0 MSTORE PUSH1 0x20 PUSH1 0x0 KECCAK256 SWAP1 PUSH1 0x2 MUL ADD PUSH1 0x1 ADD SLOAD DUP4 LT ISZERO PUSH2 0xCA6 JUMPI PUSH1 0x3 DUP2 DUP2 SLOAD DUP2 LT PUSH2 0xC86 JUMPI PUSH2 0xC85 PUSH2 0x1D54 JUMP JUMPDEST JUMPDEST SWAP1 PUSH1 0x0 MSTORE PUSH1 0x20 PUSH1 0x0 KECCAK256 SWAP1 PUSH1 0x2 MUL ADD PUSH1 0x1 ADD SLOAD SWAP3 POP PUSH1 0x0 SWAP2 POP DUP1 PUSH1 0x4 DUP2 SWAP1 SSTORE POP JUMPDEST PUSH1 0x3 DUP2 DUP2 SLOAD DUP2 LT PUSH2 0xCBA JUMPI PUSH2 0xCB9 PUSH2 0x1D54 JUMP JUMPDEST JUMPDEST SWAP1 PUSH1 0x0 MSTORE PUSH1 0x20 PUSH1 0x0 KECCAK256 SWAP1 PUSH1 0x2 MUL ADD PUSH1 0x1 ADD SLOAD DUP4 SUB PUSH2 0xCE1 JUMPI DUP2 DUP1 PUSH2 0xCDD SWAP1 PUSH2 0x1D83 JUMP JUMPDEST SWAP3 POP POP JUMPDEST DUP1 DUP1 PUSH2 0xCEC SWAP1 PUSH2 0x1D83 JUMP JUMPDEST SWAP2 POP POP PUSH2 0xC38 JUMP JUMPDEST POP PUSH1 0x0 DUP2 EQ PUSH2 0xD38 JUMPI PUSH1 0x40 MLOAD PUSH32 0x8C379A000000000000000000000000000000000000000000000000000000000 DUP2 MSTORE PUSH1 0x4 ADD PUSH2 0xD2F SWAP1 PUSH2 0x2007 JUMP JUMPDEST PUSH1 0x40 MLOAD DUP1 SWAP2 SUB SWAP1 REVERT JUMPDEST PUSH1 0x4 SLOAD SWAP3 POP POP POP SWAP1 JUMP JUMPDEST PUSH2 0xD4A PUSH2 0x1361 JUMP JUMPDEST PUSH1 0x5 DUP1 DUP2 GT ISZERO PUSH2 0xD5D JUMPI PUSH2 0xD5C PUSH2 0x15DA JUMP JUMPDEST JUMPDEST PUSH1 0x5 PUSH1 0x0 SWAP1 SLOAD SWAP1 PUSH2 0x100 EXP SWAP1 DIV PUSH1 0xFF AND PUSH1 0x5 DUP2 GT ISZERO PUSH2 0xD7F JUMPI PUSH2 0xD7E PUSH2 0x15DA JUMP JUMPDEST JUMPDEST EQ PUSH2 0xDBF JUMPI PUSH1 0x40 MLOAD PUSH32 0x8C379A000000000000000000000000000000000000000000000000000000000 DUP2 MSTORE PUSH1 0x4 ADD PUSH2 0xDB6 SWAP1 PUSH2 0x1EE0 JUMP JUMPDEST PUSH1 0x40 MLOAD DUP1 SWAP2 SUB SWAP1 REVERT JUMPDEST PUSH1 0x1 PUSH1 0x0 DUP4 PUSH20 0xFFFFFFFFFFFFFFFFFFFFFFFFFFFFFFFFFFFFFFFF AND PUSH20 0xFFFFFFFFFFFFFFFFFFFFFFFFFFFFFFFFFFFFFFFF AND DUP2 MSTORE PUSH1 0x20 ADD SWAP1 DUP2 MSTORE PUSH1 0x20 ADD PUSH1 0x0 KECCAK256 PUSH1 0x0 ADD PUSH1 0x0 SWAP1 SLOAD SWAP1 PUSH2 0x100 EXP SWAP1 DIV PUSH1 0xFF AND PUSH2 0xE4E JUMPI PUSH1 0x40 MLOAD PUSH32 0x8C379A000000000000000000000000000000000000000000000000000000000 DUP2 MSTORE PUSH1 0x4 ADD PUSH2 0xE45 SWAP1 PUSH2 0x1A24 JUMP JUMPDEST PUSH1 0x40 MLOAD DUP1 SWAP2 SUB SWAP1 REVERT JUMPDEST PUSH1 0x3 PUSH1 0x4 SLOAD DUP2 SLOAD DUP2 LT PUSH2 0xE64 JUMPI PUSH2 0xE63 PUSH2 0x1D54 JUMP JUMPDEST JUMPDEST SWAP1 PUSH1 0x0 MSTORE PUSH1 0x20 PUSH1 0x0 KECCAK256 SWAP1 PUSH1 0x2 MUL ADD PUSH1 0x40 MLOAD DUP1 PUSH1 0x40 ADD PUSH1 0x40 MSTORE SWAP1 DUP2 PUSH1 0x0 DUP3 ADD DUP1 SLOAD PUSH2 0xE8D SWAP1 PUSH2 0x18A9 JUMP JUMPDEST DUP1 PUSH1 0x1F ADD PUSH1 0x20 DUP1 SWAP2 DIV MUL PUSH1 0x20 ADD PUSH1 0x40 MLOAD SWAP1 DUP2 ADD PUSH1 0x40 MSTORE DUP1 SWAP3 SWAP2 SWAP1 DUP2 DUP2 MSTORE PUSH1 0x20 ADD DUP3 DUP1 SLOAD PUSH2 0xEB9 SWAP1 PUSH2 0x18A9 JUMP JUMPDEST DUP1 ISZERO PUSH2 0xF06 JUMPI DUP1 PUSH1 0x1F LT PUSH2 0xEDB JUMPI PUSH2 0x100 DUP1 DUP4 SLOAD DIV MUL DUP4 MSTORE SWAP2 PUSH1 0x20 ADD SWAP2 PUSH2 0xF06 JUMP JUMPDEST DUP3 ADD SWAP2 SWAP1 PUSH1 0x0 MSTORE PUSH1 0x20 PUSH1 0x0 KECCAK256 SWAP1 JUMPDEST DUP2 SLOAD DUP2 MSTORE SWAP1 PUSH1 0x1 ADD SWAP1 PUSH1 0x20 ADD DUP1 DUP4 GT PUSH2 0xEE9 JUMPI DUP3 SWAP1 SUB PUSH1 0x1F AND DUP3 ADD SWAP2 JUMPDEST POP POP POP POP POP DUP2 MSTORE PUSH1 0x20 ADD PUSH1 0x1 DUP3 ADD SLOAD DUP2 MSTORE POP POP SWAP1 POP SWAP2 SWAP1 POP JUMP JUMPDEST PUSH2 0xF28 PUSH2 0x1217 JUMP JUMPDEST PUSH1 0x1 PUSH1 0x0 DUP3 PUSH20 0xFFFFFFFFFFFFFFFFFFFFFFFFFFFFFFFFFFFFFFFF AND PUSH20 0xFFFFFFFFFFFFFFFFFFFFFFFFFFFFFFFFFFFFFFFF AND DUP2 MSTORE PUSH1 0x20 ADD SWAP1 DUP2 MSTORE PUSH1 0x20 ADD PUSH1 0x0 KECCAK256 PUSH1 0x0 ADD PUSH1 0x0 SWAP1 SLOAD SWAP1 PUSH2 0x100 EXP SWAP1 DIV PUSH1 0xFF AND ISZERO PUSH2 0xFB8 JUMPI PUSH1 0x40 MLOAD PUSH32 0x8C379A000000000000000000000000000000000000000000000000000000000 DUP2 MSTORE PUSH1 0x4 ADD PUSH2 0xFAF SWAP1 PUSH2 0x2099 JUMP JUMPDEST PUSH1 0x40 MLOAD DUP1 SWAP2 SUB SWAP1 REVERT JUMPDEST PUSH1 0x0 PUSH20 0xFFFFFFFFFFFFFFFFFFFFFFFFFFFFFFFFFFFFFFFF AND DUP2 PUSH20 0xFFFFFFFFFFFFFFFFFFFFFFFFFFFFFFFFFFFFFFFF AND SUB PUSH2 0x1027 JUMPI PUSH1 0x40 MLOAD PUSH32 0x8C379A000000000000000000000000000000000000000000000000000000000 DUP2 MSTORE PUSH1 0x4 ADD PUSH2 0x101E SWAP1 PUSH2 0x19B8 JUMP JUMPDEST PUSH1 0x40 MLOAD DUP1 SWAP2 SUB SWAP1 REVERT JUMPDEST PUSH1 0x0 PUSH1 0x5 DUP2 GT ISZERO PUSH2 0x103B JUMPI PUSH2 0x103A PUSH2 0x15DA JUMP JUMPDEST JUMPDEST PUSH1 0x5 PUSH1 0x0 SWAP1 SLOAD SWAP1 PUSH2 0x100 EXP SWAP1 DIV PUSH1 0xFF AND PUSH1 0x5 DUP2 GT ISZERO PUSH2 0x105D JUMPI PUSH2 0x105C PUSH2 0x15DA JUMP JUMPDEST JUMPDEST EQ PUSH2 0x109D JUMPI PUSH1 0x40 MLOAD PUSH32 0x8C379A000000000000000000000000000000000000000000000000000000000 DUP2 MSTORE PUSH1 0x4 ADD PUSH2 0x1094 SWAP1 PUSH2 0x2105 JUMP JUMPDEST PUSH1 0x40 MLOAD DUP1 SWAP2 SUB SWAP1 REVERT JUMPDEST PUSH1 0x1 DUP1 PUSH1 0x0 DUP4 PUSH20 0xFFFFFFFFFFFFFFFFFFFFFFFFFFFFFFFFFFFFFFFF AND PUSH20 0xFFFFFFFFFFFFFFFFFFFFFFFFFFFFFFFFFFFFFFFF AND DUP2 MSTORE PUSH1 0x20 ADD SWAP1 DUP2 MSTORE PUSH1 0x20 ADD PUSH1 0x0 KECCAK256 PUSH1 0x0 ADD PUSH1 0x0 PUSH2 0x100 EXP DUP2 SLOAD DUP2 PUSH1 0xFF MUL NOT AND SWAP1 DUP4 ISZERO ISZERO MUL OR SWAP1 SSTORE POP PUSH1 0x2 DUP2 SWAP1 DUP1 PUSH1 0x1 DUP2 SLOAD ADD DUP1 DUP3 SSTORE DUP1 SWAP2 POP POP PUSH1 0x1 SWAP1 SUB SWAP1 PUSH1 0x0 MSTORE PUSH1 0x20 PUSH1 0x0 KECCAK256 ADD PUSH1 0x0 SWAP1 SWAP2 SWAP1 SWAP2 SWAP1 SWAP2 PUSH2 0x100 EXP DUP2 SLOAD DUP2 PUSH20 0xFFFFFFFFFFFFFFFFFFFFFFFFFFFFFFFFFFFFFFFF MUL NOT AND SWAP1 DUP4 PUSH20 0xFFFFFFFFFFFFFFFFFFFFFFFFFFFFFFFFFFFFFFFF AND MUL OR SWAP1 SSTORE POP PUSH32 0xB6BE2187D059CC2A55FE29E0E503B566E1E0F8C8780096E185429350ACFFD3DD DUP2 PUSH1 0x40 MLOAD PUSH2 0x1189 SWAP2 SWAP1 PUSH2 0x167B JUMP JUMPDEST PUSH1 0x40 MLOAD DUP1 SWAP2 SUB SWAP1 LOG1 POP JUMP JUMPDEST PUSH2 0x119C PUSH2 0x1217 JUMP JUMPDEST PUSH1 0x0 PUSH20 0xFFFFFFFFFFFFFFFFFFFFFFFFFFFFFFFFFFFFFFFF AND DUP2 PUSH20 0xFFFFFFFFFFFFFFFFFFFFFFFFFFFFFFFFFFFFFFFF AND SUB PUSH2 0x120B JUMPI PUSH1 0x40 MLOAD PUSH32 0x8C379A000000000000000000000000000000000000000000000000000000000 DUP2 MSTORE PUSH1 0x4 ADD PUSH2 0x1202 SWAP1 PUSH2 0x2197 JUMP JUMPDEST PUSH1 0x40 MLOAD DUP1 SWAP2 SUB SWAP1 REVERT JUMPDEST PUSH2 0x1214 DUP2 PUSH2 0x1295 JUMP JUMPDEST POP JUMP JUMPDEST PUSH2 0x121F PUSH2 0x1359 JUMP JUMPDEST PUSH20 0xFFFFFFFFFFFFFFFFFFFFFFFFFFFFFFFFFFFFFFFF AND PUSH2 0x123D PUSH2 0x72C JUMP JUMPDEST PUSH20 0xFFFFFFFFFFFFFFFFFFFFFFFFFFFFFFFFFFFFFFFF AND EQ PUSH2 0x1293 JUMPI PUSH1 0x40 MLOAD PUSH32 0x8C379A000000000000000000000000000000000000000000000000000000000 DUP2 MSTORE PUSH1 0x4 ADD PUSH2 0x128A SWAP1 PUSH2 0x2203 JUMP JUMPDEST PUSH1 0x40 MLOAD DUP1 SWAP2 SUB SWAP1 REVERT JUMPDEST JUMP JUMPDEST PUSH1 0x0 DUP1 PUSH1 0x0 SWAP1 SLOAD SWAP1 PUSH2 0x100 EXP SWAP1 DIV PUSH20 0xFFFFFFFFFFFFFFFFFFFFFFFFFFFFFFFFFFFFFFFF AND SWAP1 POP DUP2 PUSH1 0x0 DUP1 PUSH2 0x100 EXP DUP2 SLOAD DUP2 PUSH20 0xFFFFFFFFFFFFFFFFFFFFFFFFFFFFFFFFFFFFFFFF MUL NOT AND SWAP1 DUP4 PUSH20 0xFFFFFFFFFFFFFFFFFFFFFFFFFFFFFFFFFFFFFFFF AND MUL OR SWAP1 SSTORE POP DUP2 PUSH20 0xFFFFFFFFFFFFFFFFFFFFFFFFFFFFFFFFFFFFFFFF AND DUP2 PUSH20 0xFFFFFFFFFFFFFFFFFFFFFFFFFFFFFFFFFFFFFFFF AND PUSH32 0x8BE0079C531659141344CD1FD0A4F28419497F9722A3DAAFE3B4186F6B6457E0 PUSH1 0x40 MLOAD PUSH1 0x40 MLOAD DUP1 SWAP2 SUB SWAP1 LOG3 POP POP JUMP JUMPDEST PUSH1 0x0 CALLER SWAP1 POP SWAP1 JUMP JUMPDEST PUSH1 0x40 MLOAD DUP1 PUSH1 0x40 ADD PUSH1 0x40 MSTORE DUP1 PUSH1 0x60 DUP2 MSTORE PUSH1 0x20 ADD PUSH1 0x0 DUP2 MSTORE POP SWAP1 JUMP JUMPDEST PUSH1 0x0 DUP1 REVERT JUMPDEST PUSH1 0x0 DUP1 REVERT JUMPDEST PUSH1 0x0 DUP2 SWAP1 POP SWAP2 SWAP1 POP JUMP JUMPDEST PUSH2 0x1398 DUP2 PUSH2 0x1385 JUMP JUMPDEST DUP2 EQ PUSH2 0x13A3 JUMPI PUSH1 0x0 DUP1 REVERT JUMPDEST POP JUMP JUMPDEST PUSH1 0x0 DUP2 CALLDATALOAD SWAP1 POP PUSH2 0x13B5 DUP2 PUSH2 0x138F JUMP JUMPDEST SWAP3 SWAP2 POP POP JUMP JUMPDEST PUSH1 0x0 PUSH1 0x20 DUP3 DUP5 SUB SLT ISZERO PUSH2 0x13D1 JUMPI PUSH2 0x13D0 PUSH2 0x137B JUMP JUMPDEST JUMPDEST PUSH1 0x0 PUSH2 0x13DF DUP5 DUP3 DUP6 ADD PUSH2 0x13A6 JUMP JUMPDEST SWAP2 POP POP SWAP3 SWAP2 POP POP JUMP JUMPDEST PUSH1 0x0 DUP2 MLOAD SWAP1 POP SWAP2 SWAP1 POP JUMP JUMPDEST PUSH1 0x0 DUP3 DUP3 MSTORE PUSH1 0x20 DUP3 ADD SWAP1 POP SWAP3 SWAP2 POP POP JUMP JUMPDEST PUSH1 0x0 JUMPDEST DUP4 DUP2 LT ISZERO PUSH2 0x1422 JUMPI DUP1 DUP3 ADD MLOAD DUP2 DUP5 ADD MSTORE PUSH1 0x20 DUP2 ADD SWAP1 POP PUSH2 0x1407 JUMP JUMPDEST PUSH1 0x0 DUP5 DUP5 ADD MSTORE POP POP POP POP JUMP JUMPDEST PUSH1 0x0 PUSH1 0x1F NOT PUSH1 0x1F DUP4 ADD AND SWAP1 POP SWAP2 SWAP1 POP JUMP JUMPDEST PUSH1 0x0 PUSH2 0x144A DUP3 PUSH2 0x13E8 JUMP JUMPDEST PUSH2 0x1454 DUP2 DUP6 PUSH2 0x13F3 JUMP JUMPDEST SWAP4 POP PUSH2 0x1464 DUP2 DUP6 PUSH1 0x20 DUP7 ADD PUSH2 0x1404 JUMP JUMPDEST PUSH2 0x146D DUP2 PUSH2 0x142E JUMP JUMPDEST DUP5 ADD SWAP2 POP POP SWAP3 SWAP2 POP POP JUMP JUMPDEST PUSH2 0x1481 DUP2 PUSH2 0x1385 JUMP JUMPDEST DUP3 MSTORE POP POP JUMP JUMPDEST PUSH1 0x0 PUSH1 0x40 DUP3 ADD SWAP1 POP DUP2 DUP2 SUB PUSH1 0x0 DUP4 ADD MSTORE PUSH2 0x14A1 DUP2 DUP6 PUSH2 0x143F JUMP JUMPDEST SWAP1 POP PUSH2 0x14B0 PUSH1 0x20 DUP4 ADD DUP5 PUSH2 0x1478 JUMP JUMPDEST SWAP4 SWAP3 POP POP POP JUMP JUMPDEST PUSH1 0x0 PUSH20 0xFFFFFFFFFFFFFFFFFFFFFFFFFFFFFFFFFFFFFFFF DUP3 AND SWAP1 POP SWAP2 SWAP1 POP JUMP JUMPDEST PUSH1 0x0 PUSH2 0x14E2 DUP3 PUSH2 0x14B7 JUMP JUMPDEST SWAP1 POP SWAP2 SWAP1 POP JUMP JUMPDEST PUSH2 0x14F2 DUP2 PUSH2 0x14D7 JUMP JUMPDEST DUP2 EQ PUSH2 0x14FD JUMPI PUSH1 0x0 DUP1 REVERT JUMPDEST POP JUMP JUMPDEST PUSH1 0x0 DUP2 CALLDATALOAD SWAP1 POP PUSH2 0x150F DUP2 PUSH2 0x14E9 JUMP JUMPDEST SWAP3 SWAP2 POP POP JUMP JUMPDEST PUSH1 0x0 DUP1 REVERT JUMPDEST PUSH1 0x0 DUP1 REVERT JUMPDEST PUSH1 0x0 DUP1 REVERT JUMPDEST PUSH1 0x0 DUP1 DUP4 PUSH1 0x1F DUP5 ADD SLT PUSH2 0x153A JUMPI PUSH2 0x1539 PUSH2 0x1515 JUMP JUMPDEST JUMPDEST DUP3 CALLDATALOAD SWAP1 POP PUSH8 0xFFFFFFFFFFFFFFFF DUP2 GT ISZERO PUSH2 0x1557 JUMPI PUSH2 0x1556 PUSH2 0x151A JUMP JUMPDEST JUMPDEST PUSH1 0x20 DUP4 ADD SWAP2 POP DUP4 PUSH1 0x1 DUP3 MUL DUP4 ADD GT ISZERO PUSH2 0x1573 JUMPI PUSH2 0x1572 PUSH2 0x151F JUMP JUMPDEST JUMPDEST SWAP3 POP SWAP3 SWAP1 POP JUMP JUMPDEST PUSH1 0x0 DUP1 PUSH1 0x0 PUSH1 0x40 DUP5 DUP7 SUB SLT ISZERO PUSH2 0x1593 JUMPI PUSH2 0x1592 PUSH2 0x137B JUMP JUMPDEST JUMPDEST PUSH1 0x0 PUSH2 0x15A1 DUP7 DUP3 DUP8 ADD PUSH2 0x1500 JUMP JUMPDEST SWAP4 POP POP PUSH1 0x20 DUP5 ADD CALLDATALOAD PUSH8 0xFFFFFFFFFFFFFFFF DUP2 GT ISZERO PUSH2 0x15C2 JUMPI PUSH2 0x15C1 PUSH2 0x1380 JUMP JUMPDEST JUMPDEST PUSH2 0x15CE DUP7 DUP3 DUP8 ADD PUSH2 0x1524 JUMP JUMPDEST SWAP3 POP SWAP3 POP POP SWAP3 POP SWAP3 POP SWAP3 JUMP JUMPDEST PUSH32 0x4E487B7100000000000000000000000000000000000000000000000000000000 PUSH1 0x0 MSTORE PUSH1 0x21 PUSH1 0x4 MSTORE PUSH1 0x24 PUSH1 0x0 REVERT JUMPDEST PUSH1 0x6 DUP2 LT PUSH2 0x161A JUMPI PUSH2 0x1619 PUSH2 0x15DA JUMP JUMPDEST JUMPDEST POP JUMP JUMPDEST PUSH1 0x0 DUP2 SWAP1 POP PUSH2 0x162B DUP3 PUSH2 0x1609 JUMP JUMPDEST SWAP2 SWAP1 POP JUMP JUMPDEST PUSH1 0x0 PUSH2 0x163B DUP3 PUSH2 0x161D JUMP JUMPDEST SWAP1 POP SWAP2 SWAP1 POP JUMP JUMPDEST PUSH2 0x164B DUP2 PUSH2 0x1630 JUMP JUMPDEST DUP3 MSTORE POP POP JUMP JUMPDEST PUSH1 0x0 PUSH1 0x20 DUP3 ADD SWAP1 POP PUSH2 0x1666 PUSH1 0x0 DUP4 ADD DUP5 PUSH2 0x1642 JUMP JUMPDEST SWAP3 SWAP2 POP POP JUMP JUMPDEST PUSH2 0x1675 DUP2 PUSH2 0x14D7 JUMP JUMPDEST DUP3 MSTORE POP POP JUMP JUMPDEST PUSH1 0x0 PUSH1 0x20 DUP3 ADD SWAP1 POP PUSH2 0x1690 PUSH1 0x0 DUP4 ADD DUP5 PUSH2 0x166C JUMP JUMPDEST SWAP3 SWAP2 POP POP JUMP JUMPDEST PUSH1 0x6 DUP2 LT PUSH2 0x16A3 JUMPI PUSH1 0x0 DUP1 REVERT JUMPDEST POP JUMP JUMPDEST PUSH1 0x0 DUP2 CALLDATALOAD SWAP1 POP PUSH2 0x16B5 DUP2 PUSH2 0x1696 JUMP JUMPDEST SWAP3 SWAP2 POP POP JUMP JUMPDEST PUSH1 0x0 PUSH1 0x20 DUP3 DUP5 SUB SLT ISZERO PUSH2 0x16D1 JUMPI PUSH2 0x16D0 PUSH2 0x137B JUMP JUMPDEST JUMPDEST PUSH1 0x0 PUSH2 0x16DF DUP5 DUP3 DUP6 ADD PUSH2 0x16A6 JUMP JUMPDEST SWAP2 POP POP SWAP3 SWAP2 POP POP JUMP JUMPDEST PUSH1 0x0 DUP1 PUSH1 0x40 DUP4 DUP6 SUB SLT ISZERO PUSH2 0x16FF JUMPI PUSH2 0x16FE PUSH2 0x137B JUMP JUMPDEST JUMPDEST PUSH1 0x0 PUSH2 0x170D DUP6 DUP3 DUP7 ADD PUSH2 0x1500 JUMP JUMPDEST SWAP3 POP POP PUSH1 0x20 PUSH2 0x171E DUP6 DUP3 DUP7 ADD PUSH2 0x13A6 JUMP JUMPDEST SWAP2 POP POP SWAP3 POP SWAP3 SWAP1 POP JUMP JUMPDEST PUSH1 0x0 PUSH1 0x20 DUP3 DUP5 SUB SLT ISZERO PUSH2 0x173E JUMPI PUSH2 0x173D PUSH2 0x137B JUMP JUMPDEST JUMPDEST PUSH1 0x0 PUSH2 0x174C DUP5 DUP3 DUP6 ADD PUSH2 0x1500 JUMP JUMPDEST SWAP2 POP POP SWAP3 SWAP2 POP POP JUMP JUMPDEST PUSH1 0x0 DUP2 ISZERO ISZERO SWAP1 POP SWAP2 SWAP1 POP JUMP JUMPDEST PUSH2 0x176A DUP2 PUSH2 0x1755 JUMP JUMPDEST DUP3 MSTORE POP POP JUMP JUMPDEST PUSH1 0x0 PUSH1 0x60 DUP3 ADD SWAP1 POP PUSH2 0x1785 PUSH1 0x0 DUP4 ADD DUP7 PUSH2 0x1761 JUMP JUMPDEST PUSH2 0x1792 PUSH1 0x20 DUP4 ADD DUP6 PUSH2 0x1761 JUMP JUMPDEST PUSH2 0x179F PUSH1 0x40 DUP4 ADD DUP5 PUSH2 0x1478 JUMP JUMPDEST SWAP5 SWAP4 POP POP POP POP JUMP JUMPDEST PUSH1 0x0 PUSH1 0x20 DUP3 ADD SWAP1 POP PUSH2 0x17BC PUSH1 0x0 DUP4 ADD DUP5 PUSH2 0x1478 JUMP JUMPDEST SWAP3 SWAP2 POP POP JUMP JUMPDEST PUSH1 0x0 DUP3 DUP3 MSTORE PUSH1 0x20 DUP3 ADD SWAP1 POP SWAP3 SWAP2 POP POP JUMP JUMPDEST PUSH1 0x0 PUSH2 0x17DE DUP3 PUSH2 0x13E8 JUMP JUMPDEST PUSH2 0x17E8 DUP2 DUP6 PUSH2 0x17C2 JUMP JUMPDEST SWAP4 POP PUSH2 0x17F8 DUP2 DUP6 PUSH1 0x20 DUP7 ADD PUSH2 0x1404 JUMP JUMPDEST PUSH2 0x1801 DUP2 PUSH2 0x142E JUMP JUMPDEST DUP5 ADD SWAP2 POP POP SWAP3 SWAP2 POP POP JUMP JUMPDEST PUSH2 0x1815 DUP2 PUSH2 0x1385 JUMP JUMPDEST DUP3 MSTORE POP POP JUMP JUMPDEST PUSH1 0x0 PUSH1 0x40 DUP4 ADD PUSH1 0x0 DUP4 ADD MLOAD DUP5 DUP3 SUB PUSH1 0x0 DUP7 ADD MSTORE PUSH2 0x1838 DUP3 DUP3 PUSH2 0x17D3 JUMP JUMPDEST SWAP2 POP POP PUSH1 0x20 DUP4 ADD MLOAD PUSH2 0x184D PUSH1 0x20 DUP7 ADD DUP3 PUSH2 0x180C JUMP JUMPDEST POP DUP1 SWAP2 POP POP SWAP3 SWAP2 POP POP JUMP JUMPDEST PUSH1 0x0 PUSH1 0x20 DUP3 ADD SWAP1 POP DUP2 DUP2 SUB PUSH1 0x0 DUP4 ADD MSTORE PUSH2 0x1872 DUP2 DUP5 PUSH2 0x181B JUMP JUMPDEST SWAP1 POP SWAP3 SWAP2 POP POP JUMP JUMPDEST PUSH32 0x4E487B7100000000000000000000000000000000000000000000000000000000 PUSH1 0x0 MSTORE PUSH1 0x22 PUSH1 0x4 MSTORE PUSH1 0x24 PUSH1 0x0 REVERT JUMPDEST PUSH1 0x0 PUSH1 0x2 DUP3 DIV SWAP1 POP PUSH1 0x1 DUP3 AND DUP1 PUSH2 0x18C1 JUMPI PUSH1 0x7F DUP3 AND SWAP2 POP JUMPDEST PUSH1 0x20 DUP3 LT DUP2 SUB PUSH2 0x18D4 JUMPI PUSH2 0x18D3 PUSH2 0x187A JUMP JUMPDEST JUMPDEST POP SWAP2 SWAP1 POP JUMP JUMPDEST PUSH32 0x53746174757320666F7220726567697374726174696F6E2069732077726F6E67 PUSH1 0x0 DUP3 ADD MSTORE POP JUMP JUMPDEST PUSH1 0x0 PUSH2 0x1910 PUSH1 0x20 DUP4 PUSH2 0x13F3 JUMP JUMPDEST SWAP2 POP PUSH2 0x191B DUP3 PUSH2 0x18DA JUMP JUMPDEST PUSH1 0x20 DUP3 ADD SWAP1 POP SWAP2 SWAP1 POP JUMP JUMPDEST PUSH1 0x0 PUSH1 0x20 DUP3 ADD SWAP1 POP DUP2 DUP2 SUB PUSH1 0x0 DUP4 ADD MSTORE PUSH2 0x193F DUP2 PUSH2 0x1903 JUMP JUMPDEST SWAP1 POP SWAP2 SWAP1 POP JUMP JUMPDEST PUSH32 0x596F752063616E6E6F74207472616E7366657220746F20746865206164647265 PUSH1 0x0 DUP3 ADD MSTORE PUSH32 0x7373207A65726F00000000000000000000000000000000000000000000000000 PUSH1 0x20 DUP3 ADD MSTORE POP JUMP JUMPDEST PUSH1 0x0 PUSH2 0x19A2 PUSH1 0x27 DUP4 PUSH2 0x13F3 JUMP JUMPDEST SWAP2 POP PUSH2 0x19AD DUP3 PUSH2 0x1946 JUMP JUMPDEST PUSH1 0x40 DUP3 ADD SWAP1 POP SWAP2 SWAP1 POP JUMP JUMPDEST PUSH1 0x0 PUSH1 0x20 DUP3 ADD SWAP1 POP DUP2 DUP2 SUB PUSH1 0x0 DUP4 ADD MSTORE PUSH2 0x19D1 DUP2 PUSH2 0x1995 JUMP JUMPDEST SWAP1 POP SWAP2 SWAP1 POP JUMP JUMPDEST PUSH32 0x41646472657373206973206E6F7420696E2077697468656C6973740000000000 PUSH1 0x0 DUP3 ADD MSTORE POP JUMP JUMPDEST PUSH1 0x0 PUSH2 0x1A0E PUSH1 0x1B DUP4 PUSH2 0x13F3 JUMP JUMPDEST SWAP2 POP PUSH2 0x1A19 DUP3 PUSH2 0x19D8 JUMP JUMPDEST PUSH1 0x20 DUP3 ADD SWAP1 POP SWAP2 SWAP1 POP JUMP JUMPDEST PUSH1 0x0 PUSH1 0x20 DUP3 ADD SWAP1 POP DUP2 DUP2 SUB PUSH1 0x0 DUP4 ADD MSTORE PUSH2 0x1A3D DUP2 PUSH2 0x1A01 JUMP JUMPDEST SWAP1 POP SWAP2 SWAP1 POP JUMP JUMPDEST PUSH32 0x4E487B7100000000000000000000000000000000000000000000000000000000 PUSH1 0x0 MSTORE PUSH1 0x41 PUSH1 0x4 MSTORE PUSH1 0x24 PUSH1 0x0 REVERT JUMPDEST PUSH1 0x0 DUP2 SWAP1 POP DUP2 PUSH1 0x0 MSTORE PUSH1 0x20 PUSH1 0x0 KECCAK256 SWAP1 POP SWAP2 SWAP1 POP JUMP JUMPDEST PUSH1 0x0 PUSH1 0x20 PUSH1 0x1F DUP4 ADD DIV SWAP1 POP SWAP2 SWAP1 POP JUMP JUMPDEST PUSH1 0x0 DUP3 DUP3 SHL SWAP1 POP SWAP3 SWAP2 POP POP JUMP JUMPDEST PUSH1 0x0 PUSH1 0x8 DUP4 MUL PUSH2 0x1AD5 PUSH32 0xFFFFFFFFFFFFFFFFFFFFFFFFFFFFFFFFFFFFFFFFFFFFFFFFFFFFFFFFFFFFFFFF DUP3 PUSH2 0x1A98 JUMP JUMPDEST PUSH2 0x1ADF DUP7 DUP4 PUSH2 0x1A98 JUMP JUMPDEST SWAP6 POP DUP1 NOT DUP5 AND SWAP4 POP DUP1 DUP7 AND DUP5 OR SWAP3 POP POP POP SWAP4 SWAP3 POP POP POP JUMP JUMPDEST PUSH1 0x0 DUP2 SWAP1 POP SWAP2 SWAP1 POP JUMP JUMPDEST PUSH1 0x0 PUSH2 0x1B1C PUSH2 0x1B17 PUSH2 0x1B12 DUP5 PUSH2 0x1385 JUMP JUMPDEST PUSH2 0x1AF7 JUMP JUMPDEST PUSH2 0x1385 JUMP JUMPDEST SWAP1 POP SWAP2 SWAP1 POP JUMP JUMPDEST PUSH1 0x0 DUP2 SWAP1 POP SWAP2 SWAP1 POP JUMP JUMPDEST PUSH2 0x1B36 DUP4 PUSH2 0x1B01 JUMP JUMPDEST PUSH2 0x1B4A PUSH2 0x1B42 DUP3 PUSH2 0x1B23 JUMP JUMPDEST DUP5 DUP5 SLOAD PUSH2 0x1AA5 JUMP JUMPDEST DUP3 SSTORE POP POP POP POP JUMP JUMPDEST PUSH1 0x0 SWAP1 JUMP JUMPDEST PUSH2 0x1B5F PUSH2 0x1B52 JUMP JUMPDEST PUSH2 0x1B6A DUP2 DUP5 DUP5 PUSH2 0x1B2D JUMP JUMPDEST POP POP POP JUMP JUMPDEST JUMPDEST DUP2 DUP2 LT ISZERO PUSH2 0x1B8E JUMPI PUSH2 0x1B83 PUSH1 0x0 DUP3 PUSH2 0x1B57 JUMP JUMPDEST PUSH1 0x1 DUP2 ADD SWAP1 POP PUSH2 0x1B70 JUMP JUMPDEST POP POP JUMP JUMPDEST PUSH1 0x1F DUP3 GT ISZERO PUSH2 0x1BD3 JUMPI PUSH2 0x1BA4 DUP2 PUSH2 0x1A73 JUMP JUMPDEST PUSH2 0x1BAD DUP5 PUSH2 0x1A88 JUMP JUMPDEST DUP2 ADD PUSH1 0x20 DUP6 LT ISZERO PUSH2 0x1BBC JUMPI DUP2 SWAP1 POP JUMPDEST PUSH2 0x1BD0 PUSH2 0x1BC8 DUP6 PUSH2 0x1A88 JUMP JUMPDEST DUP4 ADD DUP3 PUSH2 0x1B6F JUMP JUMPDEST POP POP JUMPDEST POP POP POP JUMP JUMPDEST PUSH1 0x0 DUP3 DUP3 SHR SWAP1 POP SWAP3 SWAP2 POP POP JUMP JUMPDEST PUSH1 0x0 PUSH2 0x1BF6 PUSH1 0x0 NOT DUP5 PUSH1 0x8 MUL PUSH2 0x1BD8 JUMP JUMPDEST NOT DUP1 DUP4 AND SWAP2 POP POP SWAP3 SWAP2 POP POP JUMP JUMPDEST PUSH1 0x0 PUSH2 0x1C0F DUP4 DUP4 PUSH2 0x1BE5 JUMP JUMPDEST SWAP2 POP DUP3 PUSH1 0x2 MUL DUP3 OR SWAP1 POP SWAP3 SWAP2 POP POP JUMP JUMPDEST PUSH2 0x1C28 DUP3 PUSH2 0x13E8 JUMP JUMPDEST PUSH8 0xFFFFFFFFFFFFFFFF DUP2 GT ISZERO PUSH2 0x1C41 JUMPI PUSH2 0x1C40 PUSH2 0x1A44 JUMP JUMPDEST JUMPDEST PUSH2 0x1C4B DUP3 SLOAD PUSH2 0x18A9 JUMP JUMPDEST PUSH2 0x1C56 DUP3 DUP3 DUP6 PUSH2 0x1B92 JUMP JUMPDEST PUSH1 0x0 PUSH1 0x20 SWAP1 POP PUSH1 0x1F DUP4 GT PUSH1 0x1 DUP2 EQ PUSH2 0x1C89 JUMPI PUSH1 0x0 DUP5 ISZERO PUSH2 0x1C77 JUMPI DUP3 DUP8 ADD MLOAD SWAP1 POP JUMPDEST PUSH2 0x1C81 DUP6 DUP3 PUSH2 0x1C03 JUMP JUMPDEST DUP7 SSTORE POP PUSH2 0x1CE9 JUMP JUMPDEST PUSH1 0x1F NOT DUP5 AND PUSH2 0x1C97 DUP7 PUSH2 0x1A73 JUMP JUMPDEST PUSH1 0x0 JUMPDEST DUP3 DUP2 LT ISZERO PUSH2 0x1CBF JUMPI DUP5 DUP10 ADD MLOAD DUP3 SSTORE PUSH1 0x1 DUP3 ADD SWAP2 POP PUSH1 0x20 DUP6 ADD SWAP5 POP PUSH1 0x20 DUP2 ADD SWAP1 POP PUSH2 0x1C9A JUMP JUMPDEST DUP7 DUP4 LT ISZERO PUSH2 0x1CDC JUMPI DUP5 DUP10 ADD MLOAD PUSH2 0x1CD8 PUSH1 0x1F DUP10 AND DUP3 PUSH2 0x1BE5 JUMP JUMPDEST DUP4 SSTORE POP JUMPDEST PUSH1 0x1 PUSH1 0x2 DUP9 MUL ADD DUP9 SSTORE POP POP POP JUMPDEST POP POP POP POP POP POP JUMP JUMPDEST PUSH32 0x4E487B7100000000000000000000000000000000000000000000000000000000 PUSH1 0x0 MSTORE PUSH1 0x11 PUSH1 0x4 MSTORE PUSH1 0x24 PUSH1 0x0 REVERT JUMPDEST PUSH1 0x0 PUSH2 0x1D2B DUP3 PUSH2 0x1385 JUMP JUMPDEST SWAP2 POP PUSH2 0x1D36 DUP4 PUSH2 0x1385 JUMP JUMPDEST SWAP3 POP DUP3 DUP3 SUB SWAP1 POP DUP2 DUP2 GT ISZERO PUSH2 0x1D4E JUMPI PUSH2 0x1D4D PUSH2 0x1CF1 JUMP JUMPDEST JUMPDEST SWAP3 SWAP2 POP POP JUMP JUMPDEST PUSH32 0x4E487B7100000000000000000000000000000000000000000000000000000000 PUSH1 0x0 MSTORE PUSH1 0x32 PUSH1 0x4 MSTORE PUSH1 0x24 PUSH1 0x0 REVERT JUMPDEST PUSH1 0x0 PUSH2 0x1D8E DUP3 PUSH2 0x1385 JUMP JUMPDEST SWAP2 POP PUSH32 0xFFFFFFFFFFFFFFFFFFFFFFFFFFFFFFFFFFFFFFFFFFFFFFFFFFFFFFFFFFFFFFFF DUP3 SUB PUSH2 0x1DC0 JUMPI PUSH2 0x1DBF PUSH2 0x1CF1 JUMP JUMPDEST JUMPDEST PUSH1 0x1 DUP3 ADD SWAP1 POP SWAP2 SWAP1 POP JUMP JUMPDEST PUSH1 0x0 PUSH2 0x1DD6 DUP3 PUSH2 0x1385 JUMP JUMPDEST SWAP2 POP PUSH2 0x1DE1 DUP4 PUSH2 0x1385 JUMP JUMPDEST SWAP3 POP DUP3 DUP3 ADD SWAP1 POP DUP1 DUP3 GT ISZERO PUSH2 0x1DF9 JUMPI PUSH2 0x1DF8 PUSH2 0x1CF1 JUMP JUMPDEST JUMPDEST SWAP3 SWAP2 POP POP JUMP JUMPDEST PUSH32 0x5468652063757272656E74207374617475732069732077726F6E670000000000 PUSH1 0x0 DUP3 ADD MSTORE POP JUMP JUMPDEST PUSH1 0x0 PUSH2 0x1E35 PUSH1 0x1B DUP4 PUSH2 0x13F3 JUMP JUMPDEST SWAP2 POP PUSH2 0x1E40 DUP3 PUSH2 0x1DFF JUMP JUMPDEST PUSH1 0x20 DUP3 ADD SWAP1 POP SWAP2 SWAP1 POP JUMP JUMPDEST PUSH1 0x0 PUSH1 0x20 DUP3 ADD SWAP1 POP DUP2 DUP2 SUB PUSH1 0x0 DUP4 ADD MSTORE PUSH2 0x1E64 DUP2 PUSH2 0x1E28 JUMP JUMPDEST SWAP1 POP SWAP2 SWAP1 POP JUMP JUMPDEST PUSH1 0x0 PUSH1 0x40 DUP3 ADD SWAP1 POP PUSH2 0x1E80 PUSH1 0x0 DUP4 ADD DUP6 PUSH2 0x1642 JUMP JUMPDEST PUSH2 0x1E8D PUSH1 0x20 DUP4 ADD DUP5 PUSH2 0x1642 JUMP JUMPDEST SWAP4 SWAP3 POP POP POP JUMP JUMPDEST PUSH32 0x53746174757320666F7220766F74696E672069732077726F6E67000000000000 PUSH1 0x0 DUP3 ADD MSTORE POP JUMP JUMPDEST PUSH1 0x0 PUSH2 0x1ECA PUSH1 0x1A DUP4 PUSH2 0x13F3 JUMP JUMPDEST SWAP2 POP PUSH2 0x1ED5 DUP3 PUSH2 0x1E94 JUMP JUMPDEST PUSH1 0x20 DUP3 ADD SWAP1 POP SWAP2 SWAP1 POP JUMP JUMPDEST PUSH1 0x0 PUSH1 0x20 DUP3 ADD SWAP1 POP DUP2 DUP2 SUB PUSH1 0x0 DUP4 ADD MSTORE PUSH2 0x1EF9 DUP2 PUSH2 0x1EBD JUMP JUMPDEST SWAP1 POP SWAP2 SWAP1 POP JUMP JUMPDEST PUSH32 0x557365722068617320616C726561647920766F74656400000000000000000000 PUSH1 0x0 DUP3 ADD MSTORE POP JUMP JUMPDEST PUSH1 0x0 PUSH2 0x1F36 PUSH1 0x16 DUP4 PUSH2 0x13F3 JUMP JUMPDEST SWAP2 POP PUSH2 0x1F41 DUP3 PUSH2 0x1F00 JUMP JUMPDEST PUSH1 0x20 DUP3 ADD SWAP1 POP SWAP2 SWAP1 POP JUMP JUMPDEST PUSH1 0x0 PUSH1 0x20 DUP3 ADD SWAP1 POP DUP2 DUP2 SUB PUSH1 0x0 DUP4 ADD MSTORE PUSH2 0x1F65 DUP2 PUSH2 0x1F29 JUMP JUMPDEST SWAP1 POP SWAP2 SWAP1 POP JUMP JUMPDEST PUSH1 0x0 PUSH1 0x40 DUP3 ADD SWAP1 POP PUSH2 0x1F81 PUSH1 0x0 DUP4 ADD DUP6 PUSH2 0x166C JUMP JUMPDEST PUSH2 0x1F8E PUSH1 0x20 DUP4 ADD DUP5 PUSH2 0x1478 JUMP JUMPDEST SWAP4 SWAP3 POP POP POP JUMP JUMPDEST PUSH32 0x54696520766F7465732C20706C6561736520726573746172742074686520766F PUSH1 0x0 DUP3 ADD MSTORE PUSH32 0x74696E672073657373696F6E0000000000000000000000000000000000000000 PUSH1 0x20 DUP3 ADD MSTORE POP JUMP JUMPDEST PUSH1 0x0 PUSH2 0x1FF1 PUSH1 0x2C DUP4 PUSH2 0x13F3 JUMP JUMPDEST SWAP2 POP PUSH2 0x1FFC DUP3 PUSH2 0x1F95 JUMP JUMPDEST PUSH1 0x40 DUP3 ADD SWAP1 POP SWAP2 SWAP1 POP JUMP JUMPDEST PUSH1 0x0 PUSH1 0x20 DUP3 ADD SWAP1 POP DUP2 DUP2 SUB PUSH1 0x0 DUP4 ADD MSTORE PUSH2 0x2020 DUP2 PUSH2 0x1FE4 JUMP JUMPDEST SWAP1 POP SWAP2 SWAP1 POP JUMP JUMPDEST PUSH32 0x54686973206164647265737320697320616C72656164792077686974656C6973 PUSH1 0x0 DUP3 ADD MSTORE PUSH32 0x7465642021000000000000000000000000000000000000000000000000000000 PUSH1 0x20 DUP3 ADD MSTORE POP JUMP JUMPDEST PUSH1 0x0 PUSH2 0x2083 PUSH1 0x25 DUP4 PUSH2 0x13F3 JUMP JUMPDEST SWAP2 POP PUSH2 0x208E DUP3 PUSH2 0x2027 JUMP JUMPDEST PUSH1 0x40 DUP3 ADD SWAP1 POP SWAP2 SWAP1 POP JUMP JUMPDEST PUSH1 0x0 PUSH1 0x20 DUP3 ADD SWAP1 POP DUP2 DUP2 SUB PUSH1 0x0 DUP4 ADD MSTORE PUSH2 0x20B2 DUP2 PUSH2 0x2076 JUMP JUMPDEST SWAP1 POP SWAP2 SWAP1 POP JUMP JUMPDEST PUSH32 0x5374617475732069732077726F6E670000000000000000000000000000000000 PUSH1 0x0 DUP3 ADD MSTORE POP JUMP JUMPDEST PUSH1 0x0 PUSH2 0x20EF PUSH1 0xF DUP4 PUSH2 0x13F3 JUMP JUMPDEST SWAP2 POP PUSH2 0x20FA DUP3 PUSH2 0x20B9 JUMP JUMPDEST PUSH1 0x20 DUP3 ADD SWAP1 POP SWAP2 SWAP1 POP JUMP JUMPDEST PUSH1 0x0 PUSH1 0x20 DUP3 ADD SWAP1 POP DUP2 DUP2 SUB PUSH1 0x0 DUP4 ADD MSTORE PUSH2 0x211E DUP2 PUSH2 0x20E2 JUMP JUMPDEST SWAP1 POP SWAP2 SWAP1 POP JUMP JUMPDEST PUSH32 0x4F776E61626C653A206E6577206F776E657220697320746865207A65726F2061 PUSH1 0x0 DUP3 ADD MSTORE PUSH32 0x6464726573730000000000000000000000000000000000000000000000000000 PUSH1 0x20 DUP3 ADD MSTORE POP JUMP JUMPDEST PUSH1 0x0 PUSH2 0x2181 PUSH1 0x26 DUP4 PUSH2 0x13F3 JUMP JUMPDEST SWAP2 POP PUSH2 0x218C DUP3 PUSH2 0x2125 JUMP JUMPDEST PUSH1 0x40 DUP3 ADD SWAP1 POP SWAP2 SWAP1 POP JUMP JUMPDEST PUSH1 0x0 PUSH1 0x20 DUP3 ADD SWAP1 POP DUP2 DUP2 SUB PUSH1 0x0 DUP4 ADD MSTORE PUSH2 0x21B0 DUP2 PUSH2 0x2174 JUMP JUMPDEST SWAP1 POP SWAP2 SWAP1 POP JUMP JUMPDEST PUSH32 0x4F776E61626C653A2063616C6C6572206973206E6F7420746865206F776E6572 PUSH1 0x0 DUP3 ADD MSTORE POP JUMP JUMPDEST PUSH1 0x0 PUSH2 0x21ED PUSH1 0x20 DUP4 PUSH2 0x13F3 JUMP JUMPDEST SWAP2 POP PUSH2 0x21F8 DUP3 PUSH2 0x21B7 JUMP JUMPDEST PUSH1 0x20 DUP3 ADD SWAP1 POP SWAP2 SWAP1 POP JUMP JUMPDEST PUSH1 0x0 PUSH1 0x20 DUP3 ADD SWAP1 POP DUP2 DUP2 SUB PUSH1 0x0 DUP4 ADD MSTORE PUSH2 0x221C DUP2 PUSH2 0x21E0 JUMP JUMPDEST SWAP1 POP SWAP2 SWAP1 POP JUMP INVALID LOG2 PUSH5 0x6970667358 0x22 SLT KECCAK256 PUSH16 0xD18F1193C1949816C2A4D21CBDA3CF51 0x2F 0xF XOR SMOD PUSH16 0x7E84CD0B8177C7A99DB664736F6C6343 STOP ADDMOD GT STOP CALLER "
		},
		"gasEstimates": {
			"creation": {
				"codeDepositCost": "1758600",
				"executionCost": "infinite",
				"totalCost": "infinite"
			},
			"external": {
				"RegisterProposal(address,string)": "infinite",
				"RestartVoteSession()": "infinite",
				"TallyVote()": "infinite",
				"VoteSession(address,uint256)": "infinite",
				"Whitelist(address)": "infinite",
				"WinningProposal(address)": "infinite",
				"changeStatus(uint8)": "infinite",
				"owner()": "2589",
				"proposals(uint256)": "infinite",
				"renounceOwnership()": "30443",
				"status()": "2628",
				"transferOwnership(address)": "30832",
				"voters(address)": "infinite",
				"winningProposalId()": "2496"
			}
		},
		"methodIdentifiers": {
			"RegisterProposal(address,string)": "167dfc5e",
			"RestartVoteSession()": "3ea9cef0",
			"TallyVote()": "d1394ce4",
			"VoteSession(address,uint256)": "9e9fd7a8",
			"Whitelist(address)": "eb73900b",
			"WinningProposal(address)": "d728daaa",
			"changeStatus(uint8)": "95bc9538",
			"owner()": "8da5cb5b",
			"proposals(uint256)": "013cf08b",
			"renounceOwnership()": "715018a6",
			"status()": "200d2ed2",
			"transferOwnership(address)": "f2fde38b",
			"voters(address)": "a3ec138d",
			"winningProposalId()": "c64963c5"
		}
	},
	"abi": [
		{
			"anonymous": false,
			"inputs": [
				{
					"indexed": true,
					"internalType": "address",
					"name": "previousOwner",
					"type": "address"
				},
				{
					"indexed": true,
					"internalType": "address",
					"name": "newOwner",
					"type": "address"
				}
			],
			"name": "OwnershipTransferred",
			"type": "event"
		},
		{
			"anonymous": false,
			"inputs": [
				{
					"indexed": false,
					"internalType": "uint256",
					"name": "proposalId",
					"type": "uint256"
				}
			],
			"name": "ProposalRegistered",
			"type": "event"
		},
		{
			"anonymous": false,
			"inputs": [
				{
					"indexed": false,
					"internalType": "address",
					"name": "voterAddress",
					"type": "address"
				},
				{
					"indexed": false,
					"internalType": "uint256",
					"name": "proposalId",
					"type": "uint256"
				}
			],
			"name": "Voted",
			"type": "event"
		},
		{
			"anonymous": false,
			"inputs": [
				{
					"indexed": false,
					"internalType": "address",
					"name": "voterAddress",
					"type": "address"
				}
			],
			"name": "VoterRegistered",
			"type": "event"
		},
		{
			"anonymous": false,
			"inputs": [
				{
					"indexed": false,
					"internalType": "enum Voting.WorkflowStatus",
					"name": "previousStatus",
					"type": "uint8"
				},
				{
					"indexed": false,
					"internalType": "enum Voting.WorkflowStatus",
					"name": "newStatus",
					"type": "uint8"
				}
			],
			"name": "WorkflowStatusChange",
			"type": "event"
		},
		{
			"inputs": [
				{
					"internalType": "address",
					"name": "_voterAddress",
					"type": "address"
				},
				{
					"internalType": "string",
					"name": "_description",
					"type": "string"
				}
			],
			"name": "RegisterProposal",
			"outputs": [],
			"stateMutability": "nonpayable",
			"type": "function"
		},
		{
			"inputs": [],
			"name": "RestartVoteSession",
			"outputs": [],
			"stateMutability": "nonpayable",
			"type": "function"
		},
		{
			"inputs": [],
			"name": "TallyVote",
			"outputs": [
				{
					"internalType": "uint256",
					"name": "",
					"type": "uint256"
				}
			],
			"stateMutability": "nonpayable",
			"type": "function"
		},
		{
			"inputs": [
				{
					"internalType": "address",
					"name": "_voterAddress",
					"type": "address"
				},
				{
					"internalType": "uint256",
					"name": "_proposalId",
					"type": "uint256"
				}
			],
			"name": "VoteSession",
			"outputs": [],
			"stateMutability": "nonpayable",
			"type": "function"
		},
		{
			"inputs": [
				{
					"internalType": "address",
					"name": "_voterAddress",
					"type": "address"
				}
			],
			"name": "Whitelist",
			"outputs": [],
			"stateMutability": "nonpayable",
			"type": "function"
		},
		{
			"inputs": [
				{
					"internalType": "address",
					"name": "_voterAddress",
					"type": "address"
				}
			],
			"name": "WinningProposal",
			"outputs": [
				{
					"components": [
						{
							"internalType": "string",
							"name": "description",
							"type": "string"
						},
						{
							"internalType": "uint256",
							"name": "voteCount",
							"type": "uint256"
						}
					],
					"internalType": "struct Voting.Proposal",
					"name": "",
					"type": "tuple"
				}
			],
			"stateMutability": "view",
			"type": "function"
		},
		{
			"inputs": [
				{
					"internalType": "enum Voting.WorkflowStatus",
					"name": "_newstatus",
					"type": "uint8"
				}
			],
			"name": "changeStatus",
			"outputs": [],
			"stateMutability": "nonpayable",
			"type": "function"
		},
		{
			"inputs": [],
			"name": "owner",
			"outputs": [
				{
					"internalType": "address",
					"name": "",
					"type": "address"
				}
			],
			"stateMutability": "view",
			"type": "function"
		},
		{
			"inputs": [
				{
					"internalType": "uint256",
					"name": "",
					"type": "uint256"
				}
			],
			"name": "proposals",
			"outputs": [
				{
					"internalType": "string",
					"name": "description",
					"type": "string"
				},
				{
					"internalType": "uint256",
					"name": "voteCount",
					"type": "uint256"
				}
			],
			"stateMutability": "view",
			"type": "function"
		},
		{
			"inputs": [],
			"name": "renounceOwnership",
			"outputs": [],
			"stateMutability": "nonpayable",
			"type": "function"
		},
		{
			"inputs": [],
			"name": "status",
			"outputs": [
				{
					"internalType": "enum Voting.WorkflowStatus",
					"name": "",
					"type": "uint8"
				}
			],
			"stateMutability": "view",
			"type": "function"
		},
		{
			"inputs": [
				{
					"internalType": "address",
					"name": "newOwner",
					"type": "address"
				}
			],
			"name": "transferOwnership",
			"outputs": [],
			"stateMutability": "nonpayable",
			"type": "function"
		},
		{
			"inputs": [
				{
					"internalType": "address",
					"name": "",
					"type": "address"
				}
			],
			"name": "voters",
			"outputs": [
				{
					"internalType": "bool",
					"name": "isRegistered",
					"type": "bool"
				},
				{
					"internalType": "bool",
					"name": "hasVoted",
					"type": "bool"
				},
				{
					"internalType": "uint256",
					"name": "votedProposalId",
					"type": "uint256"
				}
			],
			"stateMutability": "view",
			"type": "function"
		},
		{
			"inputs": [],
			"name": "winningProposalId",
			"outputs": [
				{
					"internalType": "uint256",
					"name": "",
					"type": "uint256"
				}
			],
			"stateMutability": "view",
			"type": "function"
		}
	]
}