{
	"data": {
		"bytecode": {
			"linkReferences": {},
			"object": "608060405234801561001057600080fd5b5061002d61002261003260201b60201c565b61003a60201b60201c565b6100fe565b600033905090565b60008060009054906101000a900473ffffffffffffffffffffffffffffffffffffffff169050816000806101000a81548173ffffffffffffffffffffffffffffffffffffffff021916908373ffffffffffffffffffffffffffffffffffffffff1602179055508173ffffffffffffffffffffffffffffffffffffffff168173ffffffffffffffffffffffffffffffffffffffff167f8be0079c531659141344cd1fd0a4f28419497f9722a3daafe3b4186f6b6457e060405160405180910390a35050565b61230c806200010e6000396000f3fe608060405234801561001057600080fd5b506004361061012c5760003560e01c80639b19251a116100ad578063d1394ce411610071578063d1394ce41461029a578063d728daaa146102b8578063e1a3ca17146102e8578063f2fde38b14610318578063f7c57ad7146103345761012c565b80639b19251a146101e25780639e9fd7a8146101fe578063a3ec138d1461021a578063c36053e51461024c578063c64963c51461027c5761012c565b80636a6fa0a8116100f45780636a6fa0a81461019c5780636c97120d146101a6578063715018a6146101b05780638da5cb5b146101ba5780638ff10811146101d85761012c565b8063013cf08b1461013157806308f3d19514610162578063167dfc5e1461016c57806349d0faa1146101885780634f33f73d14610192575b600080fd5b61014b600480360381019061014691906113ef565b610352565b6040516101599291906114bb565b60405180910390f35b61016a61040e565b005b6101866004803603810190610181919061167e565b610443565b005b610190610663565b005b61019a610698565b005b6101a46106cd565b005b6101ae610702565b005b6101b8610736565b005b6101c261074a565b6040516101cf91906116e9565b60405180910390f35b6101e0610773565b005b6101fc60048036038101906101f79190611704565b6107a8565b005b61021860048036038101906102139190611731565b610a0d565b005b610234600480360381019061022f9190611704565b610cc7565b6040516102439392919061178c565b60405180910390f35b61026660048036038101906102619190611704565b610d0b565b6040516102739190611881565b60405180910390f35b610284610da2565b60405161029191906118a3565b60405180910390f35b6102a2610da8565b6040516102af91906118a3565b60405180910390f35b6102d260048036038101906102cd9190611704565b610eb4565b6040516102df9190611945565b60405180910390f35b61030260048036038101906102fd9190611731565b611092565b60405161030f91906118a3565b60405180910390f35b610332600480360381019061032d9190611704565b6110c3565b005b61033c611146565b6040516103499190611a66565b60405180910390f35b6003818154811061036257600080fd5b906000526020600020906002020160009150905080600001805461038590611ab7565b80601f01602080910402602001604051908101604052809291908181526020018280546103b190611ab7565b80156103fe5780601f106103d3576101008083540402835291602001916103fe565b820191906000526020600020905b8154815290600101906020018083116103e157829003601f168201915b5050505050908060010154905082565b610416611241565b6004600560006101000a81548160ff0219169083600581111561043c5761043b611ae8565b5b0217905550565b6001600581111561045757610456611ae8565b5b600560009054906101000a900460ff16600581111561047957610478611ae8565b5b146104b9576040517f08c379a00000000000000000000000000000000000000000000000000000000081526004016104b090611b63565b60405180910390fd5b600160008373ffffffffffffffffffffffffffffffffffffffff1673ffffffffffffffffffffffffffffffffffffffff16815260200190815260200160002060000160009054906101000a900460ff16610548576040517f08c379a000000000000000000000000000000000000000000000000000000000815260040161053f90611bcf565b60405180910390fd5b6003604051806040016040528083815260200160008152509080600181540180825580915050600190039060005260206000209060020201600090919091909150600082015181600001908161059e9190611d9b565b50602082015181600101555050600060016003805490506105bf9190611e9c565b9050600260008473ffffffffffffffffffffffffffffffffffffffff1673ffffffffffffffffffffffffffffffffffffffff1681526020019081526020016000208190806001815401808255809150506001900390600052602060002001600090919091909150557f92e393e9b54e2f801d3ea4beb0c5e71a21cc34a5d34b77d0fb8a3aa1650dc18f8160405161065691906118a3565b60405180910390a1505050565b61066b611241565b6003600560006101000a81548160ff0219169083600581111561069157610690611ae8565b5b0217905550565b6106a0611241565b6000600560006101000a81548160ff021916908360058111156106c6576106c5611ae8565b5b0217905550565b6106d5611241565b6002600560006101000a81548160ff021916908360058111156106fb576106fa611ae8565b5b0217905550565b61070a611241565b60058060006101000a81548160ff0219169083600581111561072f5761072e611ae8565b5b0217905550565b61073e611241565b61074860006112bf565b565b60008060009054906101000a900473ffffffffffffffffffffffffffffffffffffffff16905090565b61077b611241565b6001600560006101000a81548160ff021916908360058111156107a1576107a0611ae8565b5b0217905550565b6107b0611241565b600160008273ffffffffffffffffffffffffffffffffffffffff1673ffffffffffffffffffffffffffffffffffffffff16815260200190815260200160002060000160009054906101000a900460ff1615610840576040517f08c379a000000000000000000000000000000000000000000000000000000000815260040161083790611f42565b60405180910390fd5b600073ffffffffffffffffffffffffffffffffffffffff168173ffffffffffffffffffffffffffffffffffffffff16036108af576040517f08c379a00000000000000000000000000000000000000000000000000000000081526004016108a690611fd4565b60405180910390fd5b600060058111156108c3576108c2611ae8565b5b600560009054906101000a900460ff1660058111156108e5576108e4611ae8565b5b14610925576040517f08c379a000000000000000000000000000000000000000000000000000000000815260040161091c90612040565b60405180910390fd5b60405180606001604052806001151581526020016000151581526020016000815250600160008373ffffffffffffffffffffffffffffffffffffffff1673ffffffffffffffffffffffffffffffffffffffff16815260200190815260200160002060008201518160000160006101000a81548160ff02191690831515021790555060208201518160000160016101000a81548160ff021916908315150217905550604082015181600101559050507fb6be2187d059cc2a55fe29e0e503b566e1e0f8c8780096e185429350acffd3dd81604051610a0291906116e9565b60405180910390a150565b60036005811115610a2157610a20611ae8565b5b600560009054906101000a900460ff166005811115610a4357610a42611ae8565b5b14610a83576040517f08c379a0000000000000000000000000000000000000000000000000000000008152600401610a7a906120ac565b60405180910390fd5b600160008373ffffffffffffffffffffffffffffffffffffffff1673ffffffffffffffffffffffffffffffffffffffff16815260200190815260200160002060000160009054906101000a900460ff16610b12576040517f08c379a0000000000000000000000000000000000000000000000000000000008152600401610b0990611bcf565b60405180910390fd5b600160008373ffffffffffffffffffffffffffffffffffffffff1673ffffffffffffffffffffffffffffffffffffffff16815260200190815260200160002060000160019054906101000a900460ff1615610ba2576040517f08c379a0000000000000000000000000000000000000000000000000000000008152600401610b9990612118565b60405180910390fd5b604051806060016040528060011515815260200160011515815260200182815250600160008473ffffffffffffffffffffffffffffffffffffffff1673ffffffffffffffffffffffffffffffffffffffff16815260200190815260200160002060008201518160000160006101000a81548160ff02191690831515021790555060208201518160000160016101000a81548160ff0219169083151502179055506040820151816001015590505060038181548110610c6357610c62612138565b5b90600052602060002090600202016001016000815480929190610c8590612167565b91905055507f4d99b957a2bc29a30ebd96a7be8e68fe50a3c701db28a91436490b7d53870ca48282604051610cbb9291906121af565b60405180910390a15050565b60016020528060005260406000206000915090508060000160009054906101000a900460ff16908060000160019054906101000a900460ff16908060010154905083565b6060600260008373ffffffffffffffffffffffffffffffffffffffff1673ffffffffffffffffffffffffffffffffffffffff168152602001908152602001600020805480602002602001604051908101604052809291908181526020018280548015610d9657602002820191906000526020600020905b815481526020019060010190808311610d82575b50505050509050919050565b60045481565b600060046005811115610dbe57610dbd611ae8565b5b600560009054906101000a900460ff166005811115610de057610ddf611ae8565b5b14610e20576040517f08c379a0000000000000000000000000000000000000000000000000000000008152600401610e17906120ac565b60405180910390fd5b60006003805490509050600080600090505b82811015610ea95760038181548110610e4e57610e4d612138565b5b9060005260206000209060020201600101548211610e965760038181548110610e7a57610e79612138565b5b9060005260206000209060020201600101549150806004819055505b8080610ea190612167565b915050610e32565b506004549250505090565b610ebc61138b565b600580811115610ecf57610ece611ae8565b5b600560009054906101000a900460ff166005811115610ef157610ef0611ae8565b5b14610f31576040517f08c379a0000000000000000000000000000000000000000000000000000000008152600401610f28906120ac565b60405180910390fd5b600160008373ffffffffffffffffffffffffffffffffffffffff1673ffffffffffffffffffffffffffffffffffffffff16815260200190815260200160002060000160009054906101000a900460ff16610fc0576040517f08c379a0000000000000000000000000000000000000000000000000000000008152600401610fb790611bcf565b60405180910390fd5b600360045481548110610fd657610fd5612138565b5b9060005260206000209060020201604051806040016040529081600082018054610fff90611ab7565b80601f016020809104026020016040519081016040528092919081815260200182805461102b90611ab7565b80156110785780601f1061104d57610100808354040283529160200191611078565b820191906000526020600020905b81548152906001019060200180831161105b57829003601f168201915b505050505081526020016001820154815250509050919050565b600260205281600052604060002081815481106110ae57600080fd5b90600052602060002001600091509150505481565b6110cb611241565b600073ffffffffffffffffffffffffffffffffffffffff168173ffffffffffffffffffffffffffffffffffffffff160361113a576040517f08c379a00000000000000000000000000000000000000000000000000000000081526004016111319061224a565b60405180910390fd5b611143816112bf565b50565b60606003805480602002602001604051908101604052809291908181526020016000905b82821015611238578382906000526020600020906002020160405180604001604052908160008201805461119d90611ab7565b80601f01602080910402602001604051908101604052809291908181526020018280546111c990611ab7565b80156112165780601f106111eb57610100808354040283529160200191611216565b820191906000526020600020905b8154815290600101906020018083116111f957829003601f168201915b505050505081526020016001820154815250508152602001906001019061116a565b50505050905090565b611249611383565b73ffffffffffffffffffffffffffffffffffffffff1661126761074a565b73ffffffffffffffffffffffffffffffffffffffff16146112bd576040517f08c379a00000000000000000000000000000000000000000000000000000000081526004016112b4906122b6565b60405180910390fd5b565b60008060009054906101000a900473ffffffffffffffffffffffffffffffffffffffff169050816000806101000a81548173ffffffffffffffffffffffffffffffffffffffff021916908373ffffffffffffffffffffffffffffffffffffffff1602179055508173ffffffffffffffffffffffffffffffffffffffff168173ffffffffffffffffffffffffffffffffffffffff167f8be0079c531659141344cd1fd0a4f28419497f9722a3daafe3b4186f6b6457e060405160405180910390a35050565b600033905090565b604051806040016040528060608152602001600081525090565b6000604051905090565b600080fd5b600080fd5b6000819050919050565b6113cc816113b9565b81146113d757600080fd5b50565b6000813590506113e9816113c3565b92915050565b600060208284031215611405576114046113af565b5b6000611413848285016113da565b91505092915050565b600081519050919050565b600082825260208201905092915050565b60005b8381101561145657808201518184015260208101905061143b565b60008484015250505050565b6000601f19601f8301169050919050565b600061147e8261141c565b6114888185611427565b9350611498818560208601611438565b6114a181611462565b840191505092915050565b6114b5816113b9565b82525050565b600060408201905081810360008301526114d58185611473565b90506114e460208301846114ac565b9392505050565b600073ffffffffffffffffffffffffffffffffffffffff82169050919050565b6000611516826114eb565b9050919050565b6115268161150b565b811461153157600080fd5b50565b6000813590506115438161151d565b92915050565b600080fd5b600080fd5b7f4e487b7100000000000000000000000000000000000000000000000000000000600052604160045260246000fd5b61158b82611462565b810181811067ffffffffffffffff821117156115aa576115a9611553565b5b80604052505050565b60006115bd6113a5565b90506115c98282611582565b919050565b600067ffffffffffffffff8211156115e9576115e8611553565b5b6115f282611462565b9050602081019050919050565b82818337600083830152505050565b600061162161161c846115ce565b6115b3565b90508281526020810184848401111561163d5761163c61154e565b5b6116488482856115ff565b509392505050565b600082601f83011261166557611664611549565b5b813561167584826020860161160e565b91505092915050565b60008060408385031215611695576116946113af565b5b60006116a385828601611534565b925050602083013567ffffffffffffffff8111156116c4576116c36113b4565b5b6116d085828601611650565b9150509250929050565b6116e38161150b565b82525050565b60006020820190506116fe60008301846116da565b92915050565b60006020828403121561171a576117196113af565b5b600061172884828501611534565b91505092915050565b60008060408385031215611748576117476113af565b5b600061175685828601611534565b9250506020611767858286016113da565b9150509250929050565b60008115159050919050565b61178681611771565b82525050565b60006060820190506117a1600083018661177d565b6117ae602083018561177d565b6117bb60408301846114ac565b949350505050565b600081519050919050565b600082825260208201905092915050565b6000819050602082019050919050565b6117f8816113b9565b82525050565b600061180a83836117ef565b60208301905092915050565b6000602082019050919050565b600061182e826117c3565b61183881856117ce565b9350611843836117df565b8060005b8381101561187457815161185b88826117fe565b975061186683611816565b925050600181019050611847565b5085935050505092915050565b6000602082019050818103600083015261189b8184611823565b905092915050565b60006020820190506118b860008301846114ac565b92915050565b600082825260208201905092915050565b60006118da8261141c565b6118e481856118be565b93506118f4818560208601611438565b6118fd81611462565b840191505092915050565b6000604083016000830151848203600086015261192582826118cf565b915050602083015161193a60208601826117ef565b508091505092915050565b6000602082019050818103600083015261195f8184611908565b905092915050565b600081519050919050565b600082825260208201905092915050565b6000819050602082019050919050565b600060408301600083015184820360008601526119b082826118cf565b91505060208301516119c560208601826117ef565b508091505092915050565b60006119dc8383611993565b905092915050565b6000602082019050919050565b60006119fc82611967565b611a068185611972565b935083602082028501611a1885611983565b8060005b85811015611a545784840389528151611a3585826119d0565b9450611a40836119e4565b925060208a01995050600181019050611a1c565b50829750879550505050505092915050565b60006020820190508181036000830152611a8081846119f1565b905092915050565b7f4e487b7100000000000000000000000000000000000000000000000000000000600052602260045260246000fd5b60006002820490506001821680611acf57607f821691505b602082108103611ae257611ae1611a88565b5b50919050565b7f4e487b7100000000000000000000000000000000000000000000000000000000600052602160045260246000fd5b7f53746174757320666f7220726567697374726174696f6e2069732077726f6e67600082015250565b6000611b4d602083611427565b9150611b5882611b17565b602082019050919050565b60006020820190508181036000830152611b7c81611b40565b9050919050565b7f41646472657373206973206e6f7420696e2077697468656c6973740000000000600082015250565b6000611bb9601b83611427565b9150611bc482611b83565b602082019050919050565b60006020820190508181036000830152611be881611bac565b9050919050565b60008190508160005260206000209050919050565b60006020601f8301049050919050565b600082821b905092915050565b600060088302611c517fffffffffffffffffffffffffffffffffffffffffffffffffffffffffffffffff82611c14565b611c5b8683611c14565b95508019841693508086168417925050509392505050565b6000819050919050565b6000611c98611c93611c8e846113b9565b611c73565b6113b9565b9050919050565b6000819050919050565b611cb283611c7d565b611cc6611cbe82611c9f565b848454611c21565b825550505050565b600090565b611cdb611cce565b611ce6818484611ca9565b505050565b5b81811015611d0a57611cff600082611cd3565b600181019050611cec565b5050565b601f821115611d4f57611d2081611bef565b611d2984611c04565b81016020851015611d38578190505b611d4c611d4485611c04565b830182611ceb565b50505b505050565b600082821c905092915050565b6000611d7260001984600802611d54565b1980831691505092915050565b6000611d8b8383611d61565b9150826002028217905092915050565b611da48261141c565b67ffffffffffffffff811115611dbd57611dbc611553565b5b611dc78254611ab7565b611dd2828285611d0e565b600060209050601f831160018114611e055760008415611df3578287015190505b611dfd8582611d7f565b865550611e65565b601f198416611e1386611bef565b60005b82811015611e3b57848901518255600182019150602085019450602081019050611e16565b86831015611e585784890151611e54601f891682611d61565b8355505b6001600288020188555050505b505050505050565b7f4e487b7100000000000000000000000000000000000000000000000000000000600052601160045260246000fd5b6000611ea7826113b9565b9150611eb2836113b9565b9250828203905081811115611eca57611ec9611e6d565b5b92915050565b7f54686973206164647265737320697320616c72656164792077686974656c697360008201527f7465642021000000000000000000000000000000000000000000000000000000602082015250565b6000611f2c602583611427565b9150611f3782611ed0565b604082019050919050565b60006020820190508181036000830152611f5b81611f1f565b9050919050565b7f596f752063616e6e6f74207472616e7366657220746f2074686520616464726560008201527f7373207a65726f00000000000000000000000000000000000000000000000000602082015250565b6000611fbe602783611427565b9150611fc982611f62565b604082019050919050565b60006020820190508181036000830152611fed81611fb1565b9050919050565b7f5374617475732069732077726f6e670000000000000000000000000000000000600082015250565b600061202a600f83611427565b915061203582611ff4565b602082019050919050565b600060208201905081810360008301526120598161201d565b9050919050565b7f53746174757320666f7220766f74696e672069732077726f6e67000000000000600082015250565b6000612096601a83611427565b91506120a182612060565b602082019050919050565b600060208201905081810360008301526120c581612089565b9050919050565b7f557365722068617320616c726561647920766f74656400000000000000000000600082015250565b6000612102601683611427565b915061210d826120cc565b602082019050919050565b60006020820190508181036000830152612131816120f5565b9050919050565b7f4e487b7100000000000000000000000000000000000000000000000000000000600052603260045260246000fd5b6000612172826113b9565b91507fffffffffffffffffffffffffffffffffffffffffffffffffffffffffffffffff82036121a4576121a3611e6d565b5b600182019050919050565b60006040820190506121c460008301856116da565b6121d160208301846114ac565b9392505050565b7f4f776e61626c653a206e6577206f776e657220697320746865207a65726f206160008201527f6464726573730000000000000000000000000000000000000000000000000000602082015250565b6000612234602683611427565b915061223f826121d8565b604082019050919050565b6000602082019050818103600083015261226381612227565b9050919050565b7f4f776e61626c653a2063616c6c6572206973206e6f7420746865206f776e6572600082015250565b60006122a0602083611427565b91506122ab8261226a565b602082019050919050565b600060208201905081810360008301526122cf81612293565b905091905056fea2646970667358221220e25c7d27f8db52dbfdc4666ab055cabcb65818b4e79cc4fcefd511fd18422c5164736f6c63430008110033",
			"opcodes": "PUSH1 0x80 PUSH1 0x40 MSTORE CALLVALUE DUP1 ISZERO PUSH2 0x10 JUMPI PUSH1 0x0 DUP1 REVERT JUMPDEST POP PUSH2 0x2D PUSH2 0x22 PUSH2 0x32 PUSH1 0x20 SHL PUSH1 0x20 SHR JUMP JUMPDEST PUSH2 0x3A PUSH1 0x20 SHL PUSH1 0x20 SHR JUMP JUMPDEST PUSH2 0xFE JUMP JUMPDEST PUSH1 0x0 CALLER SWAP1 POP SWAP1 JUMP JUMPDEST PUSH1 0x0 DUP1 PUSH1 0x0 SWAP1 SLOAD SWAP1 PUSH2 0x100 EXP SWAP1 DIV PUSH20 0xFFFFFFFFFFFFFFFFFFFFFFFFFFFFFFFFFFFFFFFF AND SWAP1 POP DUP2 PUSH1 0x0 DUP1 PUSH2 0x100 EXP DUP2 SLOAD DUP2 PUSH20 0xFFFFFFFFFFFFFFFFFFFFFFFFFFFFFFFFFFFFFFFF MUL NOT AND SWAP1 DUP4 PUSH20 0xFFFFFFFFFFFFFFFFFFFFFFFFFFFFFFFFFFFFFFFF AND MUL OR SWAP1 SSTORE POP DUP2 PUSH20 0xFFFFFFFFFFFFFFFFFFFFFFFFFFFFFFFFFFFFFFFF AND DUP2 PUSH20 0xFFFFFFFFFFFFFFFFFFFFFFFFFFFFFFFFFFFFFFFF AND PUSH32 0x8BE0079C531659141344CD1FD0A4F28419497F9722A3DAAFE3B4186F6B6457E0 PUSH1 0x40 MLOAD PUSH1 0x40 MLOAD DUP1 SWAP2 SUB SWAP1 LOG3 POP POP JUMP JUMPDEST PUSH2 0x230C DUP1 PUSH3 0x10E PUSH1 0x0 CODECOPY PUSH1 0x0 RETURN INVALID PUSH1 0x80 PUSH1 0x40 MSTORE CALLVALUE DUP1 ISZERO PUSH2 0x10 JUMPI PUSH1 0x0 DUP1 REVERT JUMPDEST POP PUSH1 0x4 CALLDATASIZE LT PUSH2 0x12C JUMPI PUSH1 0x0 CALLDATALOAD PUSH1 0xE0 SHR DUP1 PUSH4 0x9B19251A GT PUSH2 0xAD JUMPI DUP1 PUSH4 0xD1394CE4 GT PUSH2 0x71 JUMPI DUP1 PUSH4 0xD1394CE4 EQ PUSH2 0x29A JUMPI DUP1 PUSH4 0xD728DAAA EQ PUSH2 0x2B8 JUMPI DUP1 PUSH4 0xE1A3CA17 EQ PUSH2 0x2E8 JUMPI DUP1 PUSH4 0xF2FDE38B EQ PUSH2 0x318 JUMPI DUP1 PUSH4 0xF7C57AD7 EQ PUSH2 0x334 JUMPI PUSH2 0x12C JUMP JUMPDEST DUP1 PUSH4 0x9B19251A EQ PUSH2 0x1E2 JUMPI DUP1 PUSH4 0x9E9FD7A8 EQ PUSH2 0x1FE JUMPI DUP1 PUSH4 0xA3EC138D EQ PUSH2 0x21A JUMPI DUP1 PUSH4 0xC36053E5 EQ PUSH2 0x24C JUMPI DUP1 PUSH4 0xC64963C5 EQ PUSH2 0x27C JUMPI PUSH2 0x12C JUMP JUMPDEST DUP1 PUSH4 0x6A6FA0A8 GT PUSH2 0xF4 JUMPI DUP1 PUSH4 0x6A6FA0A8 EQ PUSH2 0x19C JUMPI DUP1 PUSH4 0x6C97120D EQ PUSH2 0x1A6 JUMPI DUP1 PUSH4 0x715018A6 EQ PUSH2 0x1B0 JUMPI DUP1 PUSH4 0x8DA5CB5B EQ PUSH2 0x1BA JUMPI DUP1 PUSH4 0x8FF10811 EQ PUSH2 0x1D8 JUMPI PUSH2 0x12C JUMP JUMPDEST DUP1 PUSH4 0x13CF08B EQ PUSH2 0x131 JUMPI DUP1 PUSH4 0x8F3D195 EQ PUSH2 0x162 JUMPI DUP1 PUSH4 0x167DFC5E EQ PUSH2 0x16C JUMPI DUP1 PUSH4 0x49D0FAA1 EQ PUSH2 0x188 JUMPI DUP1 PUSH4 0x4F33F73D EQ PUSH2 0x192 JUMPI JUMPDEST PUSH1 0x0 DUP1 REVERT JUMPDEST PUSH2 0x14B PUSH1 0x4 DUP1 CALLDATASIZE SUB DUP2 ADD SWAP1 PUSH2 0x146 SWAP2 SWAP1 PUSH2 0x13EF JUMP JUMPDEST PUSH2 0x352 JUMP JUMPDEST PUSH1 0x40 MLOAD PUSH2 0x159 SWAP3 SWAP2 SWAP1 PUSH2 0x14BB JUMP JUMPDEST PUSH1 0x40 MLOAD DUP1 SWAP2 SUB SWAP1 RETURN JUMPDEST PUSH2 0x16A PUSH2 0x40E JUMP JUMPDEST STOP JUMPDEST PUSH2 0x186 PUSH1 0x4 DUP1 CALLDATASIZE SUB DUP2 ADD SWAP1 PUSH2 0x181 SWAP2 SWAP1 PUSH2 0x167E JUMP JUMPDEST PUSH2 0x443 JUMP JUMPDEST STOP JUMPDEST PUSH2 0x190 PUSH2 0x663 JUMP JUMPDEST STOP JUMPDEST PUSH2 0x19A PUSH2 0x698 JUMP JUMPDEST STOP JUMPDEST PUSH2 0x1A4 PUSH2 0x6CD JUMP JUMPDEST STOP JUMPDEST PUSH2 0x1AE PUSH2 0x702 JUMP JUMPDEST STOP JUMPDEST PUSH2 0x1B8 PUSH2 0x736 JUMP JUMPDEST STOP JUMPDEST PUSH2 0x1C2 PUSH2 0x74A JUMP JUMPDEST PUSH1 0x40 MLOAD PUSH2 0x1CF SWAP2 SWAP1 PUSH2 0x16E9 JUMP JUMPDEST PUSH1 0x40 MLOAD DUP1 SWAP2 SUB SWAP1 RETURN JUMPDEST PUSH2 0x1E0 PUSH2 0x773 JUMP JUMPDEST STOP JUMPDEST PUSH2 0x1FC PUSH1 0x4 DUP1 CALLDATASIZE SUB DUP2 ADD SWAP1 PUSH2 0x1F7 SWAP2 SWAP1 PUSH2 0x1704 JUMP JUMPDEST PUSH2 0x7A8 JUMP JUMPDEST STOP JUMPDEST PUSH2 0x218 PUSH1 0x4 DUP1 CALLDATASIZE SUB DUP2 ADD SWAP1 PUSH2 0x213 SWAP2 SWAP1 PUSH2 0x1731 JUMP JUMPDEST PUSH2 0xA0D JUMP JUMPDEST STOP JUMPDEST PUSH2 0x234 PUSH1 0x4 DUP1 CALLDATASIZE SUB DUP2 ADD SWAP1 PUSH2 0x22F SWAP2 SWAP1 PUSH2 0x1704 JUMP JUMPDEST PUSH2 0xCC7 JUMP JUMPDEST PUSH1 0x40 MLOAD PUSH2 0x243 SWAP4 SWAP3 SWAP2 SWAP1 PUSH2 0x178C JUMP JUMPDEST PUSH1 0x40 MLOAD DUP1 SWAP2 SUB SWAP1 RETURN JUMPDEST PUSH2 0x266 PUSH1 0x4 DUP1 CALLDATASIZE SUB DUP2 ADD SWAP1 PUSH2 0x261 SWAP2 SWAP1 PUSH2 0x1704 JUMP JUMPDEST PUSH2 0xD0B JUMP JUMPDEST PUSH1 0x40 MLOAD PUSH2 0x273 SWAP2 SWAP1 PUSH2 0x1881 JUMP JUMPDEST PUSH1 0x40 MLOAD DUP1 SWAP2 SUB SWAP1 RETURN JUMPDEST PUSH2 0x284 PUSH2 0xDA2 JUMP JUMPDEST PUSH1 0x40 MLOAD PUSH2 0x291 SWAP2 SWAP1 PUSH2 0x18A3 JUMP JUMPDEST PUSH1 0x40 MLOAD DUP1 SWAP2 SUB SWAP1 RETURN JUMPDEST PUSH2 0x2A2 PUSH2 0xDA8 JUMP JUMPDEST PUSH1 0x40 MLOAD PUSH2 0x2AF SWAP2 SWAP1 PUSH2 0x18A3 JUMP JUMPDEST PUSH1 0x40 MLOAD DUP1 SWAP2 SUB SWAP1 RETURN JUMPDEST PUSH2 0x2D2 PUSH1 0x4 DUP1 CALLDATASIZE SUB DUP2 ADD SWAP1 PUSH2 0x2CD SWAP2 SWAP1 PUSH2 0x1704 JUMP JUMPDEST PUSH2 0xEB4 JUMP JUMPDEST PUSH1 0x40 MLOAD PUSH2 0x2DF SWAP2 SWAP1 PUSH2 0x1945 JUMP JUMPDEST PUSH1 0x40 MLOAD DUP1 SWAP2 SUB SWAP1 RETURN JUMPDEST PUSH2 0x302 PUSH1 0x4 DUP1 CALLDATASIZE SUB DUP2 ADD SWAP1 PUSH2 0x2FD SWAP2 SWAP1 PUSH2 0x1731 JUMP JUMPDEST PUSH2 0x1092 JUMP JUMPDEST PUSH1 0x40 MLOAD PUSH2 0x30F SWAP2 SWAP1 PUSH2 0x18A3 JUMP JUMPDEST PUSH1 0x40 MLOAD DUP1 SWAP2 SUB SWAP1 RETURN JUMPDEST PUSH2 0x332 PUSH1 0x4 DUP1 CALLDATASIZE SUB DUP2 ADD SWAP1 PUSH2 0x32D SWAP2 SWAP1 PUSH2 0x1704 JUMP JUMPDEST PUSH2 0x10C3 JUMP JUMPDEST STOP JUMPDEST PUSH2 0x33C PUSH2 0x1146 JUMP JUMPDEST PUSH1 0x40 MLOAD PUSH2 0x349 SWAP2 SWAP1 PUSH2 0x1A66 JUMP JUMPDEST PUSH1 0x40 MLOAD DUP1 SWAP2 SUB SWAP1 RETURN JUMPDEST PUSH1 0x3 DUP2 DUP2 SLOAD DUP2 LT PUSH2 0x362 JUMPI PUSH1 0x0 DUP1 REVERT JUMPDEST SWAP1 PUSH1 0x0 MSTORE PUSH1 0x20 PUSH1 0x0 KECCAK256 SWAP1 PUSH1 0x2 MUL ADD PUSH1 0x0 SWAP2 POP SWAP1 POP DUP1 PUSH1 0x0 ADD DUP1 SLOAD PUSH2 0x385 SWAP1 PUSH2 0x1AB7 JUMP JUMPDEST DUP1 PUSH1 0x1F ADD PUSH1 0x20 DUP1 SWAP2 DIV MUL PUSH1 0x20 ADD PUSH1 0x40 MLOAD SWAP1 DUP2 ADD PUSH1 0x40 MSTORE DUP1 SWAP3 SWAP2 SWAP1 DUP2 DUP2 MSTORE PUSH1 0x20 ADD DUP3 DUP1 SLOAD PUSH2 0x3B1 SWAP1 PUSH2 0x1AB7 JUMP JUMPDEST DUP1 ISZERO PUSH2 0x3FE JUMPI DUP1 PUSH1 0x1F LT PUSH2 0x3D3 JUMPI PUSH2 0x100 DUP1 DUP4 SLOAD DIV MUL DUP4 MSTORE SWAP2 PUSH1 0x20 ADD SWAP2 PUSH2 0x3FE JUMP JUMPDEST DUP3 ADD SWAP2 SWAP1 PUSH1 0x0 MSTORE PUSH1 0x20 PUSH1 0x0 KECCAK256 SWAP1 JUMPDEST DUP2 SLOAD DUP2 MSTORE SWAP1 PUSH1 0x1 ADD SWAP1 PUSH1 0x20 ADD DUP1 DUP4 GT PUSH2 0x3E1 JUMPI DUP3 SWAP1 SUB PUSH1 0x1F AND DUP3 ADD SWAP2 JUMPDEST POP POP POP POP POP SWAP1 DUP1 PUSH1 0x1 ADD SLOAD SWAP1 POP DUP3 JUMP JUMPDEST PUSH2 0x416 PUSH2 0x1241 JUMP JUMPDEST PUSH1 0x4 PUSH1 0x5 PUSH1 0x0 PUSH2 0x100 EXP DUP2 SLOAD DUP2 PUSH1 0xFF MUL NOT AND SWAP1 DUP4 PUSH1 0x5 DUP2 GT ISZERO PUSH2 0x43C JUMPI PUSH2 0x43B PUSH2 0x1AE8 JUMP JUMPDEST JUMPDEST MUL OR SWAP1 SSTORE POP JUMP JUMPDEST PUSH1 0x1 PUSH1 0x5 DUP2 GT ISZERO PUSH2 0x457 JUMPI PUSH2 0x456 PUSH2 0x1AE8 JUMP JUMPDEST JUMPDEST PUSH1 0x5 PUSH1 0x0 SWAP1 SLOAD SWAP1 PUSH2 0x100 EXP SWAP1 DIV PUSH1 0xFF AND PUSH1 0x5 DUP2 GT ISZERO PUSH2 0x479 JUMPI PUSH2 0x478 PUSH2 0x1AE8 JUMP JUMPDEST JUMPDEST EQ PUSH2 0x4B9 JUMPI PUSH1 0x40 MLOAD PUSH32 0x8C379A000000000000000000000000000000000000000000000000000000000 DUP2 MSTORE PUSH1 0x4 ADD PUSH2 0x4B0 SWAP1 PUSH2 0x1B63 JUMP JUMPDEST PUSH1 0x40 MLOAD DUP1 SWAP2 SUB SWAP1 REVERT JUMPDEST PUSH1 0x1 PUSH1 0x0 DUP4 PUSH20 0xFFFFFFFFFFFFFFFFFFFFFFFFFFFFFFFFFFFFFFFF AND PUSH20 0xFFFFFFFFFFFFFFFFFFFFFFFFFFFFFFFFFFFFFFFF AND DUP2 MSTORE PUSH1 0x20 ADD SWAP1 DUP2 MSTORE PUSH1 0x20 ADD PUSH1 0x0 KECCAK256 PUSH1 0x0 ADD PUSH1 0x0 SWAP1 SLOAD SWAP1 PUSH2 0x100 EXP SWAP1 DIV PUSH1 0xFF AND PUSH2 0x548 JUMPI PUSH1 0x40 MLOAD PUSH32 0x8C379A000000000000000000000000000000000000000000000000000000000 DUP2 MSTORE PUSH1 0x4 ADD PUSH2 0x53F SWAP1 PUSH2 0x1BCF JUMP JUMPDEST PUSH1 0x40 MLOAD DUP1 SWAP2 SUB SWAP1 REVERT JUMPDEST PUSH1 0x3 PUSH1 0x40 MLOAD DUP1 PUSH1 0x40 ADD PUSH1 0x40 MSTORE DUP1 DUP4 DUP2 MSTORE PUSH1 0x20 ADD PUSH1 0x0 DUP2 MSTORE POP SWAP1 DUP1 PUSH1 0x1 DUP2 SLOAD ADD DUP1 DUP3 SSTORE DUP1 SWAP2 POP POP PUSH1 0x1 SWAP1 SUB SWAP1 PUSH1 0x0 MSTORE PUSH1 0x20 PUSH1 0x0 KECCAK256 SWAP1 PUSH1 0x2 MUL ADD PUSH1 0x0 SWAP1 SWAP2 SWAP1 SWAP2 SWAP1 SWAP2 POP PUSH1 0x0 DUP3 ADD MLOAD DUP2 PUSH1 0x0 ADD SWAP1 DUP2 PUSH2 0x59E SWAP2 SWAP1 PUSH2 0x1D9B JUMP JUMPDEST POP PUSH1 0x20 DUP3 ADD MLOAD DUP2 PUSH1 0x1 ADD SSTORE POP POP PUSH1 0x0 PUSH1 0x1 PUSH1 0x3 DUP1 SLOAD SWAP1 POP PUSH2 0x5BF SWAP2 SWAP1 PUSH2 0x1E9C JUMP JUMPDEST SWAP1 POP PUSH1 0x2 PUSH1 0x0 DUP5 PUSH20 0xFFFFFFFFFFFFFFFFFFFFFFFFFFFFFFFFFFFFFFFF AND PUSH20 0xFFFFFFFFFFFFFFFFFFFFFFFFFFFFFFFFFFFFFFFF AND DUP2 MSTORE PUSH1 0x20 ADD SWAP1 DUP2 MSTORE PUSH1 0x20 ADD PUSH1 0x0 KECCAK256 DUP2 SWAP1 DUP1 PUSH1 0x1 DUP2 SLOAD ADD DUP1 DUP3 SSTORE DUP1 SWAP2 POP POP PUSH1 0x1 SWAP1 SUB SWAP1 PUSH1 0x0 MSTORE PUSH1 0x20 PUSH1 0x0 KECCAK256 ADD PUSH1 0x0 SWAP1 SWAP2 SWAP1 SWAP2 SWAP1 SWAP2 POP SSTORE PUSH32 0x92E393E9B54E2F801D3EA4BEB0C5E71A21CC34A5D34B77D0FB8A3AA1650DC18F DUP2 PUSH1 0x40 MLOAD PUSH2 0x656 SWAP2 SWAP1 PUSH2 0x18A3 JUMP JUMPDEST PUSH1 0x40 MLOAD DUP1 SWAP2 SUB SWAP1 LOG1 POP POP POP JUMP JUMPDEST PUSH2 0x66B PUSH2 0x1241 JUMP JUMPDEST PUSH1 0x3 PUSH1 0x5 PUSH1 0x0 PUSH2 0x100 EXP DUP2 SLOAD DUP2 PUSH1 0xFF MUL NOT AND SWAP1 DUP4 PUSH1 0x5 DUP2 GT ISZERO PUSH2 0x691 JUMPI PUSH2 0x690 PUSH2 0x1AE8 JUMP JUMPDEST JUMPDEST MUL OR SWAP1 SSTORE POP JUMP JUMPDEST PUSH2 0x6A0 PUSH2 0x1241 JUMP JUMPDEST PUSH1 0x0 PUSH1 0x5 PUSH1 0x0 PUSH2 0x100 EXP DUP2 SLOAD DUP2 PUSH1 0xFF MUL NOT AND SWAP1 DUP4 PUSH1 0x5 DUP2 GT ISZERO PUSH2 0x6C6 JUMPI PUSH2 0x6C5 PUSH2 0x1AE8 JUMP JUMPDEST JUMPDEST MUL OR SWAP1 SSTORE POP JUMP JUMPDEST PUSH2 0x6D5 PUSH2 0x1241 JUMP JUMPDEST PUSH1 0x2 PUSH1 0x5 PUSH1 0x0 PUSH2 0x100 EXP DUP2 SLOAD DUP2 PUSH1 0xFF MUL NOT AND SWAP1 DUP4 PUSH1 0x5 DUP2 GT ISZERO PUSH2 0x6FB JUMPI PUSH2 0x6FA PUSH2 0x1AE8 JUMP JUMPDEST JUMPDEST MUL OR SWAP1 SSTORE POP JUMP JUMPDEST PUSH2 0x70A PUSH2 0x1241 JUMP JUMPDEST PUSH1 0x5 DUP1 PUSH1 0x0 PUSH2 0x100 EXP DUP2 SLOAD DUP2 PUSH1 0xFF MUL NOT AND SWAP1 DUP4 PUSH1 0x5 DUP2 GT ISZERO PUSH2 0x72F JUMPI PUSH2 0x72E PUSH2 0x1AE8 JUMP JUMPDEST JUMPDEST MUL OR SWAP1 SSTORE POP JUMP JUMPDEST PUSH2 0x73E PUSH2 0x1241 JUMP JUMPDEST PUSH2 0x748 PUSH1 0x0 PUSH2 0x12BF JUMP JUMPDEST JUMP JUMPDEST PUSH1 0x0 DUP1 PUSH1 0x0 SWAP1 SLOAD SWAP1 PUSH2 0x100 EXP SWAP1 DIV PUSH20 0xFFFFFFFFFFFFFFFFFFFFFFFFFFFFFFFFFFFFFFFF AND SWAP1 POP SWAP1 JUMP JUMPDEST PUSH2 0x77B PUSH2 0x1241 JUMP JUMPDEST PUSH1 0x1 PUSH1 0x5 PUSH1 0x0 PUSH2 0x100 EXP DUP2 SLOAD DUP2 PUSH1 0xFF MUL NOT AND SWAP1 DUP4 PUSH1 0x5 DUP2 GT ISZERO PUSH2 0x7A1 JUMPI PUSH2 0x7A0 PUSH2 0x1AE8 JUMP JUMPDEST JUMPDEST MUL OR SWAP1 SSTORE POP JUMP JUMPDEST PUSH2 0x7B0 PUSH2 0x1241 JUMP JUMPDEST PUSH1 0x1 PUSH1 0x0 DUP3 PUSH20 0xFFFFFFFFFFFFFFFFFFFFFFFFFFFFFFFFFFFFFFFF AND PUSH20 0xFFFFFFFFFFFFFFFFFFFFFFFFFFFFFFFFFFFFFFFF AND DUP2 MSTORE PUSH1 0x20 ADD SWAP1 DUP2 MSTORE PUSH1 0x20 ADD PUSH1 0x0 KECCAK256 PUSH1 0x0 ADD PUSH1 0x0 SWAP1 SLOAD SWAP1 PUSH2 0x100 EXP SWAP1 DIV PUSH1 0xFF AND ISZERO PUSH2 0x840 JUMPI PUSH1 0x40 MLOAD PUSH32 0x8C379A000000000000000000000000000000000000000000000000000000000 DUP2 MSTORE PUSH1 0x4 ADD PUSH2 0x837 SWAP1 PUSH2 0x1F42 JUMP JUMPDEST PUSH1 0x40 MLOAD DUP1 SWAP2 SUB SWAP1 REVERT JUMPDEST PUSH1 0x0 PUSH20 0xFFFFFFFFFFFFFFFFFFFFFFFFFFFFFFFFFFFFFFFF AND DUP2 PUSH20 0xFFFFFFFFFFFFFFFFFFFFFFFFFFFFFFFFFFFFFFFF AND SUB PUSH2 0x8AF JUMPI PUSH1 0x40 MLOAD PUSH32 0x8C379A000000000000000000000000000000000000000000000000000000000 DUP2 MSTORE PUSH1 0x4 ADD PUSH2 0x8A6 SWAP1 PUSH2 0x1FD4 JUMP JUMPDEST PUSH1 0x40 MLOAD DUP1 SWAP2 SUB SWAP1 REVERT JUMPDEST PUSH1 0x0 PUSH1 0x5 DUP2 GT ISZERO PUSH2 0x8C3 JUMPI PUSH2 0x8C2 PUSH2 0x1AE8 JUMP JUMPDEST JUMPDEST PUSH1 0x5 PUSH1 0x0 SWAP1 SLOAD SWAP1 PUSH2 0x100 EXP SWAP1 DIV PUSH1 0xFF AND PUSH1 0x5 DUP2 GT ISZERO PUSH2 0x8E5 JUMPI PUSH2 0x8E4 PUSH2 0x1AE8 JUMP JUMPDEST JUMPDEST EQ PUSH2 0x925 JUMPI PUSH1 0x40 MLOAD PUSH32 0x8C379A000000000000000000000000000000000000000000000000000000000 DUP2 MSTORE PUSH1 0x4 ADD PUSH2 0x91C SWAP1 PUSH2 0x2040 JUMP JUMPDEST PUSH1 0x40 MLOAD DUP1 SWAP2 SUB SWAP1 REVERT JUMPDEST PUSH1 0x40 MLOAD DUP1 PUSH1 0x60 ADD PUSH1 0x40 MSTORE DUP1 PUSH1 0x1 ISZERO ISZERO DUP2 MSTORE PUSH1 0x20 ADD PUSH1 0x0 ISZERO ISZERO DUP2 MSTORE PUSH1 0x20 ADD PUSH1 0x0 DUP2 MSTORE POP PUSH1 0x1 PUSH1 0x0 DUP4 PUSH20 0xFFFFFFFFFFFFFFFFFFFFFFFFFFFFFFFFFFFFFFFF AND PUSH20 0xFFFFFFFFFFFFFFFFFFFFFFFFFFFFFFFFFFFFFFFF AND DUP2 MSTORE PUSH1 0x20 ADD SWAP1 DUP2 MSTORE PUSH1 0x20 ADD PUSH1 0x0 KECCAK256 PUSH1 0x0 DUP3 ADD MLOAD DUP2 PUSH1 0x0 ADD PUSH1 0x0 PUSH2 0x100 EXP DUP2 SLOAD DUP2 PUSH1 0xFF MUL NOT AND SWAP1 DUP4 ISZERO ISZERO MUL OR SWAP1 SSTORE POP PUSH1 0x20 DUP3 ADD MLOAD DUP2 PUSH1 0x0 ADD PUSH1 0x1 PUSH2 0x100 EXP DUP2 SLOAD DUP2 PUSH1 0xFF MUL NOT AND SWAP1 DUP4 ISZERO ISZERO MUL OR SWAP1 SSTORE POP PUSH1 0x40 DUP3 ADD MLOAD DUP2 PUSH1 0x1 ADD SSTORE SWAP1 POP POP PUSH32 0xB6BE2187D059CC2A55FE29E0E503B566E1E0F8C8780096E185429350ACFFD3DD DUP2 PUSH1 0x40 MLOAD PUSH2 0xA02 SWAP2 SWAP1 PUSH2 0x16E9 JUMP JUMPDEST PUSH1 0x40 MLOAD DUP1 SWAP2 SUB SWAP1 LOG1 POP JUMP JUMPDEST PUSH1 0x3 PUSH1 0x5 DUP2 GT ISZERO PUSH2 0xA21 JUMPI PUSH2 0xA20 PUSH2 0x1AE8 JUMP JUMPDEST JUMPDEST PUSH1 0x5 PUSH1 0x0 SWAP1 SLOAD SWAP1 PUSH2 0x100 EXP SWAP1 DIV PUSH1 0xFF AND PUSH1 0x5 DUP2 GT ISZERO PUSH2 0xA43 JUMPI PUSH2 0xA42 PUSH2 0x1AE8 JUMP JUMPDEST JUMPDEST EQ PUSH2 0xA83 JUMPI PUSH1 0x40 MLOAD PUSH32 0x8C379A000000000000000000000000000000000000000000000000000000000 DUP2 MSTORE PUSH1 0x4 ADD PUSH2 0xA7A SWAP1 PUSH2 0x20AC JUMP JUMPDEST PUSH1 0x40 MLOAD DUP1 SWAP2 SUB SWAP1 REVERT JUMPDEST PUSH1 0x1 PUSH1 0x0 DUP4 PUSH20 0xFFFFFFFFFFFFFFFFFFFFFFFFFFFFFFFFFFFFFFFF AND PUSH20 0xFFFFFFFFFFFFFFFFFFFFFFFFFFFFFFFFFFFFFFFF AND DUP2 MSTORE PUSH1 0x20 ADD SWAP1 DUP2 MSTORE PUSH1 0x20 ADD PUSH1 0x0 KECCAK256 PUSH1 0x0 ADD PUSH1 0x0 SWAP1 SLOAD SWAP1 PUSH2 0x100 EXP SWAP1 DIV PUSH1 0xFF AND PUSH2 0xB12 JUMPI PUSH1 0x40 MLOAD PUSH32 0x8C379A000000000000000000000000000000000000000000000000000000000 DUP2 MSTORE PUSH1 0x4 ADD PUSH2 0xB09 SWAP1 PUSH2 0x1BCF JUMP JUMPDEST PUSH1 0x40 MLOAD DUP1 SWAP2 SUB SWAP1 REVERT JUMPDEST PUSH1 0x1 PUSH1 0x0 DUP4 PUSH20 0xFFFFFFFFFFFFFFFFFFFFFFFFFFFFFFFFFFFFFFFF AND PUSH20 0xFFFFFFFFFFFFFFFFFFFFFFFFFFFFFFFFFFFFFFFF AND DUP2 MSTORE PUSH1 0x20 ADD SWAP1 DUP2 MSTORE PUSH1 0x20 ADD PUSH1 0x0 KECCAK256 PUSH1 0x0 ADD PUSH1 0x1 SWAP1 SLOAD SWAP1 PUSH2 0x100 EXP SWAP1 DIV PUSH1 0xFF AND ISZERO PUSH2 0xBA2 JUMPI PUSH1 0x40 MLOAD PUSH32 0x8C379A000000000000000000000000000000000000000000000000000000000 DUP2 MSTORE PUSH1 0x4 ADD PUSH2 0xB99 SWAP1 PUSH2 0x2118 JUMP JUMPDEST PUSH1 0x40 MLOAD DUP1 SWAP2 SUB SWAP1 REVERT JUMPDEST PUSH1 0x40 MLOAD DUP1 PUSH1 0x60 ADD PUSH1 0x40 MSTORE DUP1 PUSH1 0x1 ISZERO ISZERO DUP2 MSTORE PUSH1 0x20 ADD PUSH1 0x1 ISZERO ISZERO DUP2 MSTORE PUSH1 0x20 ADD DUP3 DUP2 MSTORE POP PUSH1 0x1 PUSH1 0x0 DUP5 PUSH20 0xFFFFFFFFFFFFFFFFFFFFFFFFFFFFFFFFFFFFFFFF AND PUSH20 0xFFFFFFFFFFFFFFFFFFFFFFFFFFFFFFFFFFFFFFFF AND DUP2 MSTORE PUSH1 0x20 ADD SWAP1 DUP2 MSTORE PUSH1 0x20 ADD PUSH1 0x0 KECCAK256 PUSH1 0x0 DUP3 ADD MLOAD DUP2 PUSH1 0x0 ADD PUSH1 0x0 PUSH2 0x100 EXP DUP2 SLOAD DUP2 PUSH1 0xFF MUL NOT AND SWAP1 DUP4 ISZERO ISZERO MUL OR SWAP1 SSTORE POP PUSH1 0x20 DUP3 ADD MLOAD DUP2 PUSH1 0x0 ADD PUSH1 0x1 PUSH2 0x100 EXP DUP2 SLOAD DUP2 PUSH1 0xFF MUL NOT AND SWAP1 DUP4 ISZERO ISZERO MUL OR SWAP1 SSTORE POP PUSH1 0x40 DUP3 ADD MLOAD DUP2 PUSH1 0x1 ADD SSTORE SWAP1 POP POP PUSH1 0x3 DUP2 DUP2 SLOAD DUP2 LT PUSH2 0xC63 JUMPI PUSH2 0xC62 PUSH2 0x2138 JUMP JUMPDEST JUMPDEST SWAP1 PUSH1 0x0 MSTORE PUSH1 0x20 PUSH1 0x0 KECCAK256 SWAP1 PUSH1 0x2 MUL ADD PUSH1 0x1 ADD PUSH1 0x0 DUP2 SLOAD DUP1 SWAP3 SWAP2 SWAP1 PUSH2 0xC85 SWAP1 PUSH2 0x2167 JUMP JUMPDEST SWAP2 SWAP1 POP SSTORE POP PUSH32 0x4D99B957A2BC29A30EBD96A7BE8E68FE50A3C701DB28A91436490B7D53870CA4 DUP3 DUP3 PUSH1 0x40 MLOAD PUSH2 0xCBB SWAP3 SWAP2 SWAP1 PUSH2 0x21AF JUMP JUMPDEST PUSH1 0x40 MLOAD DUP1 SWAP2 SUB SWAP1 LOG1 POP POP JUMP JUMPDEST PUSH1 0x1 PUSH1 0x20 MSTORE DUP1 PUSH1 0x0 MSTORE PUSH1 0x40 PUSH1 0x0 KECCAK256 PUSH1 0x0 SWAP2 POP SWAP1 POP DUP1 PUSH1 0x0 ADD PUSH1 0x0 SWAP1 SLOAD SWAP1 PUSH2 0x100 EXP SWAP1 DIV PUSH1 0xFF AND SWAP1 DUP1 PUSH1 0x0 ADD PUSH1 0x1 SWAP1 SLOAD SWAP1 PUSH2 0x100 EXP SWAP1 DIV PUSH1 0xFF AND SWAP1 DUP1 PUSH1 0x1 ADD SLOAD SWAP1 POP DUP4 JUMP JUMPDEST PUSH1 0x60 PUSH1 0x2 PUSH1 0x0 DUP4 PUSH20 0xFFFFFFFFFFFFFFFFFFFFFFFFFFFFFFFFFFFFFFFF AND PUSH20 0xFFFFFFFFFFFFFFFFFFFFFFFFFFFFFFFFFFFFFFFF AND DUP2 MSTORE PUSH1 0x20 ADD SWAP1 DUP2 MSTORE PUSH1 0x20 ADD PUSH1 0x0 KECCAK256 DUP1 SLOAD DUP1 PUSH1 0x20 MUL PUSH1 0x20 ADD PUSH1 0x40 MLOAD SWAP1 DUP2 ADD PUSH1 0x40 MSTORE DUP1 SWAP3 SWAP2 SWAP1 DUP2 DUP2 MSTORE PUSH1 0x20 ADD DUP3 DUP1 SLOAD DUP1 ISZERO PUSH2 0xD96 JUMPI PUSH1 0x20 MUL DUP3 ADD SWAP2 SWAP1 PUSH1 0x0 MSTORE PUSH1 0x20 PUSH1 0x0 KECCAK256 SWAP1 JUMPDEST DUP2 SLOAD DUP2 MSTORE PUSH1 0x20 ADD SWAP1 PUSH1 0x1 ADD SWAP1 DUP1 DUP4 GT PUSH2 0xD82 JUMPI JUMPDEST POP POP POP POP POP SWAP1 POP SWAP2 SWAP1 POP JUMP JUMPDEST PUSH1 0x4 SLOAD DUP2 JUMP JUMPDEST PUSH1 0x0 PUSH1 0x4 PUSH1 0x5 DUP2 GT ISZERO PUSH2 0xDBE JUMPI PUSH2 0xDBD PUSH2 0x1AE8 JUMP JUMPDEST JUMPDEST PUSH1 0x5 PUSH1 0x0 SWAP1 SLOAD SWAP1 PUSH2 0x100 EXP SWAP1 DIV PUSH1 0xFF AND PUSH1 0x5 DUP2 GT ISZERO PUSH2 0xDE0 JUMPI PUSH2 0xDDF PUSH2 0x1AE8 JUMP JUMPDEST JUMPDEST EQ PUSH2 0xE20 JUMPI PUSH1 0x40 MLOAD PUSH32 0x8C379A000000000000000000000000000000000000000000000000000000000 DUP2 MSTORE PUSH1 0x4 ADD PUSH2 0xE17 SWAP1 PUSH2 0x20AC JUMP JUMPDEST PUSH1 0x40 MLOAD DUP1 SWAP2 SUB SWAP1 REVERT JUMPDEST PUSH1 0x0 PUSH1 0x3 DUP1 SLOAD SWAP1 POP SWAP1 POP PUSH1 0x0 DUP1 PUSH1 0x0 SWAP1 POP JUMPDEST DUP3 DUP2 LT ISZERO PUSH2 0xEA9 JUMPI PUSH1 0x3 DUP2 DUP2 SLOAD DUP2 LT PUSH2 0xE4E JUMPI PUSH2 0xE4D PUSH2 0x2138 JUMP JUMPDEST JUMPDEST SWAP1 PUSH1 0x0 MSTORE PUSH1 0x20 PUSH1 0x0 KECCAK256 SWAP1 PUSH1 0x2 MUL ADD PUSH1 0x1 ADD SLOAD DUP3 GT PUSH2 0xE96 JUMPI PUSH1 0x3 DUP2 DUP2 SLOAD DUP2 LT PUSH2 0xE7A JUMPI PUSH2 0xE79 PUSH2 0x2138 JUMP JUMPDEST JUMPDEST SWAP1 PUSH1 0x0 MSTORE PUSH1 0x20 PUSH1 0x0 KECCAK256 SWAP1 PUSH1 0x2 MUL ADD PUSH1 0x1 ADD SLOAD SWAP2 POP DUP1 PUSH1 0x4 DUP2 SWAP1 SSTORE POP JUMPDEST DUP1 DUP1 PUSH2 0xEA1 SWAP1 PUSH2 0x2167 JUMP JUMPDEST SWAP2 POP POP PUSH2 0xE32 JUMP JUMPDEST POP PUSH1 0x4 SLOAD SWAP3 POP POP POP SWAP1 JUMP JUMPDEST PUSH2 0xEBC PUSH2 0x138B JUMP JUMPDEST PUSH1 0x5 DUP1 DUP2 GT ISZERO PUSH2 0xECF JUMPI PUSH2 0xECE PUSH2 0x1AE8 JUMP JUMPDEST JUMPDEST PUSH1 0x5 PUSH1 0x0 SWAP1 SLOAD SWAP1 PUSH2 0x100 EXP SWAP1 DIV PUSH1 0xFF AND PUSH1 0x5 DUP2 GT ISZERO PUSH2 0xEF1 JUMPI PUSH2 0xEF0 PUSH2 0x1AE8 JUMP JUMPDEST JUMPDEST EQ PUSH2 0xF31 JUMPI PUSH1 0x40 MLOAD PUSH32 0x8C379A000000000000000000000000000000000000000000000000000000000 DUP2 MSTORE PUSH1 0x4 ADD PUSH2 0xF28 SWAP1 PUSH2 0x20AC JUMP JUMPDEST PUSH1 0x40 MLOAD DUP1 SWAP2 SUB SWAP1 REVERT JUMPDEST PUSH1 0x1 PUSH1 0x0 DUP4 PUSH20 0xFFFFFFFFFFFFFFFFFFFFFFFFFFFFFFFFFFFFFFFF AND PUSH20 0xFFFFFFFFFFFFFFFFFFFFFFFFFFFFFFFFFFFFFFFF AND DUP2 MSTORE PUSH1 0x20 ADD SWAP1 DUP2 MSTORE PUSH1 0x20 ADD PUSH1 0x0 KECCAK256 PUSH1 0x0 ADD PUSH1 0x0 SWAP1 SLOAD SWAP1 PUSH2 0x100 EXP SWAP1 DIV PUSH1 0xFF AND PUSH2 0xFC0 JUMPI PUSH1 0x40 MLOAD PUSH32 0x8C379A000000000000000000000000000000000000000000000000000000000 DUP2 MSTORE PUSH1 0x4 ADD PUSH2 0xFB7 SWAP1 PUSH2 0x1BCF JUMP JUMPDEST PUSH1 0x40 MLOAD DUP1 SWAP2 SUB SWAP1 REVERT JUMPDEST PUSH1 0x3 PUSH1 0x4 SLOAD DUP2 SLOAD DUP2 LT PUSH2 0xFD6 JUMPI PUSH2 0xFD5 PUSH2 0x2138 JUMP JUMPDEST JUMPDEST SWAP1 PUSH1 0x0 MSTORE PUSH1 0x20 PUSH1 0x0 KECCAK256 SWAP1 PUSH1 0x2 MUL ADD PUSH1 0x40 MLOAD DUP1 PUSH1 0x40 ADD PUSH1 0x40 MSTORE SWAP1 DUP2 PUSH1 0x0 DUP3 ADD DUP1 SLOAD PUSH2 0xFFF SWAP1 PUSH2 0x1AB7 JUMP JUMPDEST DUP1 PUSH1 0x1F ADD PUSH1 0x20 DUP1 SWAP2 DIV MUL PUSH1 0x20 ADD PUSH1 0x40 MLOAD SWAP1 DUP2 ADD PUSH1 0x40 MSTORE DUP1 SWAP3 SWAP2 SWAP1 DUP2 DUP2 MSTORE PUSH1 0x20 ADD DUP3 DUP1 SLOAD PUSH2 0x102B SWAP1 PUSH2 0x1AB7 JUMP JUMPDEST DUP1 ISZERO PUSH2 0x1078 JUMPI DUP1 PUSH1 0x1F LT PUSH2 0x104D JUMPI PUSH2 0x100 DUP1 DUP4 SLOAD DIV MUL DUP4 MSTORE SWAP2 PUSH1 0x20 ADD SWAP2 PUSH2 0x1078 JUMP JUMPDEST DUP3 ADD SWAP2 SWAP1 PUSH1 0x0 MSTORE PUSH1 0x20 PUSH1 0x0 KECCAK256 SWAP1 JUMPDEST DUP2 SLOAD DUP2 MSTORE SWAP1 PUSH1 0x1 ADD SWAP1 PUSH1 0x20 ADD DUP1 DUP4 GT PUSH2 0x105B JUMPI DUP3 SWAP1 SUB PUSH1 0x1F AND DUP3 ADD SWAP2 JUMPDEST POP POP POP POP POP DUP2 MSTORE PUSH1 0x20 ADD PUSH1 0x1 DUP3 ADD SLOAD DUP2 MSTORE POP POP SWAP1 POP SWAP2 SWAP1 POP JUMP JUMPDEST PUSH1 0x2 PUSH1 0x20 MSTORE DUP2 PUSH1 0x0 MSTORE PUSH1 0x40 PUSH1 0x0 KECCAK256 DUP2 DUP2 SLOAD DUP2 LT PUSH2 0x10AE JUMPI PUSH1 0x0 DUP1 REVERT JUMPDEST SWAP1 PUSH1 0x0 MSTORE PUSH1 0x20 PUSH1 0x0 KECCAK256 ADD PUSH1 0x0 SWAP2 POP SWAP2 POP POP SLOAD DUP2 JUMP JUMPDEST PUSH2 0x10CB PUSH2 0x1241 JUMP JUMPDEST PUSH1 0x0 PUSH20 0xFFFFFFFFFFFFFFFFFFFFFFFFFFFFFFFFFFFFFFFF AND DUP2 PUSH20 0xFFFFFFFFFFFFFFFFFFFFFFFFFFFFFFFFFFFFFFFF AND SUB PUSH2 0x113A JUMPI PUSH1 0x40 MLOAD PUSH32 0x8C379A000000000000000000000000000000000000000000000000000000000 DUP2 MSTORE PUSH1 0x4 ADD PUSH2 0x1131 SWAP1 PUSH2 0x224A JUMP JUMPDEST PUSH1 0x40 MLOAD DUP1 SWAP2 SUB SWAP1 REVERT JUMPDEST PUSH2 0x1143 DUP2 PUSH2 0x12BF JUMP JUMPDEST POP JUMP JUMPDEST PUSH1 0x60 PUSH1 0x3 DUP1 SLOAD DUP1 PUSH1 0x20 MUL PUSH1 0x20 ADD PUSH1 0x40 MLOAD SWAP1 DUP2 ADD PUSH1 0x40 MSTORE DUP1 SWAP3 SWAP2 SWAP1 DUP2 DUP2 MSTORE PUSH1 0x20 ADD PUSH1 0x0 SWAP1 JUMPDEST DUP3 DUP3 LT ISZERO PUSH2 0x1238 JUMPI DUP4 DUP3 SWAP1 PUSH1 0x0 MSTORE PUSH1 0x20 PUSH1 0x0 KECCAK256 SWAP1 PUSH1 0x2 MUL ADD PUSH1 0x40 MLOAD DUP1 PUSH1 0x40 ADD PUSH1 0x40 MSTORE SWAP1 DUP2 PUSH1 0x0 DUP3 ADD DUP1 SLOAD PUSH2 0x119D SWAP1 PUSH2 0x1AB7 JUMP JUMPDEST DUP1 PUSH1 0x1F ADD PUSH1 0x20 DUP1 SWAP2 DIV MUL PUSH1 0x20 ADD PUSH1 0x40 MLOAD SWAP1 DUP2 ADD PUSH1 0x40 MSTORE DUP1 SWAP3 SWAP2 SWAP1 DUP2 DUP2 MSTORE PUSH1 0x20 ADD DUP3 DUP1 SLOAD PUSH2 0x11C9 SWAP1 PUSH2 0x1AB7 JUMP JUMPDEST DUP1 ISZERO PUSH2 0x1216 JUMPI DUP1 PUSH1 0x1F LT PUSH2 0x11EB JUMPI PUSH2 0x100 DUP1 DUP4 SLOAD DIV MUL DUP4 MSTORE SWAP2 PUSH1 0x20 ADD SWAP2 PUSH2 0x1216 JUMP JUMPDEST DUP3 ADD SWAP2 SWAP1 PUSH1 0x0 MSTORE PUSH1 0x20 PUSH1 0x0 KECCAK256 SWAP1 JUMPDEST DUP2 SLOAD DUP2 MSTORE SWAP1 PUSH1 0x1 ADD SWAP1 PUSH1 0x20 ADD DUP1 DUP4 GT PUSH2 0x11F9 JUMPI DUP3 SWAP1 SUB PUSH1 0x1F AND DUP3 ADD SWAP2 JUMPDEST POP POP POP POP POP DUP2 MSTORE PUSH1 0x20 ADD PUSH1 0x1 DUP3 ADD SLOAD DUP2 MSTORE POP POP DUP2 MSTORE PUSH1 0x20 ADD SWAP1 PUSH1 0x1 ADD SWAP1 PUSH2 0x116A JUMP JUMPDEST POP POP POP POP SWAP1 POP SWAP1 JUMP JUMPDEST PUSH2 0x1249 PUSH2 0x1383 JUMP JUMPDEST PUSH20 0xFFFFFFFFFFFFFFFFFFFFFFFFFFFFFFFFFFFFFFFF AND PUSH2 0x1267 PUSH2 0x74A JUMP JUMPDEST PUSH20 0xFFFFFFFFFFFFFFFFFFFFFFFFFFFFFFFFFFFFFFFF AND EQ PUSH2 0x12BD JUMPI PUSH1 0x40 MLOAD PUSH32 0x8C379A000000000000000000000000000000000000000000000000000000000 DUP2 MSTORE PUSH1 0x4 ADD PUSH2 0x12B4 SWAP1 PUSH2 0x22B6 JUMP JUMPDEST PUSH1 0x40 MLOAD DUP1 SWAP2 SUB SWAP1 REVERT JUMPDEST JUMP JUMPDEST PUSH1 0x0 DUP1 PUSH1 0x0 SWAP1 SLOAD SWAP1 PUSH2 0x100 EXP SWAP1 DIV PUSH20 0xFFFFFFFFFFFFFFFFFFFFFFFFFFFFFFFFFFFFFFFF AND SWAP1 POP DUP2 PUSH1 0x0 DUP1 PUSH2 0x100 EXP DUP2 SLOAD DUP2 PUSH20 0xFFFFFFFFFFFFFFFFFFFFFFFFFFFFFFFFFFFFFFFF MUL NOT AND SWAP1 DUP4 PUSH20 0xFFFFFFFFFFFFFFFFFFFFFFFFFFFFFFFFFFFFFFFF AND MUL OR SWAP1 SSTORE POP DUP2 PUSH20 0xFFFFFFFFFFFFFFFFFFFFFFFFFFFFFFFFFFFFFFFF AND DUP2 PUSH20 0xFFFFFFFFFFFFFFFFFFFFFFFFFFFFFFFFFFFFFFFF AND PUSH32 0x8BE0079C531659141344CD1FD0A4F28419497F9722A3DAAFE3B4186F6B6457E0 PUSH1 0x40 MLOAD PUSH1 0x40 MLOAD DUP1 SWAP2 SUB SWAP1 LOG3 POP POP JUMP JUMPDEST PUSH1 0x0 CALLER SWAP1 POP SWAP1 JUMP JUMPDEST PUSH1 0x40 MLOAD DUP1 PUSH1 0x40 ADD PUSH1 0x40 MSTORE DUP1 PUSH1 0x60 DUP2 MSTORE PUSH1 0x20 ADD PUSH1 0x0 DUP2 MSTORE POP SWAP1 JUMP JUMPDEST PUSH1 0x0 PUSH1 0x40 MLOAD SWAP1 POP SWAP1 JUMP JUMPDEST PUSH1 0x0 DUP1 REVERT JUMPDEST PUSH1 0x0 DUP1 REVERT JUMPDEST PUSH1 0x0 DUP2 SWAP1 POP SWAP2 SWAP1 POP JUMP JUMPDEST PUSH2 0x13CC DUP2 PUSH2 0x13B9 JUMP JUMPDEST DUP2 EQ PUSH2 0x13D7 JUMPI PUSH1 0x0 DUP1 REVERT JUMPDEST POP JUMP JUMPDEST PUSH1 0x0 DUP2 CALLDATALOAD SWAP1 POP PUSH2 0x13E9 DUP2 PUSH2 0x13C3 JUMP JUMPDEST SWAP3 SWAP2 POP POP JUMP JUMPDEST PUSH1 0x0 PUSH1 0x20 DUP3 DUP5 SUB SLT ISZERO PUSH2 0x1405 JUMPI PUSH2 0x1404 PUSH2 0x13AF JUMP JUMPDEST JUMPDEST PUSH1 0x0 PUSH2 0x1413 DUP5 DUP3 DUP6 ADD PUSH2 0x13DA JUMP JUMPDEST SWAP2 POP POP SWAP3 SWAP2 POP POP JUMP JUMPDEST PUSH1 0x0 DUP2 MLOAD SWAP1 POP SWAP2 SWAP1 POP JUMP JUMPDEST PUSH1 0x0 DUP3 DUP3 MSTORE PUSH1 0x20 DUP3 ADD SWAP1 POP SWAP3 SWAP2 POP POP JUMP JUMPDEST PUSH1 0x0 JUMPDEST DUP4 DUP2 LT ISZERO PUSH2 0x1456 JUMPI DUP1 DUP3 ADD MLOAD DUP2 DUP5 ADD MSTORE PUSH1 0x20 DUP2 ADD SWAP1 POP PUSH2 0x143B JUMP JUMPDEST PUSH1 0x0 DUP5 DUP5 ADD MSTORE POP POP POP POP JUMP JUMPDEST PUSH1 0x0 PUSH1 0x1F NOT PUSH1 0x1F DUP4 ADD AND SWAP1 POP SWAP2 SWAP1 POP JUMP JUMPDEST PUSH1 0x0 PUSH2 0x147E DUP3 PUSH2 0x141C JUMP JUMPDEST PUSH2 0x1488 DUP2 DUP6 PUSH2 0x1427 JUMP JUMPDEST SWAP4 POP PUSH2 0x1498 DUP2 DUP6 PUSH1 0x20 DUP7 ADD PUSH2 0x1438 JUMP JUMPDEST PUSH2 0x14A1 DUP2 PUSH2 0x1462 JUMP JUMPDEST DUP5 ADD SWAP2 POP POP SWAP3 SWAP2 POP POP JUMP JUMPDEST PUSH2 0x14B5 DUP2 PUSH2 0x13B9 JUMP JUMPDEST DUP3 MSTORE POP POP JUMP JUMPDEST PUSH1 0x0 PUSH1 0x40 DUP3 ADD SWAP1 POP DUP2 DUP2 SUB PUSH1 0x0 DUP4 ADD MSTORE PUSH2 0x14D5 DUP2 DUP6 PUSH2 0x1473 JUMP JUMPDEST SWAP1 POP PUSH2 0x14E4 PUSH1 0x20 DUP4 ADD DUP5 PUSH2 0x14AC JUMP JUMPDEST SWAP4 SWAP3 POP POP POP JUMP JUMPDEST PUSH1 0x0 PUSH20 0xFFFFFFFFFFFFFFFFFFFFFFFFFFFFFFFFFFFFFFFF DUP3 AND SWAP1 POP SWAP2 SWAP1 POP JUMP JUMPDEST PUSH1 0x0 PUSH2 0x1516 DUP3 PUSH2 0x14EB JUMP JUMPDEST SWAP1 POP SWAP2 SWAP1 POP JUMP JUMPDEST PUSH2 0x1526 DUP2 PUSH2 0x150B JUMP JUMPDEST DUP2 EQ PUSH2 0x1531 JUMPI PUSH1 0x0 DUP1 REVERT JUMPDEST POP JUMP JUMPDEST PUSH1 0x0 DUP2 CALLDATALOAD SWAP1 POP PUSH2 0x1543 DUP2 PUSH2 0x151D JUMP JUMPDEST SWAP3 SWAP2 POP POP JUMP JUMPDEST PUSH1 0x0 DUP1 REVERT JUMPDEST PUSH1 0x0 DUP1 REVERT JUMPDEST PUSH32 0x4E487B7100000000000000000000000000000000000000000000000000000000 PUSH1 0x0 MSTORE PUSH1 0x41 PUSH1 0x4 MSTORE PUSH1 0x24 PUSH1 0x0 REVERT JUMPDEST PUSH2 0x158B DUP3 PUSH2 0x1462 JUMP JUMPDEST DUP2 ADD DUP2 DUP2 LT PUSH8 0xFFFFFFFFFFFFFFFF DUP3 GT OR ISZERO PUSH2 0x15AA JUMPI PUSH2 0x15A9 PUSH2 0x1553 JUMP JUMPDEST JUMPDEST DUP1 PUSH1 0x40 MSTORE POP POP POP JUMP JUMPDEST PUSH1 0x0 PUSH2 0x15BD PUSH2 0x13A5 JUMP JUMPDEST SWAP1 POP PUSH2 0x15C9 DUP3 DUP3 PUSH2 0x1582 JUMP JUMPDEST SWAP2 SWAP1 POP JUMP JUMPDEST PUSH1 0x0 PUSH8 0xFFFFFFFFFFFFFFFF DUP3 GT ISZERO PUSH2 0x15E9 JUMPI PUSH2 0x15E8 PUSH2 0x1553 JUMP JUMPDEST JUMPDEST PUSH2 0x15F2 DUP3 PUSH2 0x1462 JUMP JUMPDEST SWAP1 POP PUSH1 0x20 DUP2 ADD SWAP1 POP SWAP2 SWAP1 POP JUMP JUMPDEST DUP3 DUP2 DUP4 CALLDATACOPY PUSH1 0x0 DUP4 DUP4 ADD MSTORE POP POP POP JUMP JUMPDEST PUSH1 0x0 PUSH2 0x1621 PUSH2 0x161C DUP5 PUSH2 0x15CE JUMP JUMPDEST PUSH2 0x15B3 JUMP JUMPDEST SWAP1 POP DUP3 DUP2 MSTORE PUSH1 0x20 DUP2 ADD DUP5 DUP5 DUP5 ADD GT ISZERO PUSH2 0x163D JUMPI PUSH2 0x163C PUSH2 0x154E JUMP JUMPDEST JUMPDEST PUSH2 0x1648 DUP5 DUP3 DUP6 PUSH2 0x15FF JUMP JUMPDEST POP SWAP4 SWAP3 POP POP POP JUMP JUMPDEST PUSH1 0x0 DUP3 PUSH1 0x1F DUP4 ADD SLT PUSH2 0x1665 JUMPI PUSH2 0x1664 PUSH2 0x1549 JUMP JUMPDEST JUMPDEST DUP2 CALLDATALOAD PUSH2 0x1675 DUP5 DUP3 PUSH1 0x20 DUP7 ADD PUSH2 0x160E JUMP JUMPDEST SWAP2 POP POP SWAP3 SWAP2 POP POP JUMP JUMPDEST PUSH1 0x0 DUP1 PUSH1 0x40 DUP4 DUP6 SUB SLT ISZERO PUSH2 0x1695 JUMPI PUSH2 0x1694 PUSH2 0x13AF JUMP JUMPDEST JUMPDEST PUSH1 0x0 PUSH2 0x16A3 DUP6 DUP3 DUP7 ADD PUSH2 0x1534 JUMP JUMPDEST SWAP3 POP POP PUSH1 0x20 DUP4 ADD CALLDATALOAD PUSH8 0xFFFFFFFFFFFFFFFF DUP2 GT ISZERO PUSH2 0x16C4 JUMPI PUSH2 0x16C3 PUSH2 0x13B4 JUMP JUMPDEST JUMPDEST PUSH2 0x16D0 DUP6 DUP3 DUP7 ADD PUSH2 0x1650 JUMP JUMPDEST SWAP2 POP POP SWAP3 POP SWAP3 SWAP1 POP JUMP JUMPDEST PUSH2 0x16E3 DUP2 PUSH2 0x150B JUMP JUMPDEST DUP3 MSTORE POP POP JUMP JUMPDEST PUSH1 0x0 PUSH1 0x20 DUP3 ADD SWAP1 POP PUSH2 0x16FE PUSH1 0x0 DUP4 ADD DUP5 PUSH2 0x16DA JUMP JUMPDEST SWAP3 SWAP2 POP POP JUMP JUMPDEST PUSH1 0x0 PUSH1 0x20 DUP3 DUP5 SUB SLT ISZERO PUSH2 0x171A JUMPI PUSH2 0x1719 PUSH2 0x13AF JUMP JUMPDEST JUMPDEST PUSH1 0x0 PUSH2 0x1728 DUP5 DUP3 DUP6 ADD PUSH2 0x1534 JUMP JUMPDEST SWAP2 POP POP SWAP3 SWAP2 POP POP JUMP JUMPDEST PUSH1 0x0 DUP1 PUSH1 0x40 DUP4 DUP6 SUB SLT ISZERO PUSH2 0x1748 JUMPI PUSH2 0x1747 PUSH2 0x13AF JUMP JUMPDEST JUMPDEST PUSH1 0x0 PUSH2 0x1756 DUP6 DUP3 DUP7 ADD PUSH2 0x1534 JUMP JUMPDEST SWAP3 POP POP PUSH1 0x20 PUSH2 0x1767 DUP6 DUP3 DUP7 ADD PUSH2 0x13DA JUMP JUMPDEST SWAP2 POP POP SWAP3 POP SWAP3 SWAP1 POP JUMP JUMPDEST PUSH1 0x0 DUP2 ISZERO ISZERO SWAP1 POP SWAP2 SWAP1 POP JUMP JUMPDEST PUSH2 0x1786 DUP2 PUSH2 0x1771 JUMP JUMPDEST DUP3 MSTORE POP POP JUMP JUMPDEST PUSH1 0x0 PUSH1 0x60 DUP3 ADD SWAP1 POP PUSH2 0x17A1 PUSH1 0x0 DUP4 ADD DUP7 PUSH2 0x177D JUMP JUMPDEST PUSH2 0x17AE PUSH1 0x20 DUP4 ADD DUP6 PUSH2 0x177D JUMP JUMPDEST PUSH2 0x17BB PUSH1 0x40 DUP4 ADD DUP5 PUSH2 0x14AC JUMP JUMPDEST SWAP5 SWAP4 POP POP POP POP JUMP JUMPDEST PUSH1 0x0 DUP2 MLOAD SWAP1 POP SWAP2 SWAP1 POP JUMP JUMPDEST PUSH1 0x0 DUP3 DUP3 MSTORE PUSH1 0x20 DUP3 ADD SWAP1 POP SWAP3 SWAP2 POP POP JUMP JUMPDEST PUSH1 0x0 DUP2 SWAP1 POP PUSH1 0x20 DUP3 ADD SWAP1 POP SWAP2 SWAP1 POP JUMP JUMPDEST PUSH2 0x17F8 DUP2 PUSH2 0x13B9 JUMP JUMPDEST DUP3 MSTORE POP POP JUMP JUMPDEST PUSH1 0x0 PUSH2 0x180A DUP4 DUP4 PUSH2 0x17EF JUMP JUMPDEST PUSH1 0x20 DUP4 ADD SWAP1 POP SWAP3 SWAP2 POP POP JUMP JUMPDEST PUSH1 0x0 PUSH1 0x20 DUP3 ADD SWAP1 POP SWAP2 SWAP1 POP JUMP JUMPDEST PUSH1 0x0 PUSH2 0x182E DUP3 PUSH2 0x17C3 JUMP JUMPDEST PUSH2 0x1838 DUP2 DUP6 PUSH2 0x17CE JUMP JUMPDEST SWAP4 POP PUSH2 0x1843 DUP4 PUSH2 0x17DF JUMP JUMPDEST DUP1 PUSH1 0x0 JUMPDEST DUP4 DUP2 LT ISZERO PUSH2 0x1874 JUMPI DUP2 MLOAD PUSH2 0x185B DUP9 DUP3 PUSH2 0x17FE JUMP JUMPDEST SWAP8 POP PUSH2 0x1866 DUP4 PUSH2 0x1816 JUMP JUMPDEST SWAP3 POP POP PUSH1 0x1 DUP2 ADD SWAP1 POP PUSH2 0x1847 JUMP JUMPDEST POP DUP6 SWAP4 POP POP POP POP SWAP3 SWAP2 POP POP JUMP JUMPDEST PUSH1 0x0 PUSH1 0x20 DUP3 ADD SWAP1 POP DUP2 DUP2 SUB PUSH1 0x0 DUP4 ADD MSTORE PUSH2 0x189B DUP2 DUP5 PUSH2 0x1823 JUMP JUMPDEST SWAP1 POP SWAP3 SWAP2 POP POP JUMP JUMPDEST PUSH1 0x0 PUSH1 0x20 DUP3 ADD SWAP1 POP PUSH2 0x18B8 PUSH1 0x0 DUP4 ADD DUP5 PUSH2 0x14AC JUMP JUMPDEST SWAP3 SWAP2 POP POP JUMP JUMPDEST PUSH1 0x0 DUP3 DUP3 MSTORE PUSH1 0x20 DUP3 ADD SWAP1 POP SWAP3 SWAP2 POP POP JUMP JUMPDEST PUSH1 0x0 PUSH2 0x18DA DUP3 PUSH2 0x141C JUMP JUMPDEST PUSH2 0x18E4 DUP2 DUP6 PUSH2 0x18BE JUMP JUMPDEST SWAP4 POP PUSH2 0x18F4 DUP2 DUP6 PUSH1 0x20 DUP7 ADD PUSH2 0x1438 JUMP JUMPDEST PUSH2 0x18FD DUP2 PUSH2 0x1462 JUMP JUMPDEST DUP5 ADD SWAP2 POP POP SWAP3 SWAP2 POP POP JUMP JUMPDEST PUSH1 0x0 PUSH1 0x40 DUP4 ADD PUSH1 0x0 DUP4 ADD MLOAD DUP5 DUP3 SUB PUSH1 0x0 DUP7 ADD MSTORE PUSH2 0x1925 DUP3 DUP3 PUSH2 0x18CF JUMP JUMPDEST SWAP2 POP POP PUSH1 0x20 DUP4 ADD MLOAD PUSH2 0x193A PUSH1 0x20 DUP7 ADD DUP3 PUSH2 0x17EF JUMP JUMPDEST POP DUP1 SWAP2 POP POP SWAP3 SWAP2 POP POP JUMP JUMPDEST PUSH1 0x0 PUSH1 0x20 DUP3 ADD SWAP1 POP DUP2 DUP2 SUB PUSH1 0x0 DUP4 ADD MSTORE PUSH2 0x195F DUP2 DUP5 PUSH2 0x1908 JUMP JUMPDEST SWAP1 POP SWAP3 SWAP2 POP POP JUMP JUMPDEST PUSH1 0x0 DUP2 MLOAD SWAP1 POP SWAP2 SWAP1 POP JUMP JUMPDEST PUSH1 0x0 DUP3 DUP3 MSTORE PUSH1 0x20 DUP3 ADD SWAP1 POP SWAP3 SWAP2 POP POP JUMP JUMPDEST PUSH1 0x0 DUP2 SWAP1 POP PUSH1 0x20 DUP3 ADD SWAP1 POP SWAP2 SWAP1 POP JUMP JUMPDEST PUSH1 0x0 PUSH1 0x40 DUP4 ADD PUSH1 0x0 DUP4 ADD MLOAD DUP5 DUP3 SUB PUSH1 0x0 DUP7 ADD MSTORE PUSH2 0x19B0 DUP3 DUP3 PUSH2 0x18CF JUMP JUMPDEST SWAP2 POP POP PUSH1 0x20 DUP4 ADD MLOAD PUSH2 0x19C5 PUSH1 0x20 DUP7 ADD DUP3 PUSH2 0x17EF JUMP JUMPDEST POP DUP1 SWAP2 POP POP SWAP3 SWAP2 POP POP JUMP JUMPDEST PUSH1 0x0 PUSH2 0x19DC DUP4 DUP4 PUSH2 0x1993 JUMP JUMPDEST SWAP1 POP SWAP3 SWAP2 POP POP JUMP JUMPDEST PUSH1 0x0 PUSH1 0x20 DUP3 ADD SWAP1 POP SWAP2 SWAP1 POP JUMP JUMPDEST PUSH1 0x0 PUSH2 0x19FC DUP3 PUSH2 0x1967 JUMP JUMPDEST PUSH2 0x1A06 DUP2 DUP6 PUSH2 0x1972 JUMP JUMPDEST SWAP4 POP DUP4 PUSH1 0x20 DUP3 MUL DUP6 ADD PUSH2 0x1A18 DUP6 PUSH2 0x1983 JUMP JUMPDEST DUP1 PUSH1 0x0 JUMPDEST DUP6 DUP2 LT ISZERO PUSH2 0x1A54 JUMPI DUP5 DUP5 SUB DUP10 MSTORE DUP2 MLOAD PUSH2 0x1A35 DUP6 DUP3 PUSH2 0x19D0 JUMP JUMPDEST SWAP5 POP PUSH2 0x1A40 DUP4 PUSH2 0x19E4 JUMP JUMPDEST SWAP3 POP PUSH1 0x20 DUP11 ADD SWAP10 POP POP PUSH1 0x1 DUP2 ADD SWAP1 POP PUSH2 0x1A1C JUMP JUMPDEST POP DUP3 SWAP8 POP DUP8 SWAP6 POP POP POP POP POP POP SWAP3 SWAP2 POP POP JUMP JUMPDEST PUSH1 0x0 PUSH1 0x20 DUP3 ADD SWAP1 POP DUP2 DUP2 SUB PUSH1 0x0 DUP4 ADD MSTORE PUSH2 0x1A80 DUP2 DUP5 PUSH2 0x19F1 JUMP JUMPDEST SWAP1 POP SWAP3 SWAP2 POP POP JUMP JUMPDEST PUSH32 0x4E487B7100000000000000000000000000000000000000000000000000000000 PUSH1 0x0 MSTORE PUSH1 0x22 PUSH1 0x4 MSTORE PUSH1 0x24 PUSH1 0x0 REVERT JUMPDEST PUSH1 0x0 PUSH1 0x2 DUP3 DIV SWAP1 POP PUSH1 0x1 DUP3 AND DUP1 PUSH2 0x1ACF JUMPI PUSH1 0x7F DUP3 AND SWAP2 POP JUMPDEST PUSH1 0x20 DUP3 LT DUP2 SUB PUSH2 0x1AE2 JUMPI PUSH2 0x1AE1 PUSH2 0x1A88 JUMP JUMPDEST JUMPDEST POP SWAP2 SWAP1 POP JUMP JUMPDEST PUSH32 0x4E487B7100000000000000000000000000000000000000000000000000000000 PUSH1 0x0 MSTORE PUSH1 0x21 PUSH1 0x4 MSTORE PUSH1 0x24 PUSH1 0x0 REVERT JUMPDEST PUSH32 0x53746174757320666F7220726567697374726174696F6E2069732077726F6E67 PUSH1 0x0 DUP3 ADD MSTORE POP JUMP JUMPDEST PUSH1 0x0 PUSH2 0x1B4D PUSH1 0x20 DUP4 PUSH2 0x1427 JUMP JUMPDEST SWAP2 POP PUSH2 0x1B58 DUP3 PUSH2 0x1B17 JUMP JUMPDEST PUSH1 0x20 DUP3 ADD SWAP1 POP SWAP2 SWAP1 POP JUMP JUMPDEST PUSH1 0x0 PUSH1 0x20 DUP3 ADD SWAP1 POP DUP2 DUP2 SUB PUSH1 0x0 DUP4 ADD MSTORE PUSH2 0x1B7C DUP2 PUSH2 0x1B40 JUMP JUMPDEST SWAP1 POP SWAP2 SWAP1 POP JUMP JUMPDEST PUSH32 0x41646472657373206973206E6F7420696E2077697468656C6973740000000000 PUSH1 0x0 DUP3 ADD MSTORE POP JUMP JUMPDEST PUSH1 0x0 PUSH2 0x1BB9 PUSH1 0x1B DUP4 PUSH2 0x1427 JUMP JUMPDEST SWAP2 POP PUSH2 0x1BC4 DUP3 PUSH2 0x1B83 JUMP JUMPDEST PUSH1 0x20 DUP3 ADD SWAP1 POP SWAP2 SWAP1 POP JUMP JUMPDEST PUSH1 0x0 PUSH1 0x20 DUP3 ADD SWAP1 POP DUP2 DUP2 SUB PUSH1 0x0 DUP4 ADD MSTORE PUSH2 0x1BE8 DUP2 PUSH2 0x1BAC JUMP JUMPDEST SWAP1 POP SWAP2 SWAP1 POP JUMP JUMPDEST PUSH1 0x0 DUP2 SWAP1 POP DUP2 PUSH1 0x0 MSTORE PUSH1 0x20 PUSH1 0x0 KECCAK256 SWAP1 POP SWAP2 SWAP1 POP JUMP JUMPDEST PUSH1 0x0 PUSH1 0x20 PUSH1 0x1F DUP4 ADD DIV SWAP1 POP SWAP2 SWAP1 POP JUMP JUMPDEST PUSH1 0x0 DUP3 DUP3 SHL SWAP1 POP SWAP3 SWAP2 POP POP JUMP JUMPDEST PUSH1 0x0 PUSH1 0x8 DUP4 MUL PUSH2 0x1C51 PUSH32 0xFFFFFFFFFFFFFFFFFFFFFFFFFFFFFFFFFFFFFFFFFFFFFFFFFFFFFFFFFFFFFFFF DUP3 PUSH2 0x1C14 JUMP JUMPDEST PUSH2 0x1C5B DUP7 DUP4 PUSH2 0x1C14 JUMP JUMPDEST SWAP6 POP DUP1 NOT DUP5 AND SWAP4 POP DUP1 DUP7 AND DUP5 OR SWAP3 POP POP POP SWAP4 SWAP3 POP POP POP JUMP JUMPDEST PUSH1 0x0 DUP2 SWAP1 POP SWAP2 SWAP1 POP JUMP JUMPDEST PUSH1 0x0 PUSH2 0x1C98 PUSH2 0x1C93 PUSH2 0x1C8E DUP5 PUSH2 0x13B9 JUMP JUMPDEST PUSH2 0x1C73 JUMP JUMPDEST PUSH2 0x13B9 JUMP JUMPDEST SWAP1 POP SWAP2 SWAP1 POP JUMP JUMPDEST PUSH1 0x0 DUP2 SWAP1 POP SWAP2 SWAP1 POP JUMP JUMPDEST PUSH2 0x1CB2 DUP4 PUSH2 0x1C7D JUMP JUMPDEST PUSH2 0x1CC6 PUSH2 0x1CBE DUP3 PUSH2 0x1C9F JUMP JUMPDEST DUP5 DUP5 SLOAD PUSH2 0x1C21 JUMP JUMPDEST DUP3 SSTORE POP POP POP POP JUMP JUMPDEST PUSH1 0x0 SWAP1 JUMP JUMPDEST PUSH2 0x1CDB PUSH2 0x1CCE JUMP JUMPDEST PUSH2 0x1CE6 DUP2 DUP5 DUP5 PUSH2 0x1CA9 JUMP JUMPDEST POP POP POP JUMP JUMPDEST JUMPDEST DUP2 DUP2 LT ISZERO PUSH2 0x1D0A JUMPI PUSH2 0x1CFF PUSH1 0x0 DUP3 PUSH2 0x1CD3 JUMP JUMPDEST PUSH1 0x1 DUP2 ADD SWAP1 POP PUSH2 0x1CEC JUMP JUMPDEST POP POP JUMP JUMPDEST PUSH1 0x1F DUP3 GT ISZERO PUSH2 0x1D4F JUMPI PUSH2 0x1D20 DUP2 PUSH2 0x1BEF JUMP JUMPDEST PUSH2 0x1D29 DUP5 PUSH2 0x1C04 JUMP JUMPDEST DUP2 ADD PUSH1 0x20 DUP6 LT ISZERO PUSH2 0x1D38 JUMPI DUP2 SWAP1 POP JUMPDEST PUSH2 0x1D4C PUSH2 0x1D44 DUP6 PUSH2 0x1C04 JUMP JUMPDEST DUP4 ADD DUP3 PUSH2 0x1CEB JUMP JUMPDEST POP POP JUMPDEST POP POP POP JUMP JUMPDEST PUSH1 0x0 DUP3 DUP3 SHR SWAP1 POP SWAP3 SWAP2 POP POP JUMP JUMPDEST PUSH1 0x0 PUSH2 0x1D72 PUSH1 0x0 NOT DUP5 PUSH1 0x8 MUL PUSH2 0x1D54 JUMP JUMPDEST NOT DUP1 DUP4 AND SWAP2 POP POP SWAP3 SWAP2 POP POP JUMP JUMPDEST PUSH1 0x0 PUSH2 0x1D8B DUP4 DUP4 PUSH2 0x1D61 JUMP JUMPDEST SWAP2 POP DUP3 PUSH1 0x2 MUL DUP3 OR SWAP1 POP SWAP3 SWAP2 POP POP JUMP JUMPDEST PUSH2 0x1DA4 DUP3 PUSH2 0x141C JUMP JUMPDEST PUSH8 0xFFFFFFFFFFFFFFFF DUP2 GT ISZERO PUSH2 0x1DBD JUMPI PUSH2 0x1DBC PUSH2 0x1553 JUMP JUMPDEST JUMPDEST PUSH2 0x1DC7 DUP3 SLOAD PUSH2 0x1AB7 JUMP JUMPDEST PUSH2 0x1DD2 DUP3 DUP3 DUP6 PUSH2 0x1D0E JUMP JUMPDEST PUSH1 0x0 PUSH1 0x20 SWAP1 POP PUSH1 0x1F DUP4 GT PUSH1 0x1 DUP2 EQ PUSH2 0x1E05 JUMPI PUSH1 0x0 DUP5 ISZERO PUSH2 0x1DF3 JUMPI DUP3 DUP8 ADD MLOAD SWAP1 POP JUMPDEST PUSH2 0x1DFD DUP6 DUP3 PUSH2 0x1D7F JUMP JUMPDEST DUP7 SSTORE POP PUSH2 0x1E65 JUMP JUMPDEST PUSH1 0x1F NOT DUP5 AND PUSH2 0x1E13 DUP7 PUSH2 0x1BEF JUMP JUMPDEST PUSH1 0x0 JUMPDEST DUP3 DUP2 LT ISZERO PUSH2 0x1E3B JUMPI DUP5 DUP10 ADD MLOAD DUP3 SSTORE PUSH1 0x1 DUP3 ADD SWAP2 POP PUSH1 0x20 DUP6 ADD SWAP5 POP PUSH1 0x20 DUP2 ADD SWAP1 POP PUSH2 0x1E16 JUMP JUMPDEST DUP7 DUP4 LT ISZERO PUSH2 0x1E58 JUMPI DUP5 DUP10 ADD MLOAD PUSH2 0x1E54 PUSH1 0x1F DUP10 AND DUP3 PUSH2 0x1D61 JUMP JUMPDEST DUP4 SSTORE POP JUMPDEST PUSH1 0x1 PUSH1 0x2 DUP9 MUL ADD DUP9 SSTORE POP POP POP JUMPDEST POP POP POP POP POP POP JUMP JUMPDEST PUSH32 0x4E487B7100000000000000000000000000000000000000000000000000000000 PUSH1 0x0 MSTORE PUSH1 0x11 PUSH1 0x4 MSTORE PUSH1 0x24 PUSH1 0x0 REVERT JUMPDEST PUSH1 0x0 PUSH2 0x1EA7 DUP3 PUSH2 0x13B9 JUMP JUMPDEST SWAP2 POP PUSH2 0x1EB2 DUP4 PUSH2 0x13B9 JUMP JUMPDEST SWAP3 POP DUP3 DUP3 SUB SWAP1 POP DUP2 DUP2 GT ISZERO PUSH2 0x1ECA JUMPI PUSH2 0x1EC9 PUSH2 0x1E6D JUMP JUMPDEST JUMPDEST SWAP3 SWAP2 POP POP JUMP JUMPDEST PUSH32 0x54686973206164647265737320697320616C72656164792077686974656C6973 PUSH1 0x0 DUP3 ADD MSTORE PUSH32 0x7465642021000000000000000000000000000000000000000000000000000000 PUSH1 0x20 DUP3 ADD MSTORE POP JUMP JUMPDEST PUSH1 0x0 PUSH2 0x1F2C PUSH1 0x25 DUP4 PUSH2 0x1427 JUMP JUMPDEST SWAP2 POP PUSH2 0x1F37 DUP3 PUSH2 0x1ED0 JUMP JUMPDEST PUSH1 0x40 DUP3 ADD SWAP1 POP SWAP2 SWAP1 POP JUMP JUMPDEST PUSH1 0x0 PUSH1 0x20 DUP3 ADD SWAP1 POP DUP2 DUP2 SUB PUSH1 0x0 DUP4 ADD MSTORE PUSH2 0x1F5B DUP2 PUSH2 0x1F1F JUMP JUMPDEST SWAP1 POP SWAP2 SWAP1 POP JUMP JUMPDEST PUSH32 0x596F752063616E6E6F74207472616E7366657220746F20746865206164647265 PUSH1 0x0 DUP3 ADD MSTORE PUSH32 0x7373207A65726F00000000000000000000000000000000000000000000000000 PUSH1 0x20 DUP3 ADD MSTORE POP JUMP JUMPDEST PUSH1 0x0 PUSH2 0x1FBE PUSH1 0x27 DUP4 PUSH2 0x1427 JUMP JUMPDEST SWAP2 POP PUSH2 0x1FC9 DUP3 PUSH2 0x1F62 JUMP JUMPDEST PUSH1 0x40 DUP3 ADD SWAP1 POP SWAP2 SWAP1 POP JUMP JUMPDEST PUSH1 0x0 PUSH1 0x20 DUP3 ADD SWAP1 POP DUP2 DUP2 SUB PUSH1 0x0 DUP4 ADD MSTORE PUSH2 0x1FED DUP2 PUSH2 0x1FB1 JUMP JUMPDEST SWAP1 POP SWAP2 SWAP1 POP JUMP JUMPDEST PUSH32 0x5374617475732069732077726F6E670000000000000000000000000000000000 PUSH1 0x0 DUP3 ADD MSTORE POP JUMP JUMPDEST PUSH1 0x0 PUSH2 0x202A PUSH1 0xF DUP4 PUSH2 0x1427 JUMP JUMPDEST SWAP2 POP PUSH2 0x2035 DUP3 PUSH2 0x1FF4 JUMP JUMPDEST PUSH1 0x20 DUP3 ADD SWAP1 POP SWAP2 SWAP1 POP JUMP JUMPDEST PUSH1 0x0 PUSH1 0x20 DUP3 ADD SWAP1 POP DUP2 DUP2 SUB PUSH1 0x0 DUP4 ADD MSTORE PUSH2 0x2059 DUP2 PUSH2 0x201D JUMP JUMPDEST SWAP1 POP SWAP2 SWAP1 POP JUMP JUMPDEST PUSH32 0x53746174757320666F7220766F74696E672069732077726F6E67000000000000 PUSH1 0x0 DUP3 ADD MSTORE POP JUMP JUMPDEST PUSH1 0x0 PUSH2 0x2096 PUSH1 0x1A DUP4 PUSH2 0x1427 JUMP JUMPDEST SWAP2 POP PUSH2 0x20A1 DUP3 PUSH2 0x2060 JUMP JUMPDEST PUSH1 0x20 DUP3 ADD SWAP1 POP SWAP2 SWAP1 POP JUMP JUMPDEST PUSH1 0x0 PUSH1 0x20 DUP3 ADD SWAP1 POP DUP2 DUP2 SUB PUSH1 0x0 DUP4 ADD MSTORE PUSH2 0x20C5 DUP2 PUSH2 0x2089 JUMP JUMPDEST SWAP1 POP SWAP2 SWAP1 POP JUMP JUMPDEST PUSH32 0x557365722068617320616C726561647920766F74656400000000000000000000 PUSH1 0x0 DUP3 ADD MSTORE POP JUMP JUMPDEST PUSH1 0x0 PUSH2 0x2102 PUSH1 0x16 DUP4 PUSH2 0x1427 JUMP JUMPDEST SWAP2 POP PUSH2 0x210D DUP3 PUSH2 0x20CC JUMP JUMPDEST PUSH1 0x20 DUP3 ADD SWAP1 POP SWAP2 SWAP1 POP JUMP JUMPDEST PUSH1 0x0 PUSH1 0x20 DUP3 ADD SWAP1 POP DUP2 DUP2 SUB PUSH1 0x0 DUP4 ADD MSTORE PUSH2 0x2131 DUP2 PUSH2 0x20F5 JUMP JUMPDEST SWAP1 POP SWAP2 SWAP1 POP JUMP JUMPDEST PUSH32 0x4E487B7100000000000000000000000000000000000000000000000000000000 PUSH1 0x0 MSTORE PUSH1 0x32 PUSH1 0x4 MSTORE PUSH1 0x24 PUSH1 0x0 REVERT JUMPDEST PUSH1 0x0 PUSH2 0x2172 DUP3 PUSH2 0x13B9 JUMP JUMPDEST SWAP2 POP PUSH32 0xFFFFFFFFFFFFFFFFFFFFFFFFFFFFFFFFFFFFFFFFFFFFFFFFFFFFFFFFFFFFFFFF DUP3 SUB PUSH2 0x21A4 JUMPI PUSH2 0x21A3 PUSH2 0x1E6D JUMP JUMPDEST JUMPDEST PUSH1 0x1 DUP3 ADD SWAP1 POP SWAP2 SWAP1 POP JUMP JUMPDEST PUSH1 0x0 PUSH1 0x40 DUP3 ADD SWAP1 POP PUSH2 0x21C4 PUSH1 0x0 DUP4 ADD DUP6 PUSH2 0x16DA JUMP JUMPDEST PUSH2 0x21D1 PUSH1 0x20 DUP4 ADD DUP5 PUSH2 0x14AC JUMP JUMPDEST SWAP4 SWAP3 POP POP POP JUMP JUMPDEST PUSH32 0x4F776E61626C653A206E6577206F776E657220697320746865207A65726F2061 PUSH1 0x0 DUP3 ADD MSTORE PUSH32 0x6464726573730000000000000000000000000000000000000000000000000000 PUSH1 0x20 DUP3 ADD MSTORE POP JUMP JUMPDEST PUSH1 0x0 PUSH2 0x2234 PUSH1 0x26 DUP4 PUSH2 0x1427 JUMP JUMPDEST SWAP2 POP PUSH2 0x223F DUP3 PUSH2 0x21D8 JUMP JUMPDEST PUSH1 0x40 DUP3 ADD SWAP1 POP SWAP2 SWAP1 POP JUMP JUMPDEST PUSH1 0x0 PUSH1 0x20 DUP3 ADD SWAP1 POP DUP2 DUP2 SUB PUSH1 0x0 DUP4 ADD MSTORE PUSH2 0x2263 DUP2 PUSH2 0x2227 JUMP JUMPDEST SWAP1 POP SWAP2 SWAP1 POP JUMP JUMPDEST PUSH32 0x4F776E61626C653A2063616C6C6572206973206E6F7420746865206F776E6572 PUSH1 0x0 DUP3 ADD MSTORE POP JUMP JUMPDEST PUSH1 0x0 PUSH2 0x22A0 PUSH1 0x20 DUP4 PUSH2 0x1427 JUMP JUMPDEST SWAP2 POP PUSH2 0x22AB DUP3 PUSH2 0x226A JUMP JUMPDEST PUSH1 0x20 DUP3 ADD SWAP1 POP SWAP2 SWAP1 POP JUMP JUMPDEST PUSH1 0x0 PUSH1 0x20 DUP3 ADD SWAP1 POP DUP2 DUP2 SUB PUSH1 0x0 DUP4 ADD MSTORE PUSH2 0x22CF DUP2 PUSH2 0x2293 JUMP JUMPDEST SWAP1 POP SWAP2 SWAP1 POP JUMP INVALID LOG2 PUSH5 0x6970667358 0x22 SLT KECCAK256 0xE2 0x5C PUSH30 0x27F8DB52DBFDC4666AB055CABCB65818B4E79CC4FCEFD511FD18422C5164 PUSH20 0x6F6C634300081100330000000000000000000000 "
		},
		"gasEstimates": {
			"creation": {
				"codeDepositCost": "1794400",
				"executionCost": "infinite",
				"totalCost": "infinite"
			},
			"external": {
				"GetProposalIds(address)": "infinite",
				"GetProposals()": "infinite",
				"ProposalsRegistrationEndedStatus()": "26718",
				"ProposalsRegistrationStartedStatus()": "26806",
				"RegisterProposal(address,string)": "infinite",
				"RegisteringVotersStatus()": "26807",
				"TallyVote()": "infinite",
				"VoteSession(address,uint256)": "infinite",
				"VotesTalliedStatus()": "26740",
				"VotingSessionEndedStatus()": "26741",
				"VotingSessionStartedStatus()": "26785",
				"WinningProposal(address)": "infinite",
				"owner()": "2611",
				"proposalIds(address,uint256)": "infinite",
				"proposals(uint256)": "infinite",
				"renounceOwnership()": "30465",
				"transferOwnership(address)": "30832",
				"voters(address)": "infinite",
				"whitelist(address)": "infinite",
				"winningProposalId()": "2540"
			}
		},
		"methodIdentifiers": {
			"GetProposalIds(address)": "c36053e5",
			"GetProposals()": "f7c57ad7",
			"ProposalsRegistrationEndedStatus()": "6a6fa0a8",
			"ProposalsRegistrationStartedStatus()": "8ff10811",
			"RegisterProposal(address,string)": "167dfc5e",
			"RegisteringVotersStatus()": "4f33f73d",
			"TallyVote()": "d1394ce4",
			"VoteSession(address,uint256)": "9e9fd7a8",
			"VotesTalliedStatus()": "6c97120d",
			"VotingSessionEndedStatus()": "08f3d195",
			"VotingSessionStartedStatus()": "49d0faa1",
			"WinningProposal(address)": "d728daaa",
			"owner()": "8da5cb5b",
			"proposalIds(address,uint256)": "e1a3ca17",
			"proposals(uint256)": "013cf08b",
			"renounceOwnership()": "715018a6",
			"transferOwnership(address)": "f2fde38b",
			"voters(address)": "a3ec138d",
			"whitelist(address)": "9b19251a",
			"winningProposalId()": "c64963c5"
		}
	},
	"abi": [
		{
			"anonymous": false,
			"inputs": [
				{
					"indexed": true,
					"internalType": "address",
					"name": "previousOwner",
					"type": "address"
				},
				{
					"indexed": true,
					"internalType": "address",
					"name": "newOwner",
					"type": "address"
				}
			],
			"name": "OwnershipTransferred",
			"type": "event"
		},
		{
			"anonymous": false,
			"inputs": [
				{
					"indexed": false,
					"internalType": "uint256",
					"name": "proposalId",
					"type": "uint256"
				}
			],
			"name": "ProposalRegistered",
			"type": "event"
		},
		{
			"anonymous": false,
			"inputs": [
				{
					"indexed": false,
					"internalType": "address",
					"name": "voter",
					"type": "address"
				},
				{
					"indexed": false,
					"internalType": "uint256",
					"name": "proposalId",
					"type": "uint256"
				}
			],
			"name": "Voted",
			"type": "event"
		},
		{
			"anonymous": false,
			"inputs": [
				{
					"indexed": false,
					"internalType": "address",
					"name": "voterAddress",
					"type": "address"
				}
			],
			"name": "VoterRegistered",
			"type": "event"
		},
		{
			"anonymous": false,
			"inputs": [
				{
					"indexed": false,
					"internalType": "enum Voting.WorkflowStatus",
					"name": "previousStatus",
					"type": "uint8"
				},
				{
					"indexed": false,
					"internalType": "enum Voting.WorkflowStatus",
					"name": "newStatus",
					"type": "uint8"
				}
			],
			"name": "WorkflowStatusChange",
			"type": "event"
		},
		{
			"inputs": [
				{
					"internalType": "address",
					"name": "_address",
					"type": "address"
				}
			],
			"name": "GetProposalIds",
			"outputs": [
				{
					"internalType": "uint256[]",
					"name": "",
					"type": "uint256[]"
				}
			],
			"stateMutability": "view",
			"type": "function"
		},
		{
			"inputs": [],
			"name": "GetProposals",
			"outputs": [
				{
					"components": [
						{
							"internalType": "string",
							"name": "description",
							"type": "string"
						},
						{
							"internalType": "uint256",
							"name": "voteCount",
							"type": "uint256"
						}
					],
					"internalType": "struct Voting.Proposal[]",
					"name": "",
					"type": "tuple[]"
				}
			],
			"stateMutability": "view",
			"type": "function"
		},
		{
			"inputs": [],
			"name": "ProposalsRegistrationEndedStatus",
			"outputs": [],
			"stateMutability": "nonpayable",
			"type": "function"
		},
		{
			"inputs": [],
			"name": "ProposalsRegistrationStartedStatus",
			"outputs": [],
			"stateMutability": "nonpayable",
			"type": "function"
		},
		{
			"inputs": [
				{
					"internalType": "address",
					"name": "voterAddress",
					"type": "address"
				},
				{
					"internalType": "string",
					"name": "description",
					"type": "string"
				}
			],
			"name": "RegisterProposal",
			"outputs": [],
			"stateMutability": "nonpayable",
			"type": "function"
		},
		{
			"inputs": [],
			"name": "RegisteringVotersStatus",
			"outputs": [],
			"stateMutability": "nonpayable",
			"type": "function"
		},
		{
			"inputs": [],
			"name": "TallyVote",
			"outputs": [
				{
					"internalType": "uint256",
					"name": "",
					"type": "uint256"
				}
			],
			"stateMutability": "nonpayable",
			"type": "function"
		},
		{
			"inputs": [
				{
					"internalType": "address",
					"name": "voterAddress",
					"type": "address"
				},
				{
					"internalType": "uint256",
					"name": "_proposalId",
					"type": "uint256"
				}
			],
			"name": "VoteSession",
			"outputs": [],
			"stateMutability": "nonpayable",
			"type": "function"
		},
		{
			"inputs": [],
			"name": "VotesTalliedStatus",
			"outputs": [],
			"stateMutability": "nonpayable",
			"type": "function"
		},
		{
			"inputs": [],
			"name": "VotingSessionEndedStatus",
			"outputs": [],
			"stateMutability": "nonpayable",
			"type": "function"
		},
		{
			"inputs": [],
			"name": "VotingSessionStartedStatus",
			"outputs": [],
			"stateMutability": "nonpayable",
			"type": "function"
		},
		{
			"inputs": [
				{
					"internalType": "address",
					"name": "_address",
					"type": "address"
				}
			],
			"name": "WinningProposal",
			"outputs": [
				{
					"components": [
						{
							"internalType": "string",
							"name": "description",
							"type": "string"
						},
						{
							"internalType": "uint256",
							"name": "voteCount",
							"type": "uint256"
						}
					],
					"internalType": "struct Voting.Proposal",
					"name": "",
					"type": "tuple"
				}
			],
			"stateMutability": "view",
			"type": "function"
		},
		{
			"inputs": [],
			"name": "owner",
			"outputs": [
				{
					"internalType": "address",
					"name": "",
					"type": "address"
				}
			],
			"stateMutability": "view",
			"type": "function"
		},
		{
			"inputs": [
				{
					"internalType": "address",
					"name": "",
					"type": "address"
				},
				{
					"internalType": "uint256",
					"name": "",
					"type": "uint256"
				}
			],
			"name": "proposalIds",
			"outputs": [
				{
					"internalType": "uint256",
					"name": "",
					"type": "uint256"
				}
			],
			"stateMutability": "view",
			"type": "function"
		},
		{
			"inputs": [
				{
					"internalType": "uint256",
					"name": "",
					"type": "uint256"
				}
			],
			"name": "proposals",
			"outputs": [
				{
					"internalType": "string",
					"name": "description",
					"type": "string"
				},
				{
					"internalType": "uint256",
					"name": "voteCount",
					"type": "uint256"
				}
			],
			"stateMutability": "view",
			"type": "function"
		},
		{
			"inputs": [],
			"name": "renounceOwnership",
			"outputs": [],
			"stateMutability": "nonpayable",
			"type": "function"
		},
		{
			"inputs": [
				{
					"internalType": "address",
					"name": "newOwner",
					"type": "address"
				}
			],
			"name": "transferOwnership",
			"outputs": [],
			"stateMutability": "nonpayable",
			"type": "function"
		},
		{
			"inputs": [
				{
					"internalType": "address",
					"name": "",
					"type": "address"
				}
			],
			"name": "voters",
			"outputs": [
				{
					"internalType": "bool",
					"name": "isRegistered",
					"type": "bool"
				},
				{
					"internalType": "bool",
					"name": "hasVoted",
					"type": "bool"
				},
				{
					"internalType": "uint256",
					"name": "votedProposalId",
					"type": "uint256"
				}
			],
			"stateMutability": "view",
			"type": "function"
		},
		{
			"inputs": [
				{
					"internalType": "address",
					"name": "voterAddress",
					"type": "address"
				}
			],
			"name": "whitelist",
			"outputs": [],
			"stateMutability": "nonpayable",
			"type": "function"
		},
		{
			"inputs": [],
			"name": "winningProposalId",
			"outputs": [
				{
					"internalType": "uint256",
					"name": "",
					"type": "uint256"
				}
			],
			"stateMutability": "view",
			"type": "function"
		}
	]
}